{
	"data": {
		"bytecode": {
			"linkReferences": {},
			"object": "608060405234801561000f575f5ffd5b506040518060400160405280601081526020017f4f6e2d436861696e204a6f75726e616c000000000000000000000000000000008152506040518060400160405280600781526020017f4a4f55524e414c00000000000000000000000000000000000000000000000000815250815f908161008a91906102df565b50806001908161009a91906102df565b5050506103ae565b5f81519050919050565b7f4e487b71000000000000000000000000000000000000000000000000000000005f52604160045260245ffd5b7f4e487b71000000000000000000000000000000000000000000000000000000005f52602260045260245ffd5b5f600282049050600182168061011d57607f821691505b6020821081036101305761012f6100d9565b5b50919050565b5f819050815f5260205f209050919050565b5f6020601f8301049050919050565b5f82821b905092915050565b5f600883026101927fffffffffffffffffffffffffffffffffffffffffffffffffffffffffffffffff82610157565b61019c8683610157565b95508019841693508086168417925050509392505050565b5f819050919050565b5f819050919050565b5f6101e06101db6101d6846101b4565b6101bd565b6101b4565b9050919050565b5f819050919050565b6101f9836101c6565b61020d610205826101e7565b848454610163565b825550505050565b5f5f905090565b610224610215565b61022f8184846101f0565b505050565b5b81811015610252576102475f8261021c565b600181019050610235565b5050565b601f8211156102975761026881610136565b61027184610148565b81016020851015610280578190505b61029461028c85610148565b830182610234565b50505b505050565b5f82821c905092915050565b5f6102b75f198460080261029c565b1980831691505092915050565b5f6102cf83836102a8565b9150826002028217905092915050565b6102e8826100a2565b67ffffffffffffffff811115610301576103006100ac565b5b61030b8254610106565b610316828285610256565b5f60209050601f831160018114610347575f8415610335578287015190505b61033f85826102c4565b8655506103a6565b601f19841661035586610136565b5f5b8281101561037c57848901518255600182019150602085019450602081019050610357565b868310156103995784890151610395601f8916826102a8565b8355505b6001600288020188555050505b505050505050565b614851806103bb5f395ff3fe608060405234801561000f575f5ffd5b50600436106100fe575f3560e01c806370a0823111610095578063c87b56dd11610064578063c87b56dd146102ba578063d43bd5c2146102ea578063d83fe9f514610306578063e985e9c514610339576100fe565b806370a082311461023457806395d89b4114610264578063a22cb46514610282578063b88d4fde1461029e576100fe565b806323b872dd116100d157806323b872dd1461019c57806342842e0e146101b857806358dca498146101d45780636352211e14610204576100fe565b806301ffc9a71461010257806306fdde0314610132578063081812fc14610150578063095ea7b314610180575b5f5ffd5b61011c600480360381019061011791906128d1565b610369565b6040516101299190612916565b60405180910390f35b61013a61044a565b604051610147919061299f565b60405180910390f35b61016a600480360381019061016591906129f2565b6104d9565b6040516101779190612a5c565b60405180910390f35b61019a60048036038101906101959190612a9f565b6104f4565b005b6101b660048036038101906101b19190612add565b61050a565b005b6101d260048036038101906101cd9190612add565b610609565b005b6101ee60048036038101906101e99190612d0e565b610628565b6040516101fb919061299f565b60405180910390f35b61021e600480360381019061021991906129f2565b610682565b60405161022b9190612a5c565b60405180910390f35b61024e60048036038101906102499190612d55565b610693565b60405161025b9190612d8f565b60405180910390f35b61026c610749565b604051610279919061299f565b60405180910390f35b61029c60048036038101906102979190612dd2565b6107d9565b005b6102b860048036038101906102b39190612eae565b6107ef565b005b6102d460048036038101906102cf91906129f2565b610814565b6040516102e1919061299f565b60405180910390f35b61030460048036038101906102ff9190612f2e565b610af7565b005b610320600480360381019061031b91906129f2565b610be2565b6040516103309493929190612fa4565b60405180910390f35b610353600480360381019061034e9190612ff5565b610d39565b6040516103609190612916565b60405180910390f35b5f7f80ac58cd000000000000000000000000000000000000000000000000000000007bffffffffffffffffffffffffffffffffffffffffffffffffffffffff1916827bffffffffffffffffffffffffffffffffffffffffffffffffffffffff1916148061043357507f5b5e139f000000000000000000000000000000000000000000000000000000007bffffffffffffffffffffffffffffffffffffffffffffffffffffffff1916827bffffffffffffffffffffffffffffffffffffffffffffffffffffffff1916145b80610443575061044282610dc7565b5b9050919050565b60605f805461045890613060565b80601f016020809104026020016040519081016040528092919081815260200182805461048490613060565b80156104cf5780601f106104a6576101008083540402835291602001916104cf565b820191905f5260205f20905b8154815290600101906020018083116104b257829003601f168201915b5050505050905090565b5f6104e382610e30565b506104ed82610eb6565b9050919050565b6105068282610501610eef565b610ef6565b5050565b5f73ffffffffffffffffffffffffffffffffffffffff168273ffffffffffffffffffffffffffffffffffffffff160361057a575f6040517f64a0ae920000000000000000000000000000000000000000000000000000000081526004016105719190612a5c565b60405180910390fd5b5f61058d8383610588610eef565b610f08565b90508373ffffffffffffffffffffffffffffffffffffffff168173ffffffffffffffffffffffffffffffffffffffff1614610603578382826040517f64283d7b0000000000000000000000000000000000000000000000000000000081526004016105fa93929190613090565b60405180910390fd5b50505050565b61062383838360405180602001604052805f8152506107ef565b505050565b60605f610637835f0151611113565b90505f6106478460200151611113565b9050806106578560400151611cb1565b8360405160200161066a93929190613ac7565b60405160208183030381529060405292505050919050565b5f61068c82610e30565b9050919050565b5f5f73ffffffffffffffffffffffffffffffffffffffff168273ffffffffffffffffffffffffffffffffffffffff1603610704575f6040517f89c62b640000000000000000000000000000000000000000000000000000000081526004016106fb9190612a5c565b60405180910390fd5b60035f8373ffffffffffffffffffffffffffffffffffffffff1673ffffffffffffffffffffffffffffffffffffffff1681526020019081526020015f20549050919050565b60606001805461075890613060565b80601f016020809104026020016040519081016040528092919081815260200182805461078490613060565b80156107cf5780601f106107a6576101008083540402835291602001916107cf565b820191905f5260205f20905b8154815290600101906020018083116107b257829003601f168201915b5050505050905090565b6107eb6107e4610eef565b8383611d7b565b5050565b6107fa84848461050a565b61080e610805610eef565b85858585611ee4565b50505050565b60605f73ffffffffffffffffffffffffffffffffffffffff1661083683612090565b73ffffffffffffffffffffffffffffffffffffffff160361088c576040517f08c379a000000000000000000000000000000000000000000000000000000000815260040161088390613c33565b60405180910390fd5b5f60075f8481526020019081526020015f206040518060800160405290815f820180546108b890613060565b80601f01602080910402602001604051908101604052809291908181526020018280546108e490613060565b801561092f5780601f106109065761010080835404028352916020019161092f565b820191905f5260205f20905b81548152906001019060200180831161091257829003601f168201915b5050505050815260200160018201805461094890613060565b80601f016020809104026020016040519081016040528092919081815260200182805461097490613060565b80156109bf5780601f10610996576101008083540402835291602001916109bf565b820191905f5260205f20905b8154815290600101906020018083116109a257829003601f168201915b5050505050815260200160028201548152602001600382015f9054906101000a900473ffffffffffffffffffffffffffffffffffffffff1673ffffffffffffffffffffffffffffffffffffffff1673ffffffffffffffffffffffffffffffffffffffff168152505090505f610a3382610628565b90505f610a3f826120c9565b90505f610a4b86611cb1565b610a588560400151611cb1565b604051602001610a689190613d0b565b604051602081830303815290604052610a848660200151611113565b610a918760400151611cb1565b610a9d885f0151611113565b86604051602001610ab396959493929190614191565b6040516020818303038152906040529050610acd816120c9565b604051602001610add91906142d7565b604051602081830303815290604052945050505050919050565b5f610b0260066120f6565b9050610b0e3382612102565b60405180608001604052808481526020018381526020014281526020013373ffffffffffffffffffffffffffffffffffffffff1681525060075f8381526020019081526020015f205f820151815f019081610b699190614498565b506020820151816001019081610b7f9190614498565b50604082015181600201556060820151816003015f6101000a81548173ffffffffffffffffffffffffffffffffffffffff021916908373ffffffffffffffffffffffffffffffffffffffff160217905550905050610bdd600661211f565b505050565b6007602052805f5260405f205f91509050805f018054610c0190613060565b80601f0160208091040260200160405190810160405280929190818152602001828054610c2d90613060565b8015610c785780601f10610c4f57610100808354040283529160200191610c78565b820191905f5260205f20905b815481529060010190602001808311610c5b57829003601f168201915b505050505090806001018054610c8d90613060565b80601f0160208091040260200160405190810160405280929190818152602001828054610cb990613060565b8015610d045780601f10610cdb57610100808354040283529160200191610d04565b820191905f5260205f20905b815481529060010190602001808311610ce757829003601f168201915b505050505090806002015490806003015f9054906101000a900473ffffffffffffffffffffffffffffffffffffffff16905084565b5f60055f8473ffffffffffffffffffffffffffffffffffffffff1673ffffffffffffffffffffffffffffffffffffffff1681526020019081526020015f205f8373ffffffffffffffffffffffffffffffffffffffff1673ffffffffffffffffffffffffffffffffffffffff1681526020019081526020015f205f9054906101000a900460ff16905092915050565b5f7f01ffc9a7000000000000000000000000000000000000000000000000000000007bffffffffffffffffffffffffffffffffffffffffffffffffffffffff1916827bffffffffffffffffffffffffffffffffffffffffffffffffffffffff1916149050919050565b5f5f610e3b83612090565b90505f73ffffffffffffffffffffffffffffffffffffffff168173ffffffffffffffffffffffffffffffffffffffff1603610ead57826040517f7e273289000000000000000000000000000000000000000000000000000000008152600401610ea49190612d8f565b60405180910390fd5b80915050919050565b5f60045f8381526020019081526020015f205f9054906101000a900473ffffffffffffffffffffffffffffffffffffffff169050919050565b5f33905090565b610f038383836001612133565b505050565b5f5f610f1384612090565b90505f73ffffffffffffffffffffffffffffffffffffffff168373ffffffffffffffffffffffffffffffffffffffff1614610f5457610f538184866122f2565b5b5f73ffffffffffffffffffffffffffffffffffffffff168173ffffffffffffffffffffffffffffffffffffffff1614610fdf57610f935f855f5f612133565b600160035f8373ffffffffffffffffffffffffffffffffffffffff1673ffffffffffffffffffffffffffffffffffffffff1681526020019081526020015f205f82825403925050819055505b5f73ffffffffffffffffffffffffffffffffffffffff168573ffffffffffffffffffffffffffffffffffffffff161461105e57600160035f8773ffffffffffffffffffffffffffffffffffffffff1673ffffffffffffffffffffffffffffffffffffffff1681526020019081526020015f205f82825401925050819055505b8460025f8681526020019081526020015f205f6101000a81548173ffffffffffffffffffffffffffffffffffffffff021916908373ffffffffffffffffffffffffffffffffffffffff160217905550838573ffffffffffffffffffffffffffffffffffffffff168273ffffffffffffffffffffffffffffffffffffffff167fddf252ad1be2c89b69c2b068fc378daa952ba7f163c4a11628f55a4df523b3ef60405160405180910390a4809150509392505050565b60605f8290505f600582516111289190614594565b67ffffffffffffffff81111561114157611140612b31565b5b6040519080825280601f01601f1916602001820160405280156111735781602001600182028036833780820191505090505b5090505f5f90505f5f90505b8351811015611bda577f26000000000000000000000000000000000000000000000000000000000000008482815181106111bc576111bb6145d5565b5b602001015160f81c60f81b7effffffffffffffffffffffffffffffffffffffffffffffffffffffffffffff191603611419577f260000000000000000000000000000000000000000000000000000000000000083838061121b90614602565b94508151811061122e5761122d6145d5565b5b60200101907effffffffffffffffffffffffffffffffffffffffffffffffffffffffffffff191690815f1a9053507f610000000000000000000000000000000000000000000000000000000000000083838061128990614602565b94508151811061129c5761129b6145d5565b5b60200101907effffffffffffffffffffffffffffffffffffffffffffffffffffffffffffff191690815f1a9053507f6d000000000000000000000000000000000000000000000000000000000000008383806112f790614602565b94508151811061130a576113096145d5565b5b60200101907effffffffffffffffffffffffffffffffffffffffffffffffffffffffffffff191690815f1a9053507f700000000000000000000000000000000000000000000000000000000000000083838061136590614602565b945081518110611378576113776145d5565b5b60200101907effffffffffffffffffffffffffffffffffffffffffffffffffffffffffffff191690815f1a9053507f3b000000000000000000000000000000000000000000000000000000000000008383806113d390614602565b9450815181106113e6576113e56145d5565b5b60200101907effffffffffffffffffffffffffffffffffffffffffffffffffffffffffffff191690815f1a905350611bcd565b7f3c0000000000000000000000000000000000000000000000000000000000000084828151811061144d5761144c6145d5565b5b602001015160f81c60f81b7effffffffffffffffffffffffffffffffffffffffffffffffffffffffffffff19160361163c577f26000000000000000000000000000000000000000000000000000000000000008383806114ac90614602565b9450815181106114bf576114be6145d5565b5b60200101907effffffffffffffffffffffffffffffffffffffffffffffffffffffffffffff191690815f1a9053507f6c0000000000000000000000000000000000000000000000000000000000000083838061151a90614602565b94508151811061152d5761152c6145d5565b5b60200101907effffffffffffffffffffffffffffffffffffffffffffffffffffffffffffff191690815f1a9053507f740000000000000000000000000000000000000000000000000000000000000083838061158890614602565b94508151811061159b5761159a6145d5565b5b60200101907effffffffffffffffffffffffffffffffffffffffffffffffffffffffffffff191690815f1a9053507f3b000000000000000000000000000000000000000000000000000000000000008383806115f690614602565b945081518110611609576116086145d5565b5b60200101907effffffffffffffffffffffffffffffffffffffffffffffffffffffffffffff191690815f1a905350611bcc565b7f3e000000000000000000000000000000000000000000000000000000000000008482815181106116705761166f6145d5565b5b602001015160f81c60f81b7effffffffffffffffffffffffffffffffffffffffffffffffffffffffffffff19160361185f577f26000000000000000000000000000000000000000000000000000000000000008383806116cf90614602565b9450815181106116e2576116e16145d5565b5b60200101907effffffffffffffffffffffffffffffffffffffffffffffffffffffffffffff191690815f1a9053507f670000000000000000000000000000000000000000000000000000000000000083838061173d90614602565b9450815181106117505761174f6145d5565b5b60200101907effffffffffffffffffffffffffffffffffffffffffffffffffffffffffffff191690815f1a9053507f74000000000000000000000000000000000000000000000000000000000000008383806117ab90614602565b9450815181106117be576117bd6145d5565b5b60200101907effffffffffffffffffffffffffffffffffffffffffffffffffffffffffffff191690815f1a9053507f3b0000000000000000000000000000000000000000000000000000000000000083838061181990614602565b94508151811061182c5761182b6145d5565b5b60200101907effffffffffffffffffffffffffffffffffffffffffffffffffffffffffffff191690815f1a905350611bcb565b7f2200000000000000000000000000000000000000000000000000000000000000848281518110611893576118926145d5565b5b602001015160f81c60f81b7effffffffffffffffffffffffffffffffffffffffffffffffffffffffffffff191603611b5e577f26000000000000000000000000000000000000000000000000000000000000008383806118f290614602565b945081518110611905576119046145d5565b5b60200101907effffffffffffffffffffffffffffffffffffffffffffffffffffffffffffff191690815f1a9053507f710000000000000000000000000000000000000000000000000000000000000083838061196090614602565b945081518110611973576119726145d5565b5b60200101907effffffffffffffffffffffffffffffffffffffffffffffffffffffffffffff191690815f1a9053507f75000000000000000000000000000000000000000000000000000000000000008383806119ce90614602565b9450815181106119e1576119e06145d5565b5b60200101907effffffffffffffffffffffffffffffffffffffffffffffffffffffffffffff191690815f1a9053507f6f00000000000000000000000000000000000000000000000000000000000000838380611a3c90614602565b945081518110611a4f57611a4e6145d5565b5b60200101907effffffffffffffffffffffffffffffffffffffffffffffffffffffffffffff191690815f1a9053507f7400000000000000000000000000000000000000000000000000000000000000838380611aaa90614602565b945081518110611abd57611abc6145d5565b5b60200101907effffffffffffffffffffffffffffffffffffffffffffffffffffffffffffff191690815f1a9053507f3b00000000000000000000000000000000000000000000000000000000000000838380611b1890614602565b945081518110611b2b57611b2a6145d5565b5b60200101907effffffffffffffffffffffffffffffffffffffffffffffffffffffffffffff191690815f1a905350611bca565b838181518110611b7157611b706145d5565b5b602001015160f81c60f81b838380611b8890614602565b945081518110611b9b57611b9a6145d5565b5b60200101907effffffffffffffffffffffffffffffffffffffffffffffffffffffffffffff191690815f1a9053505b5b5b5b808060010191505061117f565b505f8167ffffffffffffffff811115611bf657611bf5612b31565b5b6040519080825280601f01601f191660200182016040528015611c285781602001600182028036833780820191505090505b5090505f5f90505b82811015611ca457838181518110611c4b57611c4a6145d5565b5b602001015160f81c60f81b828281518110611c6957611c686145d5565b5b60200101907effffffffffffffffffffffffffffffffffffffffffffffffffffffffffffff191690815f1a9053508080600101915050611c30565b5080945050505050919050565b60605f6001611cbf846123b5565b0190505f8167ffffffffffffffff811115611cdd57611cdc612b31565b5b6040519080825280601f01601f191660200182016040528015611d0f5781602001600182028036833780820191505090505b5090505f82602001820190505b600115611d70578080600190039150507f3031323334353637383961626364656600000000000000000000000000000000600a86061a8153600a8581611d6557611d64614649565b5b0494505f8503611d1c575b819350505050919050565b5f73ffffffffffffffffffffffffffffffffffffffff168273ffffffffffffffffffffffffffffffffffffffff1603611deb57816040517f5b08ba18000000000000000000000000000000000000000000000000000000008152600401611de29190612a5c565b60405180910390fd5b8060055f8573ffffffffffffffffffffffffffffffffffffffff1673ffffffffffffffffffffffffffffffffffffffff1681526020019081526020015f205f8473ffffffffffffffffffffffffffffffffffffffff1673ffffffffffffffffffffffffffffffffffffffff1681526020019081526020015f205f6101000a81548160ff0219169083151502179055508173ffffffffffffffffffffffffffffffffffffffff168373ffffffffffffffffffffffffffffffffffffffff167f17307eab39ab6107e8899845ad3d59bd9653f200f220920489ca2b5937696c3183604051611ed79190612916565b60405180910390a3505050565b5f8373ffffffffffffffffffffffffffffffffffffffff163b1115612089578273ffffffffffffffffffffffffffffffffffffffff1663150b7a02868685856040518563ffffffff1660e01b8152600401611f4294939291906146c8565b6020604051808303815f875af1925050508015611f7d57506040513d601f19601f82011682018060405250810190611f7a9190614726565b60015b611ffe573d805f8114611fab576040519150601f19603f3d011682016040523d82523d5f602084013e611fb0565b606091505b505f815103611ff657836040517f64a0ae92000000000000000000000000000000000000000000000000000000008152600401611fed9190612a5c565b60405180910390fd5b805181602001fd5b63150b7a0260e01b7bffffffffffffffffffffffffffffffffffffffffffffffffffffffff1916817bffffffffffffffffffffffffffffffffffffffffffffffffffffffff19161461208757836040517f64a0ae9200000000000000000000000000000000000000000000000000000000815260040161207e9190612a5c565b60405180910390fd5b505b5050505050565b5f60025f8381526020019081526020015f205f9054906101000a900473ffffffffffffffffffffffffffffffffffffffff169050919050565b60606120ef826040518060600160405280604081526020016147dc604091396001612506565b9050919050565b5f815f01549050919050565b61211b828260405180602001604052805f815250612695565b5050565b6001815f015f828254019250508190555050565b808061216b57505f73ffffffffffffffffffffffffffffffffffffffff168273ffffffffffffffffffffffffffffffffffffffff1614155b1561229d575f61217a84610e30565b90505f73ffffffffffffffffffffffffffffffffffffffff168373ffffffffffffffffffffffffffffffffffffffff16141580156121e457508273ffffffffffffffffffffffffffffffffffffffff168173ffffffffffffffffffffffffffffffffffffffff1614155b80156121f757506121f58184610d39565b155b1561223957826040517fa9fbf51f0000000000000000000000000000000000000000000000000000000081526004016122309190612a5c565b60405180910390fd5b811561229b57838573ffffffffffffffffffffffffffffffffffffffff168273ffffffffffffffffffffffffffffffffffffffff167f8c5be1e5ebec7d5bd14f71427d1e84f3dd0314c0f7b2291e5b200ac8c7c3b92560405160405180910390a45b505b8360045f8581526020019081526020015f205f6101000a81548173ffffffffffffffffffffffffffffffffffffffff021916908373ffffffffffffffffffffffffffffffffffffffff16021790555050505050565b6122fd8383836126b8565b6123b0575f73ffffffffffffffffffffffffffffffffffffffff168373ffffffffffffffffffffffffffffffffffffffff160361237157806040517f7e2732890000000000000000000000000000000000000000000000000000000081526004016123689190612d8f565b60405180910390fd5b81816040517f177e802f0000000000000000000000000000000000000000000000000000000081526004016123a7929190614751565b60405180910390fd5b505050565b5f5f5f90507a184f03e93ff9f4daa797ed6e38ed64bf6a1f0100000000000000008310612411577a184f03e93ff9f4daa797ed6e38ed64bf6a1f010000000000000000838161240757612406614649565b5b0492506040810190505b6d04ee2d6d415b85acef8100000000831061244e576d04ee2d6d415b85acef8100000000838161244457612443614649565b5b0492506020810190505b662386f26fc10000831061247d57662386f26fc10000838161247357612472614649565b5b0492506010810190505b6305f5e10083106124a6576305f5e100838161249c5761249b614649565b5b0492506008810190505b61271083106124cb5761271083816124c1576124c0614649565b5b0492506004810190505b606483106124ee57606483816124e4576124e3614649565b5b0492506002810190505b600a83106124fd576001810190505b80915050919050565b60605f8451036125265760405180602001604052805f815250905061268e565b5f8261255757600360028651600461253e9190614594565b6125489190614778565b61255291906147ab565b61257e565b6003600286516125679190614778565b61257191906147ab565b600461257d9190614594565b5b90505f8167ffffffffffffffff81111561259b5761259a612b31565b5b6040519080825280601f01601f1916602001820160405280156125cd5781602001600182028036833780820191505090505b509050600185016020820187885189016020810180515f82525b82841015612642576003840193508351603f8160121c168701518653600186019550603f81600c1c168701518653600186019550603f8160061c168701518653600186019550603f81168701518653600186019550506125e7565b80825289156126825760038c510660018114612665576002811461267857612680565b603d6001870353603d6002870353612680565b603d60018703535b505b50505050505080925050505b9392505050565b61269f8383612778565b6126b36126aa610eef565b5f858585611ee4565b505050565b5f5f73ffffffffffffffffffffffffffffffffffffffff168373ffffffffffffffffffffffffffffffffffffffff161415801561276f57508273ffffffffffffffffffffffffffffffffffffffff168473ffffffffffffffffffffffffffffffffffffffff161480612730575061272f8484610d39565b5b8061276e57508273ffffffffffffffffffffffffffffffffffffffff1661275683610eb6565b73ffffffffffffffffffffffffffffffffffffffff16145b5b90509392505050565b5f73ffffffffffffffffffffffffffffffffffffffff168273ffffffffffffffffffffffffffffffffffffffff16036127e8575f6040517f64a0ae920000000000000000000000000000000000000000000000000000000081526004016127df9190612a5c565b60405180910390fd5b5f6127f483835f610f08565b90505f73ffffffffffffffffffffffffffffffffffffffff168173ffffffffffffffffffffffffffffffffffffffff1614612866575f6040517f73c6ac6e00000000000000000000000000000000000000000000000000000000815260040161285d9190612a5c565b60405180910390fd5b505050565b5f604051905090565b5f5ffd5b5f5ffd5b5f7fffffffff0000000000000000000000000000000000000000000000000000000082169050919050565b6128b08161287c565b81146128ba575f5ffd5b50565b5f813590506128cb816128a7565b92915050565b5f602082840312156128e6576128e5612874565b5b5f6128f3848285016128bd565b91505092915050565b5f8115159050919050565b612910816128fc565b82525050565b5f6020820190506129295f830184612907565b92915050565b5f81519050919050565b5f82825260208201905092915050565b8281835e5f83830152505050565b5f601f19601f8301169050919050565b5f6129718261292f565b61297b8185612939565b935061298b818560208601612949565b61299481612957565b840191505092915050565b5f6020820190508181035f8301526129b78184612967565b905092915050565b5f819050919050565b6129d1816129bf565b81146129db575f5ffd5b50565b5f813590506129ec816129c8565b92915050565b5f60208284031215612a0757612a06612874565b5b5f612a14848285016129de565b91505092915050565b5f73ffffffffffffffffffffffffffffffffffffffff82169050919050565b5f612a4682612a1d565b9050919050565b612a5681612a3c565b82525050565b5f602082019050612a6f5f830184612a4d565b92915050565b612a7e81612a3c565b8114612a88575f5ffd5b50565b5f81359050612a9981612a75565b92915050565b5f5f60408385031215612ab557612ab4612874565b5b5f612ac285828601612a8b565b9250506020612ad3858286016129de565b9150509250929050565b5f5f5f60608486031215612af457612af3612874565b5b5f612b0186828701612a8b565b9350506020612b1286828701612a8b565b9250506040612b23868287016129de565b9150509250925092565b5f5ffd5b7f4e487b71000000000000000000000000000000000000000000000000000000005f52604160045260245ffd5b612b6782612957565b810181811067ffffffffffffffff82111715612b8657612b85612b31565b5b80604052505050565b5f612b9861286b565b9050612ba48282612b5e565b919050565b5f5ffd5b5f5ffd5b5f5ffd5b5f67ffffffffffffffff821115612bcf57612bce612b31565b5b612bd882612957565b9050602081019050919050565b828183375f83830152505050565b5f612c05612c0084612bb5565b612b8f565b905082815260208101848484011115612c2157612c20612bb1565b5b612c2c848285612be5565b509392505050565b5f82601f830112612c4857612c47612bad565b5b8135612c58848260208601612bf3565b91505092915050565b5f60808284031215612c7657612c75612b2d565b5b612c806080612b8f565b90505f82013567ffffffffffffffff811115612c9f57612c9e612ba9565b5b612cab84828501612c34565b5f83015250602082013567ffffffffffffffff811115612cce57612ccd612ba9565b5b612cda84828501612c34565b6020830152506040612cee848285016129de565b6040830152506060612d0284828501612a8b565b60608301525092915050565b5f60208284031215612d2357612d22612874565b5b5f82013567ffffffffffffffff811115612d4057612d3f612878565b5b612d4c84828501612c61565b91505092915050565b5f60208284031215612d6a57612d69612874565b5b5f612d7784828501612a8b565b91505092915050565b612d89816129bf565b82525050565b5f602082019050612da25f830184612d80565b92915050565b612db1816128fc565b8114612dbb575f5ffd5b50565b5f81359050612dcc81612da8565b92915050565b5f5f60408385031215612de857612de7612874565b5b5f612df585828601612a8b565b9250506020612e0685828601612dbe565b9150509250929050565b5f67ffffffffffffffff821115612e2a57612e29612b31565b5b612e3382612957565b9050602081019050919050565b5f612e52612e4d84612e10565b612b8f565b905082815260208101848484011115612e6e57612e6d612bb1565b5b612e79848285612be5565b509392505050565b5f82601f830112612e9557612e94612bad565b5b8135612ea5848260208601612e40565b91505092915050565b5f5f5f5f60808587031215612ec657612ec5612874565b5b5f612ed387828801612a8b565b9450506020612ee487828801612a8b565b9350506040612ef5878288016129de565b925050606085013567ffffffffffffffff811115612f1657612f15612878565b5b612f2287828801612e81565b91505092959194509250565b5f5f60408385031215612f4457612f43612874565b5b5f83013567ffffffffffffffff811115612f6157612f60612878565b5b612f6d85828601612c34565b925050602083013567ffffffffffffffff811115612f8e57612f8d612878565b5b612f9a85828601612c34565b9150509250929050565b5f6080820190508181035f830152612fbc8187612967565b90508181036020830152612fd08186612967565b9050612fdf6040830185612d80565b612fec6060830184612a4d565b95945050505050565b5f5f6040838503121561300b5761300a612874565b5b5f61301885828601612a8b565b925050602061302985828601612a8b565b9150509250929050565b7f4e487b71000000000000000000000000000000000000000000000000000000005f52602260045260245ffd5b5f600282049050600182168061307757607f821691505b60208210810361308a57613089613033565b5b50919050565b5f6060820190506130a35f830186612a4d565b6130b06020830185612d80565b6130bd6040830184612a4d565b949350505050565b5f81905092915050565b7f3c7376672077696474683d2235303022206865696768743d223530302220786d5f8201527f6c6e733d22687474703a2f2f7777772e77332e6f72672f323030302f7376672260208201527f3e00000000000000000000000000000000000000000000000000000000000000604082015250565b5f61314f6041836130c5565b915061315a826130cf565b604182019050919050565b7f3c646566733e00000000000000000000000000000000000000000000000000005f82015250565b5f6131996006836130c5565b91506131a482613165565b600682019050919050565b7f3c6c696e6561724772616469656e742069643d2267726164222078313d2230255f8201527f222079313d223025222078323d2231303025222079323d2231303025223e0000602082015250565b5f613209603e836130c5565b9150613214826131af565b603e82019050919050565b7f3c73746f70206f66667365743d22302522207374796c653d2273746f702d636f5f8201527f6c6f723a236632356430303b73746f702d6f7061636974793a3122202f3e0000602082015250565b5f613279603e836130c5565b91506132848261321f565b603e82019050919050565b7f3c73746f70206f66667365743d223130302522207374796c653d2273746f702d5f8201527f636f6c6f723a236330323664333b73746f702d6f7061636974793a3122202f3e602082015250565b5f6132e96040836130c5565b91506132f48261328f565b604082019050919050565b7f3c2f6c696e6561724772616469656e743e0000000000000000000000000000005f82015250565b5f6133336011836130c5565b915061333e826132ff565b601182019050919050565b7f3c2f646566733e000000000000000000000000000000000000000000000000005f82015250565b5f61337d6007836130c5565b915061338882613349565b600782019050919050565b7f3c212d2d20546865206f757465722072656374616e676c6520746861742061635f8201527f747320617320746865206772616469656e7420626f72646572202d2d3e000000602082015250565b5f6133ed603d836130c5565b91506133f882613393565b603d82019050919050565b7f3c726563742077696474683d223130302522206865696768743d2231303025225f8201527f2072783d223230222072793d223230222066696c6c3d2275726c28236772616460208201527f29222f3e00000000000000000000000000000000000000000000000000000000604082015250565b5f6134836044836130c5565b915061348e82613403565b604482019050919050565b7f3c212d2d2054686520696e6e65722c206d61696e2072656374616e676c6520775f8201527f697468206120736f6c696420636f6c6f72202d2d3e0000000000000000000000602082015250565b5f6134f36035836130c5565b91506134fe82613499565b603582019050919050565b7f3c7265637420783d22382220793d2238222077696474683d22343834222068655f8201527f696768743d22343834222072783d223135222072793d223135222066696c6c3d60208201527f2223663235643030222f3e000000000000000000000000000000000000000000604082015250565b5f613589604b836130c5565b915061359482613509565b604b82019050919050565b7f3c212d2d205468652072657374206f662074686520636f6e74656e74206973205f8201527f647261776e206f6e20746f70202d2d3e00000000000000000000000000000000602082015250565b5f6135f96030836130c5565b91506136048261359f565b603082019050919050565b7f3c7465787420783d223435302220793d2239302220666f6e742d66616d696c795f8201527f3d2273616e732d73657269662220666f6e742d73697a653d223730222074657860208201527f742d616e63686f723d22656e64222066696c6c3d227768697465223e00000000604082015250565b5f61368f605c836130c5565b915061369a8261360f565b605c82019050919050565b5f6136af8261292f565b6136b981856130c5565b93506136c9818560208601612949565b80840191505092915050565b7f3c2f746578743e000000000000000000000000000000000000000000000000005f82015250565b5f6137096007836130c5565b9150613714826136d5565b600782019050919050565b7f3c7465787420783d2235302220793d2237352220666f6e742d66616d696c793d5f8201527f226d6f6e6f73706163652220666f6e742d73697a653d223230222066696c6c3d60208201527f227768697465222066696c6c2d6f7061636974793d22302e38223e54696d657360408201527f74616d703a200000000000000000000000000000000000000000000000000000606082015250565b5f6137c56066836130c5565b91506137d08261371f565b606682019050919050565b7f3c666f726569676e4f626a65637420783d2235302220793d22313230222077695f8201527f6474683d2234303022206865696768743d22323830223e000000000000000000602082015250565b5f6138356037836130c5565b9150613840826137db565b603782019050919050565b7f3c64697620786d6c6e733d22687474703a2f2f7777772e77332e6f72672f31395f8201527f39392f7868746d6c22207374796c653d22636f6c6f723a2077686974653b206660208201527f6f6e742d66616d696c793a2073616e732d73657269663b20666f6e742d73697a60408201527f653a20323270783b20776f72642d777261703a20627265616b2d776f72643b2060608201527f6c696e652d6865696768743a20312e353b223e00000000000000000000000000608082015250565b5f6139176093836130c5565b91506139228261384b565b609382019050919050565b7f3c2f6469763e00000000000000000000000000000000000000000000000000005f82015250565b5f6139616006836130c5565b915061396c8261392d565b600682019050919050565b7f3c2f666f726569676e4f626a6563743e000000000000000000000000000000005f82015250565b5f6139ab6010836130c5565b91506139b682613977565b601082019050919050565b7f3c7465787420783d2235302220793d223435302220666f6e742d66616d696c795f8201527f3d226d6f6e6f73706163652220666f6e742d73697a653d223136222066696c6c60208201527f3d227768697465222066696c6c2d6f7061636974793d22302e35223e4f6e2d4360408201527f6861696e204a6f75726e616c3c2f746578743e00000000000000000000000000606082015250565b5f613a676073836130c5565b9150613a72826139c1565b607382019050919050565b7f3c2f7376673e00000000000000000000000000000000000000000000000000005f82015250565b5f613ab16006836130c5565b9150613abc82613a7d565b600682019050919050565b5f613ad182613143565b9150613adc8261318d565b9150613ae7826131fd565b9150613af28261326d565b9150613afd826132dd565b9150613b0882613327565b9150613b1382613371565b9150613b1e826133e1565b9150613b2982613477565b9150613b34826134e7565b9150613b3f8261357d565b9150613b4a826135ed565b9150613b5582613683565b9150613b6182866136a5565b9150613b6c826136fd565b9150613b77826137b9565b9150613b8382856136a5565b9150613b8e826136fd565b9150613b9982613829565b9150613ba48261390b565b9150613bb082846136a5565b9150613bbb82613955565b9150613bc68261399f565b9150613bd182613a5b565b9150613bdc82613aa5565b9150819050949350505050565b7f55524920717565727920666f72206e6f6e6578697374656e7420746f6b656e005f82015250565b5f613c1d601f83612939565b9150613c2882613be9565b602082019050919050565b5f6020820190508181035f830152613c4a81613c11565b9050919050565b7f4120706572736f6e616c206a6f75726e616c20656e747279206d696e746564205f8201527f61742074696d657374616d702000000000000000000000000000000000000000602082015250565b5f613cab602d836130c5565b9150613cb682613c51565b602d82019050919050565b7f2e000000000000000000000000000000000000000000000000000000000000005f82015250565b5f613cf56001836130c5565b9150613d0082613cc1565b600182019050919050565b5f613d1582613c9f565b9150613d2182846136a5565b9150613d2c82613ce9565b915081905092915050565b7f7b226e616d65223a20224a6f75726e616c20456e7472792023000000000000005f82015250565b5f613d6b6019836130c5565b9150613d7682613d37565b601982019050919050565b7f222c0000000000000000000000000000000000000000000000000000000000005f82015250565b5f613db56002836130c5565b9150613dc082613d81565b600282019050919050565b7f226465736372697074696f6e223a2022000000000000000000000000000000005f82015250565b5f613dff6010836130c5565b9150613e0a82613dcb565b601082019050919050565b7f2261747472696275746573223a205b00000000000000000000000000000000005f82015250565b5f613e49600f836130c5565b9150613e5482613e15565b600f82019050919050565b7f7b2274726169745f74797065223a20224d6f6f64222c202276616c7565223a205f8201527f2200000000000000000000000000000000000000000000000000000000000000602082015250565b5f613eb96021836130c5565b9150613ec482613e5f565b602182019050919050565b7f227d2c00000000000000000000000000000000000000000000000000000000005f82015250565b5f613f036003836130c5565b9150613f0e82613ecf565b600382019050919050565b7f7b2274726169745f74797065223a202254696d657374616d70222c202276616c5f8201527f7565223a20220000000000000000000000000000000000000000000000000000602082015250565b5f613f736026836130c5565b9150613f7e82613f19565b602682019050919050565b7f7b2274726169745f74797065223a202254657874222c202276616c7565223a205f8201527f2200000000000000000000000000000000000000000000000000000000000000602082015250565b5f613fe36021836130c5565b9150613fee82613f89565b602182019050919050565b7f227d0000000000000000000000000000000000000000000000000000000000005f82015250565b5f61402d6002836130c5565b915061403882613ff9565b600282019050919050565b7f5d2c0000000000000000000000000000000000000000000000000000000000005f82015250565b5f6140776002836130c5565b915061408282614043565b600282019050919050565b7f22696d616765223a2022646174613a696d6167652f7376672b786d6c3b6261735f8201527f6536342c00000000000000000000000000000000000000000000000000000000602082015250565b5f6140e76024836130c5565b91506140f28261408d565b602482019050919050565b7f22000000000000000000000000000000000000000000000000000000000000005f82015250565b5f6141316001836130c5565b915061413c826140fd565b600182019050919050565b7f7d000000000000000000000000000000000000000000000000000000000000005f82015250565b5f61417b6001836130c5565b915061418682614147565b600182019050919050565b5f61419b82613d5f565b91506141a782896136a5565b91506141b282613da9565b91506141bd82613df3565b91506141c982886136a5565b91506141d482613da9565b91506141df82613e3d565b91506141ea82613ead565b91506141f682876136a5565b915061420182613ef7565b915061420c82613f67565b915061421882866136a5565b915061422382613ef7565b915061422e82613fd7565b915061423a82856136a5565b915061424582614021565b91506142508261406b565b915061425b826140db565b915061426782846136a5565b915061427282614125565b915061427d8261416f565b9150819050979650505050505050565b7f646174613a6170706c69636174696f6e2f6a736f6e3b6261736536342c0000005f82015250565b5f6142c1601d836130c5565b91506142cc8261428d565b601d82019050919050565b5f6142e1826142b5565b91506142ed82846136a5565b915081905092915050565b5f819050815f5260205f209050919050565b5f6020601f8301049050919050565b5f82821b905092915050565b5f600883026143547fffffffffffffffffffffffffffffffffffffffffffffffffffffffffffffffff82614319565b61435e8683614319565b95508019841693508086168417925050509392505050565b5f819050919050565b5f61439961439461438f846129bf565b614376565b6129bf565b9050919050565b5f819050919050565b6143b28361437f565b6143c66143be826143a0565b848454614325565b825550505050565b5f5f905090565b6143dd6143ce565b6143e88184846143a9565b505050565b5b8181101561440b576144005f826143d5565b6001810190506143ee565b5050565b601f82111561445057614421816142f8565b61442a8461430a565b81016020851015614439578190505b61444d6144458561430a565b8301826143ed565b50505b505050565b5f82821c905092915050565b5f6144705f1984600802614455565b1980831691505092915050565b5f6144888383614461565b9150826002028217905092915050565b6144a18261292f565b67ffffffffffffffff8111156144ba576144b9612b31565b5b6144c48254613060565b6144cf82828561440f565b5f60209050601f831160018114614500575f84156144ee578287015190505b6144f8858261447d565b86555061455f565b601f19841661450e866142f8565b5f5b8281101561453557848901518255600182019150602085019450602081019050614510565b86831015614552578489015161454e601f891682614461565b8355505b6001600288020188555050505b505050505050565b7f4e487b71000000000000000000000000000000000000000000000000000000005f52601160045260245ffd5b5f61459e826129bf565b91506145a9836129bf565b92508282026145b7816129bf565b915082820484148315176145ce576145cd614567565b5b5092915050565b7f4e487b71000000000000000000000000000000000000000000000000000000005f52603260045260245ffd5b5f61460c826129bf565b91507fffffffffffffffffffffffffffffffffffffffffffffffffffffffffffffffff820361463e5761463d614567565b5b600182019050919050565b7f4e487b71000000000000000000000000000000000000000000000000000000005f52601260045260245ffd5b5f81519050919050565b5f82825260208201905092915050565b5f61469a82614676565b6146a48185614680565b93506146b4818560208601612949565b6146bd81612957565b840191505092915050565b5f6080820190506146db5f830187612a4d565b6146e86020830186612a4d565b6146f56040830185612d80565b81810360608301526147078184614690565b905095945050505050565b5f81519050614720816128a7565b92915050565b5f6020828403121561473b5761473a612874565b5b5f61474884828501614712565b91505092915050565b5f6040820190506147645f830185612a4d565b6147716020830184612d80565b9392505050565b5f614782826129bf565b915061478d836129bf565b92508282019050808211156147a5576147a4614567565b5b92915050565b5f6147b5826129bf565b91506147c0836129bf565b9250826147d0576147cf614649565b5b82820490509291505056fe4142434445464748494a4b4c4d4e4f505152535455565758595a6162636465666768696a6b6c6d6e6f707172737475767778797a303132333435363738392b2fa26469706673582212203072f3ff76ef421f6c32182e2fb6cd31056bd293bd8e54127b8fab8e0acfb68464736f6c634300081e0033",
			"opcodes": "PUSH1 0x80 PUSH1 0x40 MSTORE CALLVALUE DUP1 ISZERO PUSH2 0xF JUMPI PUSH0 PUSH0 REVERT JUMPDEST POP PUSH1 0x40 MLOAD DUP1 PUSH1 0x40 ADD PUSH1 0x40 MSTORE DUP1 PUSH1 0x10 DUP2 MSTORE PUSH1 0x20 ADD PUSH32 0x4F6E2D436861696E204A6F75726E616C00000000000000000000000000000000 DUP2 MSTORE POP PUSH1 0x40 MLOAD DUP1 PUSH1 0x40 ADD PUSH1 0x40 MSTORE DUP1 PUSH1 0x7 DUP2 MSTORE PUSH1 0x20 ADD PUSH32 0x4A4F55524E414C00000000000000000000000000000000000000000000000000 DUP2 MSTORE POP DUP2 PUSH0 SWAP1 DUP2 PUSH2 0x8A SWAP2 SWAP1 PUSH2 0x2DF JUMP JUMPDEST POP DUP1 PUSH1 0x1 SWAP1 DUP2 PUSH2 0x9A SWAP2 SWAP1 PUSH2 0x2DF JUMP JUMPDEST POP POP POP PUSH2 0x3AE JUMP JUMPDEST PUSH0 DUP2 MLOAD SWAP1 POP SWAP2 SWAP1 POP JUMP JUMPDEST PUSH32 0x4E487B7100000000000000000000000000000000000000000000000000000000 PUSH0 MSTORE PUSH1 0x41 PUSH1 0x4 MSTORE PUSH1 0x24 PUSH0 REVERT JUMPDEST PUSH32 0x4E487B7100000000000000000000000000000000000000000000000000000000 PUSH0 MSTORE PUSH1 0x22 PUSH1 0x4 MSTORE PUSH1 0x24 PUSH0 REVERT JUMPDEST PUSH0 PUSH1 0x2 DUP3 DIV SWAP1 POP PUSH1 0x1 DUP3 AND DUP1 PUSH2 0x11D JUMPI PUSH1 0x7F DUP3 AND SWAP2 POP JUMPDEST PUSH1 0x20 DUP3 LT DUP2 SUB PUSH2 0x130 JUMPI PUSH2 0x12F PUSH2 0xD9 JUMP JUMPDEST JUMPDEST POP SWAP2 SWAP1 POP JUMP JUMPDEST PUSH0 DUP2 SWAP1 POP DUP2 PUSH0 MSTORE PUSH1 0x20 PUSH0 KECCAK256 SWAP1 POP SWAP2 SWAP1 POP JUMP JUMPDEST PUSH0 PUSH1 0x20 PUSH1 0x1F DUP4 ADD DIV SWAP1 POP SWAP2 SWAP1 POP JUMP JUMPDEST PUSH0 DUP3 DUP3 SHL SWAP1 POP SWAP3 SWAP2 POP POP JUMP JUMPDEST PUSH0 PUSH1 0x8 DUP4 MUL PUSH2 0x192 PUSH32 0xFFFFFFFFFFFFFFFFFFFFFFFFFFFFFFFFFFFFFFFFFFFFFFFFFFFFFFFFFFFFFFFF DUP3 PUSH2 0x157 JUMP JUMPDEST PUSH2 0x19C DUP7 DUP4 PUSH2 0x157 JUMP JUMPDEST SWAP6 POP DUP1 NOT DUP5 AND SWAP4 POP DUP1 DUP7 AND DUP5 OR SWAP3 POP POP POP SWAP4 SWAP3 POP POP POP JUMP JUMPDEST PUSH0 DUP2 SWAP1 POP SWAP2 SWAP1 POP JUMP JUMPDEST PUSH0 DUP2 SWAP1 POP SWAP2 SWAP1 POP JUMP JUMPDEST PUSH0 PUSH2 0x1E0 PUSH2 0x1DB PUSH2 0x1D6 DUP5 PUSH2 0x1B4 JUMP JUMPDEST PUSH2 0x1BD JUMP JUMPDEST PUSH2 0x1B4 JUMP JUMPDEST SWAP1 POP SWAP2 SWAP1 POP JUMP JUMPDEST PUSH0 DUP2 SWAP1 POP SWAP2 SWAP1 POP JUMP JUMPDEST PUSH2 0x1F9 DUP4 PUSH2 0x1C6 JUMP JUMPDEST PUSH2 0x20D PUSH2 0x205 DUP3 PUSH2 0x1E7 JUMP JUMPDEST DUP5 DUP5 SLOAD PUSH2 0x163 JUMP JUMPDEST DUP3 SSTORE POP POP POP POP JUMP JUMPDEST PUSH0 PUSH0 SWAP1 POP SWAP1 JUMP JUMPDEST PUSH2 0x224 PUSH2 0x215 JUMP JUMPDEST PUSH2 0x22F DUP2 DUP5 DUP5 PUSH2 0x1F0 JUMP JUMPDEST POP POP POP JUMP JUMPDEST JUMPDEST DUP2 DUP2 LT ISZERO PUSH2 0x252 JUMPI PUSH2 0x247 PUSH0 DUP3 PUSH2 0x21C JUMP JUMPDEST PUSH1 0x1 DUP2 ADD SWAP1 POP PUSH2 0x235 JUMP JUMPDEST POP POP JUMP JUMPDEST PUSH1 0x1F DUP3 GT ISZERO PUSH2 0x297 JUMPI PUSH2 0x268 DUP2 PUSH2 0x136 JUMP JUMPDEST PUSH2 0x271 DUP5 PUSH2 0x148 JUMP JUMPDEST DUP2 ADD PUSH1 0x20 DUP6 LT ISZERO PUSH2 0x280 JUMPI DUP2 SWAP1 POP JUMPDEST PUSH2 0x294 PUSH2 0x28C DUP6 PUSH2 0x148 JUMP JUMPDEST DUP4 ADD DUP3 PUSH2 0x234 JUMP JUMPDEST POP POP JUMPDEST POP POP POP JUMP JUMPDEST PUSH0 DUP3 DUP3 SHR SWAP1 POP SWAP3 SWAP2 POP POP JUMP JUMPDEST PUSH0 PUSH2 0x2B7 PUSH0 NOT DUP5 PUSH1 0x8 MUL PUSH2 0x29C JUMP JUMPDEST NOT DUP1 DUP4 AND SWAP2 POP POP SWAP3 SWAP2 POP POP JUMP JUMPDEST PUSH0 PUSH2 0x2CF DUP4 DUP4 PUSH2 0x2A8 JUMP JUMPDEST SWAP2 POP DUP3 PUSH1 0x2 MUL DUP3 OR SWAP1 POP SWAP3 SWAP2 POP POP JUMP JUMPDEST PUSH2 0x2E8 DUP3 PUSH2 0xA2 JUMP JUMPDEST PUSH8 0xFFFFFFFFFFFFFFFF DUP2 GT ISZERO PUSH2 0x301 JUMPI PUSH2 0x300 PUSH2 0xAC JUMP JUMPDEST JUMPDEST PUSH2 0x30B DUP3 SLOAD PUSH2 0x106 JUMP JUMPDEST PUSH2 0x316 DUP3 DUP3 DUP6 PUSH2 0x256 JUMP JUMPDEST PUSH0 PUSH1 0x20 SWAP1 POP PUSH1 0x1F DUP4 GT PUSH1 0x1 DUP2 EQ PUSH2 0x347 JUMPI PUSH0 DUP5 ISZERO PUSH2 0x335 JUMPI DUP3 DUP8 ADD MLOAD SWAP1 POP JUMPDEST PUSH2 0x33F DUP6 DUP3 PUSH2 0x2C4 JUMP JUMPDEST DUP7 SSTORE POP PUSH2 0x3A6 JUMP JUMPDEST PUSH1 0x1F NOT DUP5 AND PUSH2 0x355 DUP7 PUSH2 0x136 JUMP JUMPDEST PUSH0 JUMPDEST DUP3 DUP2 LT ISZERO PUSH2 0x37C JUMPI DUP5 DUP10 ADD MLOAD DUP3 SSTORE PUSH1 0x1 DUP3 ADD SWAP2 POP PUSH1 0x20 DUP6 ADD SWAP5 POP PUSH1 0x20 DUP2 ADD SWAP1 POP PUSH2 0x357 JUMP JUMPDEST DUP7 DUP4 LT ISZERO PUSH2 0x399 JUMPI DUP5 DUP10 ADD MLOAD PUSH2 0x395 PUSH1 0x1F DUP10 AND DUP3 PUSH2 0x2A8 JUMP JUMPDEST DUP4 SSTORE POP JUMPDEST PUSH1 0x1 PUSH1 0x2 DUP9 MUL ADD DUP9 SSTORE POP POP POP JUMPDEST POP POP POP POP POP POP JUMP JUMPDEST PUSH2 0x4851 DUP1 PUSH2 0x3BB PUSH0 CODECOPY PUSH0 RETURN INVALID PUSH1 0x80 PUSH1 0x40 MSTORE CALLVALUE DUP1 ISZERO PUSH2 0xF JUMPI PUSH0 PUSH0 REVERT JUMPDEST POP PUSH1 0x4 CALLDATASIZE LT PUSH2 0xFE JUMPI PUSH0 CALLDATALOAD PUSH1 0xE0 SHR DUP1 PUSH4 0x70A08231 GT PUSH2 0x95 JUMPI DUP1 PUSH4 0xC87B56DD GT PUSH2 0x64 JUMPI DUP1 PUSH4 0xC87B56DD EQ PUSH2 0x2BA JUMPI DUP1 PUSH4 0xD43BD5C2 EQ PUSH2 0x2EA JUMPI DUP1 PUSH4 0xD83FE9F5 EQ PUSH2 0x306 JUMPI DUP1 PUSH4 0xE985E9C5 EQ PUSH2 0x339 JUMPI PUSH2 0xFE JUMP JUMPDEST DUP1 PUSH4 0x70A08231 EQ PUSH2 0x234 JUMPI DUP1 PUSH4 0x95D89B41 EQ PUSH2 0x264 JUMPI DUP1 PUSH4 0xA22CB465 EQ PUSH2 0x282 JUMPI DUP1 PUSH4 0xB88D4FDE EQ PUSH2 0x29E JUMPI PUSH2 0xFE JUMP JUMPDEST DUP1 PUSH4 0x23B872DD GT PUSH2 0xD1 JUMPI DUP1 PUSH4 0x23B872DD EQ PUSH2 0x19C JUMPI DUP1 PUSH4 0x42842E0E EQ PUSH2 0x1B8 JUMPI DUP1 PUSH4 0x58DCA498 EQ PUSH2 0x1D4 JUMPI DUP1 PUSH4 0x6352211E EQ PUSH2 0x204 JUMPI PUSH2 0xFE JUMP JUMPDEST DUP1 PUSH4 0x1FFC9A7 EQ PUSH2 0x102 JUMPI DUP1 PUSH4 0x6FDDE03 EQ PUSH2 0x132 JUMPI DUP1 PUSH4 0x81812FC EQ PUSH2 0x150 JUMPI DUP1 PUSH4 0x95EA7B3 EQ PUSH2 0x180 JUMPI JUMPDEST PUSH0 PUSH0 REVERT JUMPDEST PUSH2 0x11C PUSH1 0x4 DUP1 CALLDATASIZE SUB DUP2 ADD SWAP1 PUSH2 0x117 SWAP2 SWAP1 PUSH2 0x28D1 JUMP JUMPDEST PUSH2 0x369 JUMP JUMPDEST PUSH1 0x40 MLOAD PUSH2 0x129 SWAP2 SWAP1 PUSH2 0x2916 JUMP JUMPDEST PUSH1 0x40 MLOAD DUP1 SWAP2 SUB SWAP1 RETURN JUMPDEST PUSH2 0x13A PUSH2 0x44A JUMP JUMPDEST PUSH1 0x40 MLOAD PUSH2 0x147 SWAP2 SWAP1 PUSH2 0x299F JUMP JUMPDEST PUSH1 0x40 MLOAD DUP1 SWAP2 SUB SWAP1 RETURN JUMPDEST PUSH2 0x16A PUSH1 0x4 DUP1 CALLDATASIZE SUB DUP2 ADD SWAP1 PUSH2 0x165 SWAP2 SWAP1 PUSH2 0x29F2 JUMP JUMPDEST PUSH2 0x4D9 JUMP JUMPDEST PUSH1 0x40 MLOAD PUSH2 0x177 SWAP2 SWAP1 PUSH2 0x2A5C JUMP JUMPDEST PUSH1 0x40 MLOAD DUP1 SWAP2 SUB SWAP1 RETURN JUMPDEST PUSH2 0x19A PUSH1 0x4 DUP1 CALLDATASIZE SUB DUP2 ADD SWAP1 PUSH2 0x195 SWAP2 SWAP1 PUSH2 0x2A9F JUMP JUMPDEST PUSH2 0x4F4 JUMP JUMPDEST STOP JUMPDEST PUSH2 0x1B6 PUSH1 0x4 DUP1 CALLDATASIZE SUB DUP2 ADD SWAP1 PUSH2 0x1B1 SWAP2 SWAP1 PUSH2 0x2ADD JUMP JUMPDEST PUSH2 0x50A JUMP JUMPDEST STOP JUMPDEST PUSH2 0x1D2 PUSH1 0x4 DUP1 CALLDATASIZE SUB DUP2 ADD SWAP1 PUSH2 0x1CD SWAP2 SWAP1 PUSH2 0x2ADD JUMP JUMPDEST PUSH2 0x609 JUMP JUMPDEST STOP JUMPDEST PUSH2 0x1EE PUSH1 0x4 DUP1 CALLDATASIZE SUB DUP2 ADD SWAP1 PUSH2 0x1E9 SWAP2 SWAP1 PUSH2 0x2D0E JUMP JUMPDEST PUSH2 0x628 JUMP JUMPDEST PUSH1 0x40 MLOAD PUSH2 0x1FB SWAP2 SWAP1 PUSH2 0x299F JUMP JUMPDEST PUSH1 0x40 MLOAD DUP1 SWAP2 SUB SWAP1 RETURN JUMPDEST PUSH2 0x21E PUSH1 0x4 DUP1 CALLDATASIZE SUB DUP2 ADD SWAP1 PUSH2 0x219 SWAP2 SWAP1 PUSH2 0x29F2 JUMP JUMPDEST PUSH2 0x682 JUMP JUMPDEST PUSH1 0x40 MLOAD PUSH2 0x22B SWAP2 SWAP1 PUSH2 0x2A5C JUMP JUMPDEST PUSH1 0x40 MLOAD DUP1 SWAP2 SUB SWAP1 RETURN JUMPDEST PUSH2 0x24E PUSH1 0x4 DUP1 CALLDATASIZE SUB DUP2 ADD SWAP1 PUSH2 0x249 SWAP2 SWAP1 PUSH2 0x2D55 JUMP JUMPDEST PUSH2 0x693 JUMP JUMPDEST PUSH1 0x40 MLOAD PUSH2 0x25B SWAP2 SWAP1 PUSH2 0x2D8F JUMP JUMPDEST PUSH1 0x40 MLOAD DUP1 SWAP2 SUB SWAP1 RETURN JUMPDEST PUSH2 0x26C PUSH2 0x749 JUMP JUMPDEST PUSH1 0x40 MLOAD PUSH2 0x279 SWAP2 SWAP1 PUSH2 0x299F JUMP JUMPDEST PUSH1 0x40 MLOAD DUP1 SWAP2 SUB SWAP1 RETURN JUMPDEST PUSH2 0x29C PUSH1 0x4 DUP1 CALLDATASIZE SUB DUP2 ADD SWAP1 PUSH2 0x297 SWAP2 SWAP1 PUSH2 0x2DD2 JUMP JUMPDEST PUSH2 0x7D9 JUMP JUMPDEST STOP JUMPDEST PUSH2 0x2B8 PUSH1 0x4 DUP1 CALLDATASIZE SUB DUP2 ADD SWAP1 PUSH2 0x2B3 SWAP2 SWAP1 PUSH2 0x2EAE JUMP JUMPDEST PUSH2 0x7EF JUMP JUMPDEST STOP JUMPDEST PUSH2 0x2D4 PUSH1 0x4 DUP1 CALLDATASIZE SUB DUP2 ADD SWAP1 PUSH2 0x2CF SWAP2 SWAP1 PUSH2 0x29F2 JUMP JUMPDEST PUSH2 0x814 JUMP JUMPDEST PUSH1 0x40 MLOAD PUSH2 0x2E1 SWAP2 SWAP1 PUSH2 0x299F JUMP JUMPDEST PUSH1 0x40 MLOAD DUP1 SWAP2 SUB SWAP1 RETURN JUMPDEST PUSH2 0x304 PUSH1 0x4 DUP1 CALLDATASIZE SUB DUP2 ADD SWAP1 PUSH2 0x2FF SWAP2 SWAP1 PUSH2 0x2F2E JUMP JUMPDEST PUSH2 0xAF7 JUMP JUMPDEST STOP JUMPDEST PUSH2 0x320 PUSH1 0x4 DUP1 CALLDATASIZE SUB DUP2 ADD SWAP1 PUSH2 0x31B SWAP2 SWAP1 PUSH2 0x29F2 JUMP JUMPDEST PUSH2 0xBE2 JUMP JUMPDEST PUSH1 0x40 MLOAD PUSH2 0x330 SWAP5 SWAP4 SWAP3 SWAP2 SWAP1 PUSH2 0x2FA4 JUMP JUMPDEST PUSH1 0x40 MLOAD DUP1 SWAP2 SUB SWAP1 RETURN JUMPDEST PUSH2 0x353 PUSH1 0x4 DUP1 CALLDATASIZE SUB DUP2 ADD SWAP1 PUSH2 0x34E SWAP2 SWAP1 PUSH2 0x2FF5 JUMP JUMPDEST PUSH2 0xD39 JUMP JUMPDEST PUSH1 0x40 MLOAD PUSH2 0x360 SWAP2 SWAP1 PUSH2 0x2916 JUMP JUMPDEST PUSH1 0x40 MLOAD DUP1 SWAP2 SUB SWAP1 RETURN JUMPDEST PUSH0 PUSH32 0x80AC58CD00000000000000000000000000000000000000000000000000000000 PUSH28 0xFFFFFFFFFFFFFFFFFFFFFFFFFFFFFFFFFFFFFFFFFFFFFFFFFFFFFFFF NOT AND DUP3 PUSH28 0xFFFFFFFFFFFFFFFFFFFFFFFFFFFFFFFFFFFFFFFFFFFFFFFFFFFFFFFF NOT AND EQ DUP1 PUSH2 0x433 JUMPI POP PUSH32 0x5B5E139F00000000000000000000000000000000000000000000000000000000 PUSH28 0xFFFFFFFFFFFFFFFFFFFFFFFFFFFFFFFFFFFFFFFFFFFFFFFFFFFFFFFF NOT AND DUP3 PUSH28 0xFFFFFFFFFFFFFFFFFFFFFFFFFFFFFFFFFFFFFFFFFFFFFFFFFFFFFFFF NOT AND EQ JUMPDEST DUP1 PUSH2 0x443 JUMPI POP PUSH2 0x442 DUP3 PUSH2 0xDC7 JUMP JUMPDEST JUMPDEST SWAP1 POP SWAP2 SWAP1 POP JUMP JUMPDEST PUSH1 0x60 PUSH0 DUP1 SLOAD PUSH2 0x458 SWAP1 PUSH2 0x3060 JUMP JUMPDEST DUP1 PUSH1 0x1F ADD PUSH1 0x20 DUP1 SWAP2 DIV MUL PUSH1 0x20 ADD PUSH1 0x40 MLOAD SWAP1 DUP2 ADD PUSH1 0x40 MSTORE DUP1 SWAP3 SWAP2 SWAP1 DUP2 DUP2 MSTORE PUSH1 0x20 ADD DUP3 DUP1 SLOAD PUSH2 0x484 SWAP1 PUSH2 0x3060 JUMP JUMPDEST DUP1 ISZERO PUSH2 0x4CF JUMPI DUP1 PUSH1 0x1F LT PUSH2 0x4A6 JUMPI PUSH2 0x100 DUP1 DUP4 SLOAD DIV MUL DUP4 MSTORE SWAP2 PUSH1 0x20 ADD SWAP2 PUSH2 0x4CF JUMP JUMPDEST DUP3 ADD SWAP2 SWAP1 PUSH0 MSTORE PUSH1 0x20 PUSH0 KECCAK256 SWAP1 JUMPDEST DUP2 SLOAD DUP2 MSTORE SWAP1 PUSH1 0x1 ADD SWAP1 PUSH1 0x20 ADD DUP1 DUP4 GT PUSH2 0x4B2 JUMPI DUP3 SWAP1 SUB PUSH1 0x1F AND DUP3 ADD SWAP2 JUMPDEST POP POP POP POP POP SWAP1 POP SWAP1 JUMP JUMPDEST PUSH0 PUSH2 0x4E3 DUP3 PUSH2 0xE30 JUMP JUMPDEST POP PUSH2 0x4ED DUP3 PUSH2 0xEB6 JUMP JUMPDEST SWAP1 POP SWAP2 SWAP1 POP JUMP JUMPDEST PUSH2 0x506 DUP3 DUP3 PUSH2 0x501 PUSH2 0xEEF JUMP JUMPDEST PUSH2 0xEF6 JUMP JUMPDEST POP POP JUMP JUMPDEST PUSH0 PUSH20 0xFFFFFFFFFFFFFFFFFFFFFFFFFFFFFFFFFFFFFFFF AND DUP3 PUSH20 0xFFFFFFFFFFFFFFFFFFFFFFFFFFFFFFFFFFFFFFFF AND SUB PUSH2 0x57A JUMPI PUSH0 PUSH1 0x40 MLOAD PUSH32 0x64A0AE9200000000000000000000000000000000000000000000000000000000 DUP2 MSTORE PUSH1 0x4 ADD PUSH2 0x571 SWAP2 SWAP1 PUSH2 0x2A5C JUMP JUMPDEST PUSH1 0x40 MLOAD DUP1 SWAP2 SUB SWAP1 REVERT JUMPDEST PUSH0 PUSH2 0x58D DUP4 DUP4 PUSH2 0x588 PUSH2 0xEEF JUMP JUMPDEST PUSH2 0xF08 JUMP JUMPDEST SWAP1 POP DUP4 PUSH20 0xFFFFFFFFFFFFFFFFFFFFFFFFFFFFFFFFFFFFFFFF AND DUP2 PUSH20 0xFFFFFFFFFFFFFFFFFFFFFFFFFFFFFFFFFFFFFFFF AND EQ PUSH2 0x603 JUMPI DUP4 DUP3 DUP3 PUSH1 0x40 MLOAD PUSH32 0x64283D7B00000000000000000000000000000000000000000000000000000000 DUP2 MSTORE PUSH1 0x4 ADD PUSH2 0x5FA SWAP4 SWAP3 SWAP2 SWAP1 PUSH2 0x3090 JUMP JUMPDEST PUSH1 0x40 MLOAD DUP1 SWAP2 SUB SWAP1 REVERT JUMPDEST POP POP POP POP JUMP JUMPDEST PUSH2 0x623 DUP4 DUP4 DUP4 PUSH1 0x40 MLOAD DUP1 PUSH1 0x20 ADD PUSH1 0x40 MSTORE DUP1 PUSH0 DUP2 MSTORE POP PUSH2 0x7EF JUMP JUMPDEST POP POP POP JUMP JUMPDEST PUSH1 0x60 PUSH0 PUSH2 0x637 DUP4 PUSH0 ADD MLOAD PUSH2 0x1113 JUMP JUMPDEST SWAP1 POP PUSH0 PUSH2 0x647 DUP5 PUSH1 0x20 ADD MLOAD PUSH2 0x1113 JUMP JUMPDEST SWAP1 POP DUP1 PUSH2 0x657 DUP6 PUSH1 0x40 ADD MLOAD PUSH2 0x1CB1 JUMP JUMPDEST DUP4 PUSH1 0x40 MLOAD PUSH1 0x20 ADD PUSH2 0x66A SWAP4 SWAP3 SWAP2 SWAP1 PUSH2 0x3AC7 JUMP JUMPDEST PUSH1 0x40 MLOAD PUSH1 0x20 DUP2 DUP4 SUB SUB DUP2 MSTORE SWAP1 PUSH1 0x40 MSTORE SWAP3 POP POP POP SWAP2 SWAP1 POP JUMP JUMPDEST PUSH0 PUSH2 0x68C DUP3 PUSH2 0xE30 JUMP JUMPDEST SWAP1 POP SWAP2 SWAP1 POP JUMP JUMPDEST PUSH0 PUSH0 PUSH20 0xFFFFFFFFFFFFFFFFFFFFFFFFFFFFFFFFFFFFFFFF AND DUP3 PUSH20 0xFFFFFFFFFFFFFFFFFFFFFFFFFFFFFFFFFFFFFFFF AND SUB PUSH2 0x704 JUMPI PUSH0 PUSH1 0x40 MLOAD PUSH32 0x89C62B6400000000000000000000000000000000000000000000000000000000 DUP2 MSTORE PUSH1 0x4 ADD PUSH2 0x6FB SWAP2 SWAP1 PUSH2 0x2A5C JUMP JUMPDEST PUSH1 0x40 MLOAD DUP1 SWAP2 SUB SWAP1 REVERT JUMPDEST PUSH1 0x3 PUSH0 DUP4 PUSH20 0xFFFFFFFFFFFFFFFFFFFFFFFFFFFFFFFFFFFFFFFF AND PUSH20 0xFFFFFFFFFFFFFFFFFFFFFFFFFFFFFFFFFFFFFFFF AND DUP2 MSTORE PUSH1 0x20 ADD SWAP1 DUP2 MSTORE PUSH1 0x20 ADD PUSH0 KECCAK256 SLOAD SWAP1 POP SWAP2 SWAP1 POP JUMP JUMPDEST PUSH1 0x60 PUSH1 0x1 DUP1 SLOAD PUSH2 0x758 SWAP1 PUSH2 0x3060 JUMP JUMPDEST DUP1 PUSH1 0x1F ADD PUSH1 0x20 DUP1 SWAP2 DIV MUL PUSH1 0x20 ADD PUSH1 0x40 MLOAD SWAP1 DUP2 ADD PUSH1 0x40 MSTORE DUP1 SWAP3 SWAP2 SWAP1 DUP2 DUP2 MSTORE PUSH1 0x20 ADD DUP3 DUP1 SLOAD PUSH2 0x784 SWAP1 PUSH2 0x3060 JUMP JUMPDEST DUP1 ISZERO PUSH2 0x7CF JUMPI DUP1 PUSH1 0x1F LT PUSH2 0x7A6 JUMPI PUSH2 0x100 DUP1 DUP4 SLOAD DIV MUL DUP4 MSTORE SWAP2 PUSH1 0x20 ADD SWAP2 PUSH2 0x7CF JUMP JUMPDEST DUP3 ADD SWAP2 SWAP1 PUSH0 MSTORE PUSH1 0x20 PUSH0 KECCAK256 SWAP1 JUMPDEST DUP2 SLOAD DUP2 MSTORE SWAP1 PUSH1 0x1 ADD SWAP1 PUSH1 0x20 ADD DUP1 DUP4 GT PUSH2 0x7B2 JUMPI DUP3 SWAP1 SUB PUSH1 0x1F AND DUP3 ADD SWAP2 JUMPDEST POP POP POP POP POP SWAP1 POP SWAP1 JUMP JUMPDEST PUSH2 0x7EB PUSH2 0x7E4 PUSH2 0xEEF JUMP JUMPDEST DUP4 DUP4 PUSH2 0x1D7B JUMP JUMPDEST POP POP JUMP JUMPDEST PUSH2 0x7FA DUP5 DUP5 DUP5 PUSH2 0x50A JUMP JUMPDEST PUSH2 0x80E PUSH2 0x805 PUSH2 0xEEF JUMP JUMPDEST DUP6 DUP6 DUP6 DUP6 PUSH2 0x1EE4 JUMP JUMPDEST POP POP POP POP JUMP JUMPDEST PUSH1 0x60 PUSH0 PUSH20 0xFFFFFFFFFFFFFFFFFFFFFFFFFFFFFFFFFFFFFFFF AND PUSH2 0x836 DUP4 PUSH2 0x2090 JUMP JUMPDEST PUSH20 0xFFFFFFFFFFFFFFFFFFFFFFFFFFFFFFFFFFFFFFFF AND SUB PUSH2 0x88C JUMPI PUSH1 0x40 MLOAD PUSH32 0x8C379A000000000000000000000000000000000000000000000000000000000 DUP2 MSTORE PUSH1 0x4 ADD PUSH2 0x883 SWAP1 PUSH2 0x3C33 JUMP JUMPDEST PUSH1 0x40 MLOAD DUP1 SWAP2 SUB SWAP1 REVERT JUMPDEST PUSH0 PUSH1 0x7 PUSH0 DUP5 DUP2 MSTORE PUSH1 0x20 ADD SWAP1 DUP2 MSTORE PUSH1 0x20 ADD PUSH0 KECCAK256 PUSH1 0x40 MLOAD DUP1 PUSH1 0x80 ADD PUSH1 0x40 MSTORE SWAP1 DUP2 PUSH0 DUP3 ADD DUP1 SLOAD PUSH2 0x8B8 SWAP1 PUSH2 0x3060 JUMP JUMPDEST DUP1 PUSH1 0x1F ADD PUSH1 0x20 DUP1 SWAP2 DIV MUL PUSH1 0x20 ADD PUSH1 0x40 MLOAD SWAP1 DUP2 ADD PUSH1 0x40 MSTORE DUP1 SWAP3 SWAP2 SWAP1 DUP2 DUP2 MSTORE PUSH1 0x20 ADD DUP3 DUP1 SLOAD PUSH2 0x8E4 SWAP1 PUSH2 0x3060 JUMP JUMPDEST DUP1 ISZERO PUSH2 0x92F JUMPI DUP1 PUSH1 0x1F LT PUSH2 0x906 JUMPI PUSH2 0x100 DUP1 DUP4 SLOAD DIV MUL DUP4 MSTORE SWAP2 PUSH1 0x20 ADD SWAP2 PUSH2 0x92F JUMP JUMPDEST DUP3 ADD SWAP2 SWAP1 PUSH0 MSTORE PUSH1 0x20 PUSH0 KECCAK256 SWAP1 JUMPDEST DUP2 SLOAD DUP2 MSTORE SWAP1 PUSH1 0x1 ADD SWAP1 PUSH1 0x20 ADD DUP1 DUP4 GT PUSH2 0x912 JUMPI DUP3 SWAP1 SUB PUSH1 0x1F AND DUP3 ADD SWAP2 JUMPDEST POP POP POP POP POP DUP2 MSTORE PUSH1 0x20 ADD PUSH1 0x1 DUP3 ADD DUP1 SLOAD PUSH2 0x948 SWAP1 PUSH2 0x3060 JUMP JUMPDEST DUP1 PUSH1 0x1F ADD PUSH1 0x20 DUP1 SWAP2 DIV MUL PUSH1 0x20 ADD PUSH1 0x40 MLOAD SWAP1 DUP2 ADD PUSH1 0x40 MSTORE DUP1 SWAP3 SWAP2 SWAP1 DUP2 DUP2 MSTORE PUSH1 0x20 ADD DUP3 DUP1 SLOAD PUSH2 0x974 SWAP1 PUSH2 0x3060 JUMP JUMPDEST DUP1 ISZERO PUSH2 0x9BF JUMPI DUP1 PUSH1 0x1F LT PUSH2 0x996 JUMPI PUSH2 0x100 DUP1 DUP4 SLOAD DIV MUL DUP4 MSTORE SWAP2 PUSH1 0x20 ADD SWAP2 PUSH2 0x9BF JUMP JUMPDEST DUP3 ADD SWAP2 SWAP1 PUSH0 MSTORE PUSH1 0x20 PUSH0 KECCAK256 SWAP1 JUMPDEST DUP2 SLOAD DUP2 MSTORE SWAP1 PUSH1 0x1 ADD SWAP1 PUSH1 0x20 ADD DUP1 DUP4 GT PUSH2 0x9A2 JUMPI DUP3 SWAP1 SUB PUSH1 0x1F AND DUP3 ADD SWAP2 JUMPDEST POP POP POP POP POP DUP2 MSTORE PUSH1 0x20 ADD PUSH1 0x2 DUP3 ADD SLOAD DUP2 MSTORE PUSH1 0x20 ADD PUSH1 0x3 DUP3 ADD PUSH0 SWAP1 SLOAD SWAP1 PUSH2 0x100 EXP SWAP1 DIV PUSH20 0xFFFFFFFFFFFFFFFFFFFFFFFFFFFFFFFFFFFFFFFF AND PUSH20 0xFFFFFFFFFFFFFFFFFFFFFFFFFFFFFFFFFFFFFFFF AND PUSH20 0xFFFFFFFFFFFFFFFFFFFFFFFFFFFFFFFFFFFFFFFF AND DUP2 MSTORE POP POP SWAP1 POP PUSH0 PUSH2 0xA33 DUP3 PUSH2 0x628 JUMP JUMPDEST SWAP1 POP PUSH0 PUSH2 0xA3F DUP3 PUSH2 0x20C9 JUMP JUMPDEST SWAP1 POP PUSH0 PUSH2 0xA4B DUP7 PUSH2 0x1CB1 JUMP JUMPDEST PUSH2 0xA58 DUP6 PUSH1 0x40 ADD MLOAD PUSH2 0x1CB1 JUMP JUMPDEST PUSH1 0x40 MLOAD PUSH1 0x20 ADD PUSH2 0xA68 SWAP2 SWAP1 PUSH2 0x3D0B JUMP JUMPDEST PUSH1 0x40 MLOAD PUSH1 0x20 DUP2 DUP4 SUB SUB DUP2 MSTORE SWAP1 PUSH1 0x40 MSTORE PUSH2 0xA84 DUP7 PUSH1 0x20 ADD MLOAD PUSH2 0x1113 JUMP JUMPDEST PUSH2 0xA91 DUP8 PUSH1 0x40 ADD MLOAD PUSH2 0x1CB1 JUMP JUMPDEST PUSH2 0xA9D DUP9 PUSH0 ADD MLOAD PUSH2 0x1113 JUMP JUMPDEST DUP7 PUSH1 0x40 MLOAD PUSH1 0x20 ADD PUSH2 0xAB3 SWAP7 SWAP6 SWAP5 SWAP4 SWAP3 SWAP2 SWAP1 PUSH2 0x4191 JUMP JUMPDEST PUSH1 0x40 MLOAD PUSH1 0x20 DUP2 DUP4 SUB SUB DUP2 MSTORE SWAP1 PUSH1 0x40 MSTORE SWAP1 POP PUSH2 0xACD DUP2 PUSH2 0x20C9 JUMP JUMPDEST PUSH1 0x40 MLOAD PUSH1 0x20 ADD PUSH2 0xADD SWAP2 SWAP1 PUSH2 0x42D7 JUMP JUMPDEST PUSH1 0x40 MLOAD PUSH1 0x20 DUP2 DUP4 SUB SUB DUP2 MSTORE SWAP1 PUSH1 0x40 MSTORE SWAP5 POP POP POP POP POP SWAP2 SWAP1 POP JUMP JUMPDEST PUSH0 PUSH2 0xB02 PUSH1 0x6 PUSH2 0x20F6 JUMP JUMPDEST SWAP1 POP PUSH2 0xB0E CALLER DUP3 PUSH2 0x2102 JUMP JUMPDEST PUSH1 0x40 MLOAD DUP1 PUSH1 0x80 ADD PUSH1 0x40 MSTORE DUP1 DUP5 DUP2 MSTORE PUSH1 0x20 ADD DUP4 DUP2 MSTORE PUSH1 0x20 ADD TIMESTAMP DUP2 MSTORE PUSH1 0x20 ADD CALLER PUSH20 0xFFFFFFFFFFFFFFFFFFFFFFFFFFFFFFFFFFFFFFFF AND DUP2 MSTORE POP PUSH1 0x7 PUSH0 DUP4 DUP2 MSTORE PUSH1 0x20 ADD SWAP1 DUP2 MSTORE PUSH1 0x20 ADD PUSH0 KECCAK256 PUSH0 DUP3 ADD MLOAD DUP2 PUSH0 ADD SWAP1 DUP2 PUSH2 0xB69 SWAP2 SWAP1 PUSH2 0x4498 JUMP JUMPDEST POP PUSH1 0x20 DUP3 ADD MLOAD DUP2 PUSH1 0x1 ADD SWAP1 DUP2 PUSH2 0xB7F SWAP2 SWAP1 PUSH2 0x4498 JUMP JUMPDEST POP PUSH1 0x40 DUP3 ADD MLOAD DUP2 PUSH1 0x2 ADD SSTORE PUSH1 0x60 DUP3 ADD MLOAD DUP2 PUSH1 0x3 ADD PUSH0 PUSH2 0x100 EXP DUP2 SLOAD DUP2 PUSH20 0xFFFFFFFFFFFFFFFFFFFFFFFFFFFFFFFFFFFFFFFF MUL NOT AND SWAP1 DUP4 PUSH20 0xFFFFFFFFFFFFFFFFFFFFFFFFFFFFFFFFFFFFFFFF AND MUL OR SWAP1 SSTORE POP SWAP1 POP POP PUSH2 0xBDD PUSH1 0x6 PUSH2 0x211F JUMP JUMPDEST POP POP POP JUMP JUMPDEST PUSH1 0x7 PUSH1 0x20 MSTORE DUP1 PUSH0 MSTORE PUSH1 0x40 PUSH0 KECCAK256 PUSH0 SWAP2 POP SWAP1 POP DUP1 PUSH0 ADD DUP1 SLOAD PUSH2 0xC01 SWAP1 PUSH2 0x3060 JUMP JUMPDEST DUP1 PUSH1 0x1F ADD PUSH1 0x20 DUP1 SWAP2 DIV MUL PUSH1 0x20 ADD PUSH1 0x40 MLOAD SWAP1 DUP2 ADD PUSH1 0x40 MSTORE DUP1 SWAP3 SWAP2 SWAP1 DUP2 DUP2 MSTORE PUSH1 0x20 ADD DUP3 DUP1 SLOAD PUSH2 0xC2D SWAP1 PUSH2 0x3060 JUMP JUMPDEST DUP1 ISZERO PUSH2 0xC78 JUMPI DUP1 PUSH1 0x1F LT PUSH2 0xC4F JUMPI PUSH2 0x100 DUP1 DUP4 SLOAD DIV MUL DUP4 MSTORE SWAP2 PUSH1 0x20 ADD SWAP2 PUSH2 0xC78 JUMP JUMPDEST DUP3 ADD SWAP2 SWAP1 PUSH0 MSTORE PUSH1 0x20 PUSH0 KECCAK256 SWAP1 JUMPDEST DUP2 SLOAD DUP2 MSTORE SWAP1 PUSH1 0x1 ADD SWAP1 PUSH1 0x20 ADD DUP1 DUP4 GT PUSH2 0xC5B JUMPI DUP3 SWAP1 SUB PUSH1 0x1F AND DUP3 ADD SWAP2 JUMPDEST POP POP POP POP POP SWAP1 DUP1 PUSH1 0x1 ADD DUP1 SLOAD PUSH2 0xC8D SWAP1 PUSH2 0x3060 JUMP JUMPDEST DUP1 PUSH1 0x1F ADD PUSH1 0x20 DUP1 SWAP2 DIV MUL PUSH1 0x20 ADD PUSH1 0x40 MLOAD SWAP1 DUP2 ADD PUSH1 0x40 MSTORE DUP1 SWAP3 SWAP2 SWAP1 DUP2 DUP2 MSTORE PUSH1 0x20 ADD DUP3 DUP1 SLOAD PUSH2 0xCB9 SWAP1 PUSH2 0x3060 JUMP JUMPDEST DUP1 ISZERO PUSH2 0xD04 JUMPI DUP1 PUSH1 0x1F LT PUSH2 0xCDB JUMPI PUSH2 0x100 DUP1 DUP4 SLOAD DIV MUL DUP4 MSTORE SWAP2 PUSH1 0x20 ADD SWAP2 PUSH2 0xD04 JUMP JUMPDEST DUP3 ADD SWAP2 SWAP1 PUSH0 MSTORE PUSH1 0x20 PUSH0 KECCAK256 SWAP1 JUMPDEST DUP2 SLOAD DUP2 MSTORE SWAP1 PUSH1 0x1 ADD SWAP1 PUSH1 0x20 ADD DUP1 DUP4 GT PUSH2 0xCE7 JUMPI DUP3 SWAP1 SUB PUSH1 0x1F AND DUP3 ADD SWAP2 JUMPDEST POP POP POP POP POP SWAP1 DUP1 PUSH1 0x2 ADD SLOAD SWAP1 DUP1 PUSH1 0x3 ADD PUSH0 SWAP1 SLOAD SWAP1 PUSH2 0x100 EXP SWAP1 DIV PUSH20 0xFFFFFFFFFFFFFFFFFFFFFFFFFFFFFFFFFFFFFFFF AND SWAP1 POP DUP5 JUMP JUMPDEST PUSH0 PUSH1 0x5 PUSH0 DUP5 PUSH20 0xFFFFFFFFFFFFFFFFFFFFFFFFFFFFFFFFFFFFFFFF AND PUSH20 0xFFFFFFFFFFFFFFFFFFFFFFFFFFFFFFFFFFFFFFFF AND DUP2 MSTORE PUSH1 0x20 ADD SWAP1 DUP2 MSTORE PUSH1 0x20 ADD PUSH0 KECCAK256 PUSH0 DUP4 PUSH20 0xFFFFFFFFFFFFFFFFFFFFFFFFFFFFFFFFFFFFFFFF AND PUSH20 0xFFFFFFFFFFFFFFFFFFFFFFFFFFFFFFFFFFFFFFFF AND DUP2 MSTORE PUSH1 0x20 ADD SWAP1 DUP2 MSTORE PUSH1 0x20 ADD PUSH0 KECCAK256 PUSH0 SWAP1 SLOAD SWAP1 PUSH2 0x100 EXP SWAP1 DIV PUSH1 0xFF AND SWAP1 POP SWAP3 SWAP2 POP POP JUMP JUMPDEST PUSH0 PUSH32 0x1FFC9A700000000000000000000000000000000000000000000000000000000 PUSH28 0xFFFFFFFFFFFFFFFFFFFFFFFFFFFFFFFFFFFFFFFFFFFFFFFFFFFFFFFF NOT AND DUP3 PUSH28 0xFFFFFFFFFFFFFFFFFFFFFFFFFFFFFFFFFFFFFFFFFFFFFFFFFFFFFFFF NOT AND EQ SWAP1 POP SWAP2 SWAP1 POP JUMP JUMPDEST PUSH0 PUSH0 PUSH2 0xE3B DUP4 PUSH2 0x2090 JUMP JUMPDEST SWAP1 POP PUSH0 PUSH20 0xFFFFFFFFFFFFFFFFFFFFFFFFFFFFFFFFFFFFFFFF AND DUP2 PUSH20 0xFFFFFFFFFFFFFFFFFFFFFFFFFFFFFFFFFFFFFFFF AND SUB PUSH2 0xEAD JUMPI DUP3 PUSH1 0x40 MLOAD PUSH32 0x7E27328900000000000000000000000000000000000000000000000000000000 DUP2 MSTORE PUSH1 0x4 ADD PUSH2 0xEA4 SWAP2 SWAP1 PUSH2 0x2D8F JUMP JUMPDEST PUSH1 0x40 MLOAD DUP1 SWAP2 SUB SWAP1 REVERT JUMPDEST DUP1 SWAP2 POP POP SWAP2 SWAP1 POP JUMP JUMPDEST PUSH0 PUSH1 0x4 PUSH0 DUP4 DUP2 MSTORE PUSH1 0x20 ADD SWAP1 DUP2 MSTORE PUSH1 0x20 ADD PUSH0 KECCAK256 PUSH0 SWAP1 SLOAD SWAP1 PUSH2 0x100 EXP SWAP1 DIV PUSH20 0xFFFFFFFFFFFFFFFFFFFFFFFFFFFFFFFFFFFFFFFF AND SWAP1 POP SWAP2 SWAP1 POP JUMP JUMPDEST PUSH0 CALLER SWAP1 POP SWAP1 JUMP JUMPDEST PUSH2 0xF03 DUP4 DUP4 DUP4 PUSH1 0x1 PUSH2 0x2133 JUMP JUMPDEST POP POP POP JUMP JUMPDEST PUSH0 PUSH0 PUSH2 0xF13 DUP5 PUSH2 0x2090 JUMP JUMPDEST SWAP1 POP PUSH0 PUSH20 0xFFFFFFFFFFFFFFFFFFFFFFFFFFFFFFFFFFFFFFFF AND DUP4 PUSH20 0xFFFFFFFFFFFFFFFFFFFFFFFFFFFFFFFFFFFFFFFF AND EQ PUSH2 0xF54 JUMPI PUSH2 0xF53 DUP2 DUP5 DUP7 PUSH2 0x22F2 JUMP JUMPDEST JUMPDEST PUSH0 PUSH20 0xFFFFFFFFFFFFFFFFFFFFFFFFFFFFFFFFFFFFFFFF AND DUP2 PUSH20 0xFFFFFFFFFFFFFFFFFFFFFFFFFFFFFFFFFFFFFFFF AND EQ PUSH2 0xFDF JUMPI PUSH2 0xF93 PUSH0 DUP6 PUSH0 PUSH0 PUSH2 0x2133 JUMP JUMPDEST PUSH1 0x1 PUSH1 0x3 PUSH0 DUP4 PUSH20 0xFFFFFFFFFFFFFFFFFFFFFFFFFFFFFFFFFFFFFFFF AND PUSH20 0xFFFFFFFFFFFFFFFFFFFFFFFFFFFFFFFFFFFFFFFF AND DUP2 MSTORE PUSH1 0x20 ADD SWAP1 DUP2 MSTORE PUSH1 0x20 ADD PUSH0 KECCAK256 PUSH0 DUP3 DUP3 SLOAD SUB SWAP3 POP POP DUP2 SWAP1 SSTORE POP JUMPDEST PUSH0 PUSH20 0xFFFFFFFFFFFFFFFFFFFFFFFFFFFFFFFFFFFFFFFF AND DUP6 PUSH20 0xFFFFFFFFFFFFFFFFFFFFFFFFFFFFFFFFFFFFFFFF AND EQ PUSH2 0x105E JUMPI PUSH1 0x1 PUSH1 0x3 PUSH0 DUP8 PUSH20 0xFFFFFFFFFFFFFFFFFFFFFFFFFFFFFFFFFFFFFFFF AND PUSH20 0xFFFFFFFFFFFFFFFFFFFFFFFFFFFFFFFFFFFFFFFF AND DUP2 MSTORE PUSH1 0x20 ADD SWAP1 DUP2 MSTORE PUSH1 0x20 ADD PUSH0 KECCAK256 PUSH0 DUP3 DUP3 SLOAD ADD SWAP3 POP POP DUP2 SWAP1 SSTORE POP JUMPDEST DUP5 PUSH1 0x2 PUSH0 DUP7 DUP2 MSTORE PUSH1 0x20 ADD SWAP1 DUP2 MSTORE PUSH1 0x20 ADD PUSH0 KECCAK256 PUSH0 PUSH2 0x100 EXP DUP2 SLOAD DUP2 PUSH20 0xFFFFFFFFFFFFFFFFFFFFFFFFFFFFFFFFFFFFFFFF MUL NOT AND SWAP1 DUP4 PUSH20 0xFFFFFFFFFFFFFFFFFFFFFFFFFFFFFFFFFFFFFFFF AND MUL OR SWAP1 SSTORE POP DUP4 DUP6 PUSH20 0xFFFFFFFFFFFFFFFFFFFFFFFFFFFFFFFFFFFFFFFF AND DUP3 PUSH20 0xFFFFFFFFFFFFFFFFFFFFFFFFFFFFFFFFFFFFFFFF AND PUSH32 0xDDF252AD1BE2C89B69C2B068FC378DAA952BA7F163C4A11628F55A4DF523B3EF PUSH1 0x40 MLOAD PUSH1 0x40 MLOAD DUP1 SWAP2 SUB SWAP1 LOG4 DUP1 SWAP2 POP POP SWAP4 SWAP3 POP POP POP JUMP JUMPDEST PUSH1 0x60 PUSH0 DUP3 SWAP1 POP PUSH0 PUSH1 0x5 DUP3 MLOAD PUSH2 0x1128 SWAP2 SWAP1 PUSH2 0x4594 JUMP JUMPDEST PUSH8 0xFFFFFFFFFFFFFFFF DUP2 GT ISZERO PUSH2 0x1141 JUMPI PUSH2 0x1140 PUSH2 0x2B31 JUMP JUMPDEST JUMPDEST PUSH1 0x40 MLOAD SWAP1 DUP1 DUP3 MSTORE DUP1 PUSH1 0x1F ADD PUSH1 0x1F NOT AND PUSH1 0x20 ADD DUP3 ADD PUSH1 0x40 MSTORE DUP1 ISZERO PUSH2 0x1173 JUMPI DUP2 PUSH1 0x20 ADD PUSH1 0x1 DUP3 MUL DUP1 CALLDATASIZE DUP4 CALLDATACOPY DUP1 DUP3 ADD SWAP2 POP POP SWAP1 POP JUMPDEST POP SWAP1 POP PUSH0 PUSH0 SWAP1 POP PUSH0 PUSH0 SWAP1 POP JUMPDEST DUP4 MLOAD DUP2 LT ISZERO PUSH2 0x1BDA JUMPI PUSH32 0x2600000000000000000000000000000000000000000000000000000000000000 DUP5 DUP3 DUP2 MLOAD DUP2 LT PUSH2 0x11BC JUMPI PUSH2 0x11BB PUSH2 0x45D5 JUMP JUMPDEST JUMPDEST PUSH1 0x20 ADD ADD MLOAD PUSH1 0xF8 SHR PUSH1 0xF8 SHL PUSH31 0xFFFFFFFFFFFFFFFFFFFFFFFFFFFFFFFFFFFFFFFFFFFFFFFFFFFFFFFFFFFFFF NOT AND SUB PUSH2 0x1419 JUMPI PUSH32 0x2600000000000000000000000000000000000000000000000000000000000000 DUP4 DUP4 DUP1 PUSH2 0x121B SWAP1 PUSH2 0x4602 JUMP JUMPDEST SWAP5 POP DUP2 MLOAD DUP2 LT PUSH2 0x122E JUMPI PUSH2 0x122D PUSH2 0x45D5 JUMP JUMPDEST JUMPDEST PUSH1 0x20 ADD ADD SWAP1 PUSH31 0xFFFFFFFFFFFFFFFFFFFFFFFFFFFFFFFFFFFFFFFFFFFFFFFFFFFFFFFFFFFFFF NOT AND SWAP1 DUP2 PUSH0 BYTE SWAP1 MSTORE8 POP PUSH32 0x6100000000000000000000000000000000000000000000000000000000000000 DUP4 DUP4 DUP1 PUSH2 0x1289 SWAP1 PUSH2 0x4602 JUMP JUMPDEST SWAP5 POP DUP2 MLOAD DUP2 LT PUSH2 0x129C JUMPI PUSH2 0x129B PUSH2 0x45D5 JUMP JUMPDEST JUMPDEST PUSH1 0x20 ADD ADD SWAP1 PUSH31 0xFFFFFFFFFFFFFFFFFFFFFFFFFFFFFFFFFFFFFFFFFFFFFFFFFFFFFFFFFFFFFF NOT AND SWAP1 DUP2 PUSH0 BYTE SWAP1 MSTORE8 POP PUSH32 0x6D00000000000000000000000000000000000000000000000000000000000000 DUP4 DUP4 DUP1 PUSH2 0x12F7 SWAP1 PUSH2 0x4602 JUMP JUMPDEST SWAP5 POP DUP2 MLOAD DUP2 LT PUSH2 0x130A JUMPI PUSH2 0x1309 PUSH2 0x45D5 JUMP JUMPDEST JUMPDEST PUSH1 0x20 ADD ADD SWAP1 PUSH31 0xFFFFFFFFFFFFFFFFFFFFFFFFFFFFFFFFFFFFFFFFFFFFFFFFFFFFFFFFFFFFFF NOT AND SWAP1 DUP2 PUSH0 BYTE SWAP1 MSTORE8 POP PUSH32 0x7000000000000000000000000000000000000000000000000000000000000000 DUP4 DUP4 DUP1 PUSH2 0x1365 SWAP1 PUSH2 0x4602 JUMP JUMPDEST SWAP5 POP DUP2 MLOAD DUP2 LT PUSH2 0x1378 JUMPI PUSH2 0x1377 PUSH2 0x45D5 JUMP JUMPDEST JUMPDEST PUSH1 0x20 ADD ADD SWAP1 PUSH31 0xFFFFFFFFFFFFFFFFFFFFFFFFFFFFFFFFFFFFFFFFFFFFFFFFFFFFFFFFFFFFFF NOT AND SWAP1 DUP2 PUSH0 BYTE SWAP1 MSTORE8 POP PUSH32 0x3B00000000000000000000000000000000000000000000000000000000000000 DUP4 DUP4 DUP1 PUSH2 0x13D3 SWAP1 PUSH2 0x4602 JUMP JUMPDEST SWAP5 POP DUP2 MLOAD DUP2 LT PUSH2 0x13E6 JUMPI PUSH2 0x13E5 PUSH2 0x45D5 JUMP JUMPDEST JUMPDEST PUSH1 0x20 ADD ADD SWAP1 PUSH31 0xFFFFFFFFFFFFFFFFFFFFFFFFFFFFFFFFFFFFFFFFFFFFFFFFFFFFFFFFFFFFFF NOT AND SWAP1 DUP2 PUSH0 BYTE SWAP1 MSTORE8 POP PUSH2 0x1BCD JUMP JUMPDEST PUSH32 0x3C00000000000000000000000000000000000000000000000000000000000000 DUP5 DUP3 DUP2 MLOAD DUP2 LT PUSH2 0x144D JUMPI PUSH2 0x144C PUSH2 0x45D5 JUMP JUMPDEST JUMPDEST PUSH1 0x20 ADD ADD MLOAD PUSH1 0xF8 SHR PUSH1 0xF8 SHL PUSH31 0xFFFFFFFFFFFFFFFFFFFFFFFFFFFFFFFFFFFFFFFFFFFFFFFFFFFFFFFFFFFFFF NOT AND SUB PUSH2 0x163C JUMPI PUSH32 0x2600000000000000000000000000000000000000000000000000000000000000 DUP4 DUP4 DUP1 PUSH2 0x14AC SWAP1 PUSH2 0x4602 JUMP JUMPDEST SWAP5 POP DUP2 MLOAD DUP2 LT PUSH2 0x14BF JUMPI PUSH2 0x14BE PUSH2 0x45D5 JUMP JUMPDEST JUMPDEST PUSH1 0x20 ADD ADD SWAP1 PUSH31 0xFFFFFFFFFFFFFFFFFFFFFFFFFFFFFFFFFFFFFFFFFFFFFFFFFFFFFFFFFFFFFF NOT AND SWAP1 DUP2 PUSH0 BYTE SWAP1 MSTORE8 POP PUSH32 0x6C00000000000000000000000000000000000000000000000000000000000000 DUP4 DUP4 DUP1 PUSH2 0x151A SWAP1 PUSH2 0x4602 JUMP JUMPDEST SWAP5 POP DUP2 MLOAD DUP2 LT PUSH2 0x152D JUMPI PUSH2 0x152C PUSH2 0x45D5 JUMP JUMPDEST JUMPDEST PUSH1 0x20 ADD ADD SWAP1 PUSH31 0xFFFFFFFFFFFFFFFFFFFFFFFFFFFFFFFFFFFFFFFFFFFFFFFFFFFFFFFFFFFFFF NOT AND SWAP1 DUP2 PUSH0 BYTE SWAP1 MSTORE8 POP PUSH32 0x7400000000000000000000000000000000000000000000000000000000000000 DUP4 DUP4 DUP1 PUSH2 0x1588 SWAP1 PUSH2 0x4602 JUMP JUMPDEST SWAP5 POP DUP2 MLOAD DUP2 LT PUSH2 0x159B JUMPI PUSH2 0x159A PUSH2 0x45D5 JUMP JUMPDEST JUMPDEST PUSH1 0x20 ADD ADD SWAP1 PUSH31 0xFFFFFFFFFFFFFFFFFFFFFFFFFFFFFFFFFFFFFFFFFFFFFFFFFFFFFFFFFFFFFF NOT AND SWAP1 DUP2 PUSH0 BYTE SWAP1 MSTORE8 POP PUSH32 0x3B00000000000000000000000000000000000000000000000000000000000000 DUP4 DUP4 DUP1 PUSH2 0x15F6 SWAP1 PUSH2 0x4602 JUMP JUMPDEST SWAP5 POP DUP2 MLOAD DUP2 LT PUSH2 0x1609 JUMPI PUSH2 0x1608 PUSH2 0x45D5 JUMP JUMPDEST JUMPDEST PUSH1 0x20 ADD ADD SWAP1 PUSH31 0xFFFFFFFFFFFFFFFFFFFFFFFFFFFFFFFFFFFFFFFFFFFFFFFFFFFFFFFFFFFFFF NOT AND SWAP1 DUP2 PUSH0 BYTE SWAP1 MSTORE8 POP PUSH2 0x1BCC JUMP JUMPDEST PUSH32 0x3E00000000000000000000000000000000000000000000000000000000000000 DUP5 DUP3 DUP2 MLOAD DUP2 LT PUSH2 0x1670 JUMPI PUSH2 0x166F PUSH2 0x45D5 JUMP JUMPDEST JUMPDEST PUSH1 0x20 ADD ADD MLOAD PUSH1 0xF8 SHR PUSH1 0xF8 SHL PUSH31 0xFFFFFFFFFFFFFFFFFFFFFFFFFFFFFFFFFFFFFFFFFFFFFFFFFFFFFFFFFFFFFF NOT AND SUB PUSH2 0x185F JUMPI PUSH32 0x2600000000000000000000000000000000000000000000000000000000000000 DUP4 DUP4 DUP1 PUSH2 0x16CF SWAP1 PUSH2 0x4602 JUMP JUMPDEST SWAP5 POP DUP2 MLOAD DUP2 LT PUSH2 0x16E2 JUMPI PUSH2 0x16E1 PUSH2 0x45D5 JUMP JUMPDEST JUMPDEST PUSH1 0x20 ADD ADD SWAP1 PUSH31 0xFFFFFFFFFFFFFFFFFFFFFFFFFFFFFFFFFFFFFFFFFFFFFFFFFFFFFFFFFFFFFF NOT AND SWAP1 DUP2 PUSH0 BYTE SWAP1 MSTORE8 POP PUSH32 0x6700000000000000000000000000000000000000000000000000000000000000 DUP4 DUP4 DUP1 PUSH2 0x173D SWAP1 PUSH2 0x4602 JUMP JUMPDEST SWAP5 POP DUP2 MLOAD DUP2 LT PUSH2 0x1750 JUMPI PUSH2 0x174F PUSH2 0x45D5 JUMP JUMPDEST JUMPDEST PUSH1 0x20 ADD ADD SWAP1 PUSH31 0xFFFFFFFFFFFFFFFFFFFFFFFFFFFFFFFFFFFFFFFFFFFFFFFFFFFFFFFFFFFFFF NOT AND SWAP1 DUP2 PUSH0 BYTE SWAP1 MSTORE8 POP PUSH32 0x7400000000000000000000000000000000000000000000000000000000000000 DUP4 DUP4 DUP1 PUSH2 0x17AB SWAP1 PUSH2 0x4602 JUMP JUMPDEST SWAP5 POP DUP2 MLOAD DUP2 LT PUSH2 0x17BE JUMPI PUSH2 0x17BD PUSH2 0x45D5 JUMP JUMPDEST JUMPDEST PUSH1 0x20 ADD ADD SWAP1 PUSH31 0xFFFFFFFFFFFFFFFFFFFFFFFFFFFFFFFFFFFFFFFFFFFFFFFFFFFFFFFFFFFFFF NOT AND SWAP1 DUP2 PUSH0 BYTE SWAP1 MSTORE8 POP PUSH32 0x3B00000000000000000000000000000000000000000000000000000000000000 DUP4 DUP4 DUP1 PUSH2 0x1819 SWAP1 PUSH2 0x4602 JUMP JUMPDEST SWAP5 POP DUP2 MLOAD DUP2 LT PUSH2 0x182C JUMPI PUSH2 0x182B PUSH2 0x45D5 JUMP JUMPDEST JUMPDEST PUSH1 0x20 ADD ADD SWAP1 PUSH31 0xFFFFFFFFFFFFFFFFFFFFFFFFFFFFFFFFFFFFFFFFFFFFFFFFFFFFFFFFFFFFFF NOT AND SWAP1 DUP2 PUSH0 BYTE SWAP1 MSTORE8 POP PUSH2 0x1BCB JUMP JUMPDEST PUSH32 0x2200000000000000000000000000000000000000000000000000000000000000 DUP5 DUP3 DUP2 MLOAD DUP2 LT PUSH2 0x1893 JUMPI PUSH2 0x1892 PUSH2 0x45D5 JUMP JUMPDEST JUMPDEST PUSH1 0x20 ADD ADD MLOAD PUSH1 0xF8 SHR PUSH1 0xF8 SHL PUSH31 0xFFFFFFFFFFFFFFFFFFFFFFFFFFFFFFFFFFFFFFFFFFFFFFFFFFFFFFFFFFFFFF NOT AND SUB PUSH2 0x1B5E JUMPI PUSH32 0x2600000000000000000000000000000000000000000000000000000000000000 DUP4 DUP4 DUP1 PUSH2 0x18F2 SWAP1 PUSH2 0x4602 JUMP JUMPDEST SWAP5 POP DUP2 MLOAD DUP2 LT PUSH2 0x1905 JUMPI PUSH2 0x1904 PUSH2 0x45D5 JUMP JUMPDEST JUMPDEST PUSH1 0x20 ADD ADD SWAP1 PUSH31 0xFFFFFFFFFFFFFFFFFFFFFFFFFFFFFFFFFFFFFFFFFFFFFFFFFFFFFFFFFFFFFF NOT AND SWAP1 DUP2 PUSH0 BYTE SWAP1 MSTORE8 POP PUSH32 0x7100000000000000000000000000000000000000000000000000000000000000 DUP4 DUP4 DUP1 PUSH2 0x1960 SWAP1 PUSH2 0x4602 JUMP JUMPDEST SWAP5 POP DUP2 MLOAD DUP2 LT PUSH2 0x1973 JUMPI PUSH2 0x1972 PUSH2 0x45D5 JUMP JUMPDEST JUMPDEST PUSH1 0x20 ADD ADD SWAP1 PUSH31 0xFFFFFFFFFFFFFFFFFFFFFFFFFFFFFFFFFFFFFFFFFFFFFFFFFFFFFFFFFFFFFF NOT AND SWAP1 DUP2 PUSH0 BYTE SWAP1 MSTORE8 POP PUSH32 0x7500000000000000000000000000000000000000000000000000000000000000 DUP4 DUP4 DUP1 PUSH2 0x19CE SWAP1 PUSH2 0x4602 JUMP JUMPDEST SWAP5 POP DUP2 MLOAD DUP2 LT PUSH2 0x19E1 JUMPI PUSH2 0x19E0 PUSH2 0x45D5 JUMP JUMPDEST JUMPDEST PUSH1 0x20 ADD ADD SWAP1 PUSH31 0xFFFFFFFFFFFFFFFFFFFFFFFFFFFFFFFFFFFFFFFFFFFFFFFFFFFFFFFFFFFFFF NOT AND SWAP1 DUP2 PUSH0 BYTE SWAP1 MSTORE8 POP PUSH32 0x6F00000000000000000000000000000000000000000000000000000000000000 DUP4 DUP4 DUP1 PUSH2 0x1A3C SWAP1 PUSH2 0x4602 JUMP JUMPDEST SWAP5 POP DUP2 MLOAD DUP2 LT PUSH2 0x1A4F JUMPI PUSH2 0x1A4E PUSH2 0x45D5 JUMP JUMPDEST JUMPDEST PUSH1 0x20 ADD ADD SWAP1 PUSH31 0xFFFFFFFFFFFFFFFFFFFFFFFFFFFFFFFFFFFFFFFFFFFFFFFFFFFFFFFFFFFFFF NOT AND SWAP1 DUP2 PUSH0 BYTE SWAP1 MSTORE8 POP PUSH32 0x7400000000000000000000000000000000000000000000000000000000000000 DUP4 DUP4 DUP1 PUSH2 0x1AAA SWAP1 PUSH2 0x4602 JUMP JUMPDEST SWAP5 POP DUP2 MLOAD DUP2 LT PUSH2 0x1ABD JUMPI PUSH2 0x1ABC PUSH2 0x45D5 JUMP JUMPDEST JUMPDEST PUSH1 0x20 ADD ADD SWAP1 PUSH31 0xFFFFFFFFFFFFFFFFFFFFFFFFFFFFFFFFFFFFFFFFFFFFFFFFFFFFFFFFFFFFFF NOT AND SWAP1 DUP2 PUSH0 BYTE SWAP1 MSTORE8 POP PUSH32 0x3B00000000000000000000000000000000000000000000000000000000000000 DUP4 DUP4 DUP1 PUSH2 0x1B18 SWAP1 PUSH2 0x4602 JUMP JUMPDEST SWAP5 POP DUP2 MLOAD DUP2 LT PUSH2 0x1B2B JUMPI PUSH2 0x1B2A PUSH2 0x45D5 JUMP JUMPDEST JUMPDEST PUSH1 0x20 ADD ADD SWAP1 PUSH31 0xFFFFFFFFFFFFFFFFFFFFFFFFFFFFFFFFFFFFFFFFFFFFFFFFFFFFFFFFFFFFFF NOT AND SWAP1 DUP2 PUSH0 BYTE SWAP1 MSTORE8 POP PUSH2 0x1BCA JUMP JUMPDEST DUP4 DUP2 DUP2 MLOAD DUP2 LT PUSH2 0x1B71 JUMPI PUSH2 0x1B70 PUSH2 0x45D5 JUMP JUMPDEST JUMPDEST PUSH1 0x20 ADD ADD MLOAD PUSH1 0xF8 SHR PUSH1 0xF8 SHL DUP4 DUP4 DUP1 PUSH2 0x1B88 SWAP1 PUSH2 0x4602 JUMP JUMPDEST SWAP5 POP DUP2 MLOAD DUP2 LT PUSH2 0x1B9B JUMPI PUSH2 0x1B9A PUSH2 0x45D5 JUMP JUMPDEST JUMPDEST PUSH1 0x20 ADD ADD SWAP1 PUSH31 0xFFFFFFFFFFFFFFFFFFFFFFFFFFFFFFFFFFFFFFFFFFFFFFFFFFFFFFFFFFFFFF NOT AND SWAP1 DUP2 PUSH0 BYTE SWAP1 MSTORE8 POP JUMPDEST JUMPDEST JUMPDEST JUMPDEST DUP1 DUP1 PUSH1 0x1 ADD SWAP2 POP POP PUSH2 0x117F JUMP JUMPDEST POP PUSH0 DUP2 PUSH8 0xFFFFFFFFFFFFFFFF DUP2 GT ISZERO PUSH2 0x1BF6 JUMPI PUSH2 0x1BF5 PUSH2 0x2B31 JUMP JUMPDEST JUMPDEST PUSH1 0x40 MLOAD SWAP1 DUP1 DUP3 MSTORE DUP1 PUSH1 0x1F ADD PUSH1 0x1F NOT AND PUSH1 0x20 ADD DUP3 ADD PUSH1 0x40 MSTORE DUP1 ISZERO PUSH2 0x1C28 JUMPI DUP2 PUSH1 0x20 ADD PUSH1 0x1 DUP3 MUL DUP1 CALLDATASIZE DUP4 CALLDATACOPY DUP1 DUP3 ADD SWAP2 POP POP SWAP1 POP JUMPDEST POP SWAP1 POP PUSH0 PUSH0 SWAP1 POP JUMPDEST DUP3 DUP2 LT ISZERO PUSH2 0x1CA4 JUMPI DUP4 DUP2 DUP2 MLOAD DUP2 LT PUSH2 0x1C4B JUMPI PUSH2 0x1C4A PUSH2 0x45D5 JUMP JUMPDEST JUMPDEST PUSH1 0x20 ADD ADD MLOAD PUSH1 0xF8 SHR PUSH1 0xF8 SHL DUP3 DUP3 DUP2 MLOAD DUP2 LT PUSH2 0x1C69 JUMPI PUSH2 0x1C68 PUSH2 0x45D5 JUMP JUMPDEST JUMPDEST PUSH1 0x20 ADD ADD SWAP1 PUSH31 0xFFFFFFFFFFFFFFFFFFFFFFFFFFFFFFFFFFFFFFFFFFFFFFFFFFFFFFFFFFFFFF NOT AND SWAP1 DUP2 PUSH0 BYTE SWAP1 MSTORE8 POP DUP1 DUP1 PUSH1 0x1 ADD SWAP2 POP POP PUSH2 0x1C30 JUMP JUMPDEST POP DUP1 SWAP5 POP POP POP POP POP SWAP2 SWAP1 POP JUMP JUMPDEST PUSH1 0x60 PUSH0 PUSH1 0x1 PUSH2 0x1CBF DUP5 PUSH2 0x23B5 JUMP JUMPDEST ADD SWAP1 POP PUSH0 DUP2 PUSH8 0xFFFFFFFFFFFFFFFF DUP2 GT ISZERO PUSH2 0x1CDD JUMPI PUSH2 0x1CDC PUSH2 0x2B31 JUMP JUMPDEST JUMPDEST PUSH1 0x40 MLOAD SWAP1 DUP1 DUP3 MSTORE DUP1 PUSH1 0x1F ADD PUSH1 0x1F NOT AND PUSH1 0x20 ADD DUP3 ADD PUSH1 0x40 MSTORE DUP1 ISZERO PUSH2 0x1D0F JUMPI DUP2 PUSH1 0x20 ADD PUSH1 0x1 DUP3 MUL DUP1 CALLDATASIZE DUP4 CALLDATACOPY DUP1 DUP3 ADD SWAP2 POP POP SWAP1 POP JUMPDEST POP SWAP1 POP PUSH0 DUP3 PUSH1 0x20 ADD DUP3 ADD SWAP1 POP JUMPDEST PUSH1 0x1 ISZERO PUSH2 0x1D70 JUMPI DUP1 DUP1 PUSH1 0x1 SWAP1 SUB SWAP2 POP POP PUSH32 0x3031323334353637383961626364656600000000000000000000000000000000 PUSH1 0xA DUP7 MOD BYTE DUP2 MSTORE8 PUSH1 0xA DUP6 DUP2 PUSH2 0x1D65 JUMPI PUSH2 0x1D64 PUSH2 0x4649 JUMP JUMPDEST JUMPDEST DIV SWAP5 POP PUSH0 DUP6 SUB PUSH2 0x1D1C JUMPI JUMPDEST DUP2 SWAP4 POP POP POP POP SWAP2 SWAP1 POP JUMP JUMPDEST PUSH0 PUSH20 0xFFFFFFFFFFFFFFFFFFFFFFFFFFFFFFFFFFFFFFFF AND DUP3 PUSH20 0xFFFFFFFFFFFFFFFFFFFFFFFFFFFFFFFFFFFFFFFF AND SUB PUSH2 0x1DEB JUMPI DUP2 PUSH1 0x40 MLOAD PUSH32 0x5B08BA1800000000000000000000000000000000000000000000000000000000 DUP2 MSTORE PUSH1 0x4 ADD PUSH2 0x1DE2 SWAP2 SWAP1 PUSH2 0x2A5C JUMP JUMPDEST PUSH1 0x40 MLOAD DUP1 SWAP2 SUB SWAP1 REVERT JUMPDEST DUP1 PUSH1 0x5 PUSH0 DUP6 PUSH20 0xFFFFFFFFFFFFFFFFFFFFFFFFFFFFFFFFFFFFFFFF AND PUSH20 0xFFFFFFFFFFFFFFFFFFFFFFFFFFFFFFFFFFFFFFFF AND DUP2 MSTORE PUSH1 0x20 ADD SWAP1 DUP2 MSTORE PUSH1 0x20 ADD PUSH0 KECCAK256 PUSH0 DUP5 PUSH20 0xFFFFFFFFFFFFFFFFFFFFFFFFFFFFFFFFFFFFFFFF AND PUSH20 0xFFFFFFFFFFFFFFFFFFFFFFFFFFFFFFFFFFFFFFFF AND DUP2 MSTORE PUSH1 0x20 ADD SWAP1 DUP2 MSTORE PUSH1 0x20 ADD PUSH0 KECCAK256 PUSH0 PUSH2 0x100 EXP DUP2 SLOAD DUP2 PUSH1 0xFF MUL NOT AND SWAP1 DUP4 ISZERO ISZERO MUL OR SWAP1 SSTORE POP DUP2 PUSH20 0xFFFFFFFFFFFFFFFFFFFFFFFFFFFFFFFFFFFFFFFF AND DUP4 PUSH20 0xFFFFFFFFFFFFFFFFFFFFFFFFFFFFFFFFFFFFFFFF AND PUSH32 0x17307EAB39AB6107E8899845AD3D59BD9653F200F220920489CA2B5937696C31 DUP4 PUSH1 0x40 MLOAD PUSH2 0x1ED7 SWAP2 SWAP1 PUSH2 0x2916 JUMP JUMPDEST PUSH1 0x40 MLOAD DUP1 SWAP2 SUB SWAP1 LOG3 POP POP POP JUMP JUMPDEST PUSH0 DUP4 PUSH20 0xFFFFFFFFFFFFFFFFFFFFFFFFFFFFFFFFFFFFFFFF AND EXTCODESIZE GT ISZERO PUSH2 0x2089 JUMPI DUP3 PUSH20 0xFFFFFFFFFFFFFFFFFFFFFFFFFFFFFFFFFFFFFFFF AND PUSH4 0x150B7A02 DUP7 DUP7 DUP6 DUP6 PUSH1 0x40 MLOAD DUP6 PUSH4 0xFFFFFFFF AND PUSH1 0xE0 SHL DUP2 MSTORE PUSH1 0x4 ADD PUSH2 0x1F42 SWAP5 SWAP4 SWAP3 SWAP2 SWAP1 PUSH2 0x46C8 JUMP JUMPDEST PUSH1 0x20 PUSH1 0x40 MLOAD DUP1 DUP4 SUB DUP2 PUSH0 DUP8 GAS CALL SWAP3 POP POP POP DUP1 ISZERO PUSH2 0x1F7D JUMPI POP PUSH1 0x40 MLOAD RETURNDATASIZE PUSH1 0x1F NOT PUSH1 0x1F DUP3 ADD AND DUP3 ADD DUP1 PUSH1 0x40 MSTORE POP DUP2 ADD SWAP1 PUSH2 0x1F7A SWAP2 SWAP1 PUSH2 0x4726 JUMP JUMPDEST PUSH1 0x1 JUMPDEST PUSH2 0x1FFE JUMPI RETURNDATASIZE DUP1 PUSH0 DUP2 EQ PUSH2 0x1FAB JUMPI PUSH1 0x40 MLOAD SWAP2 POP PUSH1 0x1F NOT PUSH1 0x3F RETURNDATASIZE ADD AND DUP3 ADD PUSH1 0x40 MSTORE RETURNDATASIZE DUP3 MSTORE RETURNDATASIZE PUSH0 PUSH1 0x20 DUP5 ADD RETURNDATACOPY PUSH2 0x1FB0 JUMP JUMPDEST PUSH1 0x60 SWAP2 POP JUMPDEST POP PUSH0 DUP2 MLOAD SUB PUSH2 0x1FF6 JUMPI DUP4 PUSH1 0x40 MLOAD PUSH32 0x64A0AE9200000000000000000000000000000000000000000000000000000000 DUP2 MSTORE PUSH1 0x4 ADD PUSH2 0x1FED SWAP2 SWAP1 PUSH2 0x2A5C JUMP JUMPDEST PUSH1 0x40 MLOAD DUP1 SWAP2 SUB SWAP1 REVERT JUMPDEST DUP1 MLOAD DUP2 PUSH1 0x20 ADD REVERT JUMPDEST PUSH4 0x150B7A02 PUSH1 0xE0 SHL PUSH28 0xFFFFFFFFFFFFFFFFFFFFFFFFFFFFFFFFFFFFFFFFFFFFFFFFFFFFFFFF NOT AND DUP2 PUSH28 0xFFFFFFFFFFFFFFFFFFFFFFFFFFFFFFFFFFFFFFFFFFFFFFFFFFFFFFFF NOT AND EQ PUSH2 0x2087 JUMPI DUP4 PUSH1 0x40 MLOAD PUSH32 0x64A0AE9200000000000000000000000000000000000000000000000000000000 DUP2 MSTORE PUSH1 0x4 ADD PUSH2 0x207E SWAP2 SWAP1 PUSH2 0x2A5C JUMP JUMPDEST PUSH1 0x40 MLOAD DUP1 SWAP2 SUB SWAP1 REVERT JUMPDEST POP JUMPDEST POP POP POP POP POP JUMP JUMPDEST PUSH0 PUSH1 0x2 PUSH0 DUP4 DUP2 MSTORE PUSH1 0x20 ADD SWAP1 DUP2 MSTORE PUSH1 0x20 ADD PUSH0 KECCAK256 PUSH0 SWAP1 SLOAD SWAP1 PUSH2 0x100 EXP SWAP1 DIV PUSH20 0xFFFFFFFFFFFFFFFFFFFFFFFFFFFFFFFFFFFFFFFF AND SWAP1 POP SWAP2 SWAP1 POP JUMP JUMPDEST PUSH1 0x60 PUSH2 0x20EF DUP3 PUSH1 0x40 MLOAD DUP1 PUSH1 0x60 ADD PUSH1 0x40 MSTORE DUP1 PUSH1 0x40 DUP2 MSTORE PUSH1 0x20 ADD PUSH2 0x47DC PUSH1 0x40 SWAP2 CODECOPY PUSH1 0x1 PUSH2 0x2506 JUMP JUMPDEST SWAP1 POP SWAP2 SWAP1 POP JUMP JUMPDEST PUSH0 DUP2 PUSH0 ADD SLOAD SWAP1 POP SWAP2 SWAP1 POP JUMP JUMPDEST PUSH2 0x211B DUP3 DUP3 PUSH1 0x40 MLOAD DUP1 PUSH1 0x20 ADD PUSH1 0x40 MSTORE DUP1 PUSH0 DUP2 MSTORE POP PUSH2 0x2695 JUMP JUMPDEST POP POP JUMP JUMPDEST PUSH1 0x1 DUP2 PUSH0 ADD PUSH0 DUP3 DUP3 SLOAD ADD SWAP3 POP POP DUP2 SWAP1 SSTORE POP POP JUMP JUMPDEST DUP1 DUP1 PUSH2 0x216B JUMPI POP PUSH0 PUSH20 0xFFFFFFFFFFFFFFFFFFFFFFFFFFFFFFFFFFFFFFFF AND DUP3 PUSH20 0xFFFFFFFFFFFFFFFFFFFFFFFFFFFFFFFFFFFFFFFF AND EQ ISZERO JUMPDEST ISZERO PUSH2 0x229D JUMPI PUSH0 PUSH2 0x217A DUP5 PUSH2 0xE30 JUMP JUMPDEST SWAP1 POP PUSH0 PUSH20 0xFFFFFFFFFFFFFFFFFFFFFFFFFFFFFFFFFFFFFFFF AND DUP4 PUSH20 0xFFFFFFFFFFFFFFFFFFFFFFFFFFFFFFFFFFFFFFFF AND EQ ISZERO DUP1 ISZERO PUSH2 0x21E4 JUMPI POP DUP3 PUSH20 0xFFFFFFFFFFFFFFFFFFFFFFFFFFFFFFFFFFFFFFFF AND DUP2 PUSH20 0xFFFFFFFFFFFFFFFFFFFFFFFFFFFFFFFFFFFFFFFF AND EQ ISZERO JUMPDEST DUP1 ISZERO PUSH2 0x21F7 JUMPI POP PUSH2 0x21F5 DUP2 DUP5 PUSH2 0xD39 JUMP JUMPDEST ISZERO JUMPDEST ISZERO PUSH2 0x2239 JUMPI DUP3 PUSH1 0x40 MLOAD PUSH32 0xA9FBF51F00000000000000000000000000000000000000000000000000000000 DUP2 MSTORE PUSH1 0x4 ADD PUSH2 0x2230 SWAP2 SWAP1 PUSH2 0x2A5C JUMP JUMPDEST PUSH1 0x40 MLOAD DUP1 SWAP2 SUB SWAP1 REVERT JUMPDEST DUP2 ISZERO PUSH2 0x229B JUMPI DUP4 DUP6 PUSH20 0xFFFFFFFFFFFFFFFFFFFFFFFFFFFFFFFFFFFFFFFF AND DUP3 PUSH20 0xFFFFFFFFFFFFFFFFFFFFFFFFFFFFFFFFFFFFFFFF AND PUSH32 0x8C5BE1E5EBEC7D5BD14F71427D1E84F3DD0314C0F7B2291E5B200AC8C7C3B925 PUSH1 0x40 MLOAD PUSH1 0x40 MLOAD DUP1 SWAP2 SUB SWAP1 LOG4 JUMPDEST POP JUMPDEST DUP4 PUSH1 0x4 PUSH0 DUP6 DUP2 MSTORE PUSH1 0x20 ADD SWAP1 DUP2 MSTORE PUSH1 0x20 ADD PUSH0 KECCAK256 PUSH0 PUSH2 0x100 EXP DUP2 SLOAD DUP2 PUSH20 0xFFFFFFFFFFFFFFFFFFFFFFFFFFFFFFFFFFFFFFFF MUL NOT AND SWAP1 DUP4 PUSH20 0xFFFFFFFFFFFFFFFFFFFFFFFFFFFFFFFFFFFFFFFF AND MUL OR SWAP1 SSTORE POP POP POP POP POP JUMP JUMPDEST PUSH2 0x22FD DUP4 DUP4 DUP4 PUSH2 0x26B8 JUMP JUMPDEST PUSH2 0x23B0 JUMPI PUSH0 PUSH20 0xFFFFFFFFFFFFFFFFFFFFFFFFFFFFFFFFFFFFFFFF AND DUP4 PUSH20 0xFFFFFFFFFFFFFFFFFFFFFFFFFFFFFFFFFFFFFFFF AND SUB PUSH2 0x2371 JUMPI DUP1 PUSH1 0x40 MLOAD PUSH32 0x7E27328900000000000000000000000000000000000000000000000000000000 DUP2 MSTORE PUSH1 0x4 ADD PUSH2 0x2368 SWAP2 SWAP1 PUSH2 0x2D8F JUMP JUMPDEST PUSH1 0x40 MLOAD DUP1 SWAP2 SUB SWAP1 REVERT JUMPDEST DUP2 DUP2 PUSH1 0x40 MLOAD PUSH32 0x177E802F00000000000000000000000000000000000000000000000000000000 DUP2 MSTORE PUSH1 0x4 ADD PUSH2 0x23A7 SWAP3 SWAP2 SWAP1 PUSH2 0x4751 JUMP JUMPDEST PUSH1 0x40 MLOAD DUP1 SWAP2 SUB SWAP1 REVERT JUMPDEST POP POP POP JUMP JUMPDEST PUSH0 PUSH0 PUSH0 SWAP1 POP PUSH27 0x184F03E93FF9F4DAA797ED6E38ED64BF6A1F010000000000000000 DUP4 LT PUSH2 0x2411 JUMPI PUSH27 0x184F03E93FF9F4DAA797ED6E38ED64BF6A1F010000000000000000 DUP4 DUP2 PUSH2 0x2407 JUMPI PUSH2 0x2406 PUSH2 0x4649 JUMP JUMPDEST JUMPDEST DIV SWAP3 POP PUSH1 0x40 DUP2 ADD SWAP1 POP JUMPDEST PUSH14 0x4EE2D6D415B85ACEF8100000000 DUP4 LT PUSH2 0x244E JUMPI PUSH14 0x4EE2D6D415B85ACEF8100000000 DUP4 DUP2 PUSH2 0x2444 JUMPI PUSH2 0x2443 PUSH2 0x4649 JUMP JUMPDEST JUMPDEST DIV SWAP3 POP PUSH1 0x20 DUP2 ADD SWAP1 POP JUMPDEST PUSH7 0x2386F26FC10000 DUP4 LT PUSH2 0x247D JUMPI PUSH7 0x2386F26FC10000 DUP4 DUP2 PUSH2 0x2473 JUMPI PUSH2 0x2472 PUSH2 0x4649 JUMP JUMPDEST JUMPDEST DIV SWAP3 POP PUSH1 0x10 DUP2 ADD SWAP1 POP JUMPDEST PUSH4 0x5F5E100 DUP4 LT PUSH2 0x24A6 JUMPI PUSH4 0x5F5E100 DUP4 DUP2 PUSH2 0x249C JUMPI PUSH2 0x249B PUSH2 0x4649 JUMP JUMPDEST JUMPDEST DIV SWAP3 POP PUSH1 0x8 DUP2 ADD SWAP1 POP JUMPDEST PUSH2 0x2710 DUP4 LT PUSH2 0x24CB JUMPI PUSH2 0x2710 DUP4 DUP2 PUSH2 0x24C1 JUMPI PUSH2 0x24C0 PUSH2 0x4649 JUMP JUMPDEST JUMPDEST DIV SWAP3 POP PUSH1 0x4 DUP2 ADD SWAP1 POP JUMPDEST PUSH1 0x64 DUP4 LT PUSH2 0x24EE JUMPI PUSH1 0x64 DUP4 DUP2 PUSH2 0x24E4 JUMPI PUSH2 0x24E3 PUSH2 0x4649 JUMP JUMPDEST JUMPDEST DIV SWAP3 POP PUSH1 0x2 DUP2 ADD SWAP1 POP JUMPDEST PUSH1 0xA DUP4 LT PUSH2 0x24FD JUMPI PUSH1 0x1 DUP2 ADD SWAP1 POP JUMPDEST DUP1 SWAP2 POP POP SWAP2 SWAP1 POP JUMP JUMPDEST PUSH1 0x60 PUSH0 DUP5 MLOAD SUB PUSH2 0x2526 JUMPI PUSH1 0x40 MLOAD DUP1 PUSH1 0x20 ADD PUSH1 0x40 MSTORE DUP1 PUSH0 DUP2 MSTORE POP SWAP1 POP PUSH2 0x268E JUMP JUMPDEST PUSH0 DUP3 PUSH2 0x2557 JUMPI PUSH1 0x3 PUSH1 0x2 DUP7 MLOAD PUSH1 0x4 PUSH2 0x253E SWAP2 SWAP1 PUSH2 0x4594 JUMP JUMPDEST PUSH2 0x2548 SWAP2 SWAP1 PUSH2 0x4778 JUMP JUMPDEST PUSH2 0x2552 SWAP2 SWAP1 PUSH2 0x47AB JUMP JUMPDEST PUSH2 0x257E JUMP JUMPDEST PUSH1 0x3 PUSH1 0x2 DUP7 MLOAD PUSH2 0x2567 SWAP2 SWAP1 PUSH2 0x4778 JUMP JUMPDEST PUSH2 0x2571 SWAP2 SWAP1 PUSH2 0x47AB JUMP JUMPDEST PUSH1 0x4 PUSH2 0x257D SWAP2 SWAP1 PUSH2 0x4594 JUMP JUMPDEST JUMPDEST SWAP1 POP PUSH0 DUP2 PUSH8 0xFFFFFFFFFFFFFFFF DUP2 GT ISZERO PUSH2 0x259B JUMPI PUSH2 0x259A PUSH2 0x2B31 JUMP JUMPDEST JUMPDEST PUSH1 0x40 MLOAD SWAP1 DUP1 DUP3 MSTORE DUP1 PUSH1 0x1F ADD PUSH1 0x1F NOT AND PUSH1 0x20 ADD DUP3 ADD PUSH1 0x40 MSTORE DUP1 ISZERO PUSH2 0x25CD JUMPI DUP2 PUSH1 0x20 ADD PUSH1 0x1 DUP3 MUL DUP1 CALLDATASIZE DUP4 CALLDATACOPY DUP1 DUP3 ADD SWAP2 POP POP SWAP1 POP JUMPDEST POP SWAP1 POP PUSH1 0x1 DUP6 ADD PUSH1 0x20 DUP3 ADD DUP8 DUP9 MLOAD DUP10 ADD PUSH1 0x20 DUP2 ADD DUP1 MLOAD PUSH0 DUP3 MSTORE JUMPDEST DUP3 DUP5 LT ISZERO PUSH2 0x2642 JUMPI PUSH1 0x3 DUP5 ADD SWAP4 POP DUP4 MLOAD PUSH1 0x3F DUP2 PUSH1 0x12 SHR AND DUP8 ADD MLOAD DUP7 MSTORE8 PUSH1 0x1 DUP7 ADD SWAP6 POP PUSH1 0x3F DUP2 PUSH1 0xC SHR AND DUP8 ADD MLOAD DUP7 MSTORE8 PUSH1 0x1 DUP7 ADD SWAP6 POP PUSH1 0x3F DUP2 PUSH1 0x6 SHR AND DUP8 ADD MLOAD DUP7 MSTORE8 PUSH1 0x1 DUP7 ADD SWAP6 POP PUSH1 0x3F DUP2 AND DUP8 ADD MLOAD DUP7 MSTORE8 PUSH1 0x1 DUP7 ADD SWAP6 POP POP PUSH2 0x25E7 JUMP JUMPDEST DUP1 DUP3 MSTORE DUP10 ISZERO PUSH2 0x2682 JUMPI PUSH1 0x3 DUP13 MLOAD MOD PUSH1 0x1 DUP2 EQ PUSH2 0x2665 JUMPI PUSH1 0x2 DUP2 EQ PUSH2 0x2678 JUMPI PUSH2 0x2680 JUMP JUMPDEST PUSH1 0x3D PUSH1 0x1 DUP8 SUB MSTORE8 PUSH1 0x3D PUSH1 0x2 DUP8 SUB MSTORE8 PUSH2 0x2680 JUMP JUMPDEST PUSH1 0x3D PUSH1 0x1 DUP8 SUB MSTORE8 JUMPDEST POP JUMPDEST POP POP POP POP POP POP DUP1 SWAP3 POP POP POP JUMPDEST SWAP4 SWAP3 POP POP POP JUMP JUMPDEST PUSH2 0x269F DUP4 DUP4 PUSH2 0x2778 JUMP JUMPDEST PUSH2 0x26B3 PUSH2 0x26AA PUSH2 0xEEF JUMP JUMPDEST PUSH0 DUP6 DUP6 DUP6 PUSH2 0x1EE4 JUMP JUMPDEST POP POP POP JUMP JUMPDEST PUSH0 PUSH0 PUSH20 0xFFFFFFFFFFFFFFFFFFFFFFFFFFFFFFFFFFFFFFFF AND DUP4 PUSH20 0xFFFFFFFFFFFFFFFFFFFFFFFFFFFFFFFFFFFFFFFF AND EQ ISZERO DUP1 ISZERO PUSH2 0x276F JUMPI POP DUP3 PUSH20 0xFFFFFFFFFFFFFFFFFFFFFFFFFFFFFFFFFFFFFFFF AND DUP5 PUSH20 0xFFFFFFFFFFFFFFFFFFFFFFFFFFFFFFFFFFFFFFFF AND EQ DUP1 PUSH2 0x2730 JUMPI POP PUSH2 0x272F DUP5 DUP5 PUSH2 0xD39 JUMP JUMPDEST JUMPDEST DUP1 PUSH2 0x276E JUMPI POP DUP3 PUSH20 0xFFFFFFFFFFFFFFFFFFFFFFFFFFFFFFFFFFFFFFFF AND PUSH2 0x2756 DUP4 PUSH2 0xEB6 JUMP JUMPDEST PUSH20 0xFFFFFFFFFFFFFFFFFFFFFFFFFFFFFFFFFFFFFFFF AND EQ JUMPDEST JUMPDEST SWAP1 POP SWAP4 SWAP3 POP POP POP JUMP JUMPDEST PUSH0 PUSH20 0xFFFFFFFFFFFFFFFFFFFFFFFFFFFFFFFFFFFFFFFF AND DUP3 PUSH20 0xFFFFFFFFFFFFFFFFFFFFFFFFFFFFFFFFFFFFFFFF AND SUB PUSH2 0x27E8 JUMPI PUSH0 PUSH1 0x40 MLOAD PUSH32 0x64A0AE9200000000000000000000000000000000000000000000000000000000 DUP2 MSTORE PUSH1 0x4 ADD PUSH2 0x27DF SWAP2 SWAP1 PUSH2 0x2A5C JUMP JUMPDEST PUSH1 0x40 MLOAD DUP1 SWAP2 SUB SWAP1 REVERT JUMPDEST PUSH0 PUSH2 0x27F4 DUP4 DUP4 PUSH0 PUSH2 0xF08 JUMP JUMPDEST SWAP1 POP PUSH0 PUSH20 0xFFFFFFFFFFFFFFFFFFFFFFFFFFFFFFFFFFFFFFFF AND DUP2 PUSH20 0xFFFFFFFFFFFFFFFFFFFFFFFFFFFFFFFFFFFFFFFF AND EQ PUSH2 0x2866 JUMPI PUSH0 PUSH1 0x40 MLOAD PUSH32 0x73C6AC6E00000000000000000000000000000000000000000000000000000000 DUP2 MSTORE PUSH1 0x4 ADD PUSH2 0x285D SWAP2 SWAP1 PUSH2 0x2A5C JUMP JUMPDEST PUSH1 0x40 MLOAD DUP1 SWAP2 SUB SWAP1 REVERT JUMPDEST POP POP POP JUMP JUMPDEST PUSH0 PUSH1 0x40 MLOAD SWAP1 POP SWAP1 JUMP JUMPDEST PUSH0 PUSH0 REVERT JUMPDEST PUSH0 PUSH0 REVERT JUMPDEST PUSH0 PUSH32 0xFFFFFFFF00000000000000000000000000000000000000000000000000000000 DUP3 AND SWAP1 POP SWAP2 SWAP1 POP JUMP JUMPDEST PUSH2 0x28B0 DUP2 PUSH2 0x287C JUMP JUMPDEST DUP2 EQ PUSH2 0x28BA JUMPI PUSH0 PUSH0 REVERT JUMPDEST POP JUMP JUMPDEST PUSH0 DUP2 CALLDATALOAD SWAP1 POP PUSH2 0x28CB DUP2 PUSH2 0x28A7 JUMP JUMPDEST SWAP3 SWAP2 POP POP JUMP JUMPDEST PUSH0 PUSH1 0x20 DUP3 DUP5 SUB SLT ISZERO PUSH2 0x28E6 JUMPI PUSH2 0x28E5 PUSH2 0x2874 JUMP JUMPDEST JUMPDEST PUSH0 PUSH2 0x28F3 DUP5 DUP3 DUP6 ADD PUSH2 0x28BD JUMP JUMPDEST SWAP2 POP POP SWAP3 SWAP2 POP POP JUMP JUMPDEST PUSH0 DUP2 ISZERO ISZERO SWAP1 POP SWAP2 SWAP1 POP JUMP JUMPDEST PUSH2 0x2910 DUP2 PUSH2 0x28FC JUMP JUMPDEST DUP3 MSTORE POP POP JUMP JUMPDEST PUSH0 PUSH1 0x20 DUP3 ADD SWAP1 POP PUSH2 0x2929 PUSH0 DUP4 ADD DUP5 PUSH2 0x2907 JUMP JUMPDEST SWAP3 SWAP2 POP POP JUMP JUMPDEST PUSH0 DUP2 MLOAD SWAP1 POP SWAP2 SWAP1 POP JUMP JUMPDEST PUSH0 DUP3 DUP3 MSTORE PUSH1 0x20 DUP3 ADD SWAP1 POP SWAP3 SWAP2 POP POP JUMP JUMPDEST DUP3 DUP2 DUP4 MCOPY PUSH0 DUP4 DUP4 ADD MSTORE POP POP POP JUMP JUMPDEST PUSH0 PUSH1 0x1F NOT PUSH1 0x1F DUP4 ADD AND SWAP1 POP SWAP2 SWAP1 POP JUMP JUMPDEST PUSH0 PUSH2 0x2971 DUP3 PUSH2 0x292F JUMP JUMPDEST PUSH2 0x297B DUP2 DUP6 PUSH2 0x2939 JUMP JUMPDEST SWAP4 POP PUSH2 0x298B DUP2 DUP6 PUSH1 0x20 DUP7 ADD PUSH2 0x2949 JUMP JUMPDEST PUSH2 0x2994 DUP2 PUSH2 0x2957 JUMP JUMPDEST DUP5 ADD SWAP2 POP POP SWAP3 SWAP2 POP POP JUMP JUMPDEST PUSH0 PUSH1 0x20 DUP3 ADD SWAP1 POP DUP2 DUP2 SUB PUSH0 DUP4 ADD MSTORE PUSH2 0x29B7 DUP2 DUP5 PUSH2 0x2967 JUMP JUMPDEST SWAP1 POP SWAP3 SWAP2 POP POP JUMP JUMPDEST PUSH0 DUP2 SWAP1 POP SWAP2 SWAP1 POP JUMP JUMPDEST PUSH2 0x29D1 DUP2 PUSH2 0x29BF JUMP JUMPDEST DUP2 EQ PUSH2 0x29DB JUMPI PUSH0 PUSH0 REVERT JUMPDEST POP JUMP JUMPDEST PUSH0 DUP2 CALLDATALOAD SWAP1 POP PUSH2 0x29EC DUP2 PUSH2 0x29C8 JUMP JUMPDEST SWAP3 SWAP2 POP POP JUMP JUMPDEST PUSH0 PUSH1 0x20 DUP3 DUP5 SUB SLT ISZERO PUSH2 0x2A07 JUMPI PUSH2 0x2A06 PUSH2 0x2874 JUMP JUMPDEST JUMPDEST PUSH0 PUSH2 0x2A14 DUP5 DUP3 DUP6 ADD PUSH2 0x29DE JUMP JUMPDEST SWAP2 POP POP SWAP3 SWAP2 POP POP JUMP JUMPDEST PUSH0 PUSH20 0xFFFFFFFFFFFFFFFFFFFFFFFFFFFFFFFFFFFFFFFF DUP3 AND SWAP1 POP SWAP2 SWAP1 POP JUMP JUMPDEST PUSH0 PUSH2 0x2A46 DUP3 PUSH2 0x2A1D JUMP JUMPDEST SWAP1 POP SWAP2 SWAP1 POP JUMP JUMPDEST PUSH2 0x2A56 DUP2 PUSH2 0x2A3C JUMP JUMPDEST DUP3 MSTORE POP POP JUMP JUMPDEST PUSH0 PUSH1 0x20 DUP3 ADD SWAP1 POP PUSH2 0x2A6F PUSH0 DUP4 ADD DUP5 PUSH2 0x2A4D JUMP JUMPDEST SWAP3 SWAP2 POP POP JUMP JUMPDEST PUSH2 0x2A7E DUP2 PUSH2 0x2A3C JUMP JUMPDEST DUP2 EQ PUSH2 0x2A88 JUMPI PUSH0 PUSH0 REVERT JUMPDEST POP JUMP JUMPDEST PUSH0 DUP2 CALLDATALOAD SWAP1 POP PUSH2 0x2A99 DUP2 PUSH2 0x2A75 JUMP JUMPDEST SWAP3 SWAP2 POP POP JUMP JUMPDEST PUSH0 PUSH0 PUSH1 0x40 DUP4 DUP6 SUB SLT ISZERO PUSH2 0x2AB5 JUMPI PUSH2 0x2AB4 PUSH2 0x2874 JUMP JUMPDEST JUMPDEST PUSH0 PUSH2 0x2AC2 DUP6 DUP3 DUP7 ADD PUSH2 0x2A8B JUMP JUMPDEST SWAP3 POP POP PUSH1 0x20 PUSH2 0x2AD3 DUP6 DUP3 DUP7 ADD PUSH2 0x29DE JUMP JUMPDEST SWAP2 POP POP SWAP3 POP SWAP3 SWAP1 POP JUMP JUMPDEST PUSH0 PUSH0 PUSH0 PUSH1 0x60 DUP5 DUP7 SUB SLT ISZERO PUSH2 0x2AF4 JUMPI PUSH2 0x2AF3 PUSH2 0x2874 JUMP JUMPDEST JUMPDEST PUSH0 PUSH2 0x2B01 DUP7 DUP3 DUP8 ADD PUSH2 0x2A8B JUMP JUMPDEST SWAP4 POP POP PUSH1 0x20 PUSH2 0x2B12 DUP7 DUP3 DUP8 ADD PUSH2 0x2A8B JUMP JUMPDEST SWAP3 POP POP PUSH1 0x40 PUSH2 0x2B23 DUP7 DUP3 DUP8 ADD PUSH2 0x29DE JUMP JUMPDEST SWAP2 POP POP SWAP3 POP SWAP3 POP SWAP3 JUMP JUMPDEST PUSH0 PUSH0 REVERT JUMPDEST PUSH32 0x4E487B7100000000000000000000000000000000000000000000000000000000 PUSH0 MSTORE PUSH1 0x41 PUSH1 0x4 MSTORE PUSH1 0x24 PUSH0 REVERT JUMPDEST PUSH2 0x2B67 DUP3 PUSH2 0x2957 JUMP JUMPDEST DUP2 ADD DUP2 DUP2 LT PUSH8 0xFFFFFFFFFFFFFFFF DUP3 GT OR ISZERO PUSH2 0x2B86 JUMPI PUSH2 0x2B85 PUSH2 0x2B31 JUMP JUMPDEST JUMPDEST DUP1 PUSH1 0x40 MSTORE POP POP POP JUMP JUMPDEST PUSH0 PUSH2 0x2B98 PUSH2 0x286B JUMP JUMPDEST SWAP1 POP PUSH2 0x2BA4 DUP3 DUP3 PUSH2 0x2B5E JUMP JUMPDEST SWAP2 SWAP1 POP JUMP JUMPDEST PUSH0 PUSH0 REVERT JUMPDEST PUSH0 PUSH0 REVERT JUMPDEST PUSH0 PUSH0 REVERT JUMPDEST PUSH0 PUSH8 0xFFFFFFFFFFFFFFFF DUP3 GT ISZERO PUSH2 0x2BCF JUMPI PUSH2 0x2BCE PUSH2 0x2B31 JUMP JUMPDEST JUMPDEST PUSH2 0x2BD8 DUP3 PUSH2 0x2957 JUMP JUMPDEST SWAP1 POP PUSH1 0x20 DUP2 ADD SWAP1 POP SWAP2 SWAP1 POP JUMP JUMPDEST DUP3 DUP2 DUP4 CALLDATACOPY PUSH0 DUP4 DUP4 ADD MSTORE POP POP POP JUMP JUMPDEST PUSH0 PUSH2 0x2C05 PUSH2 0x2C00 DUP5 PUSH2 0x2BB5 JUMP JUMPDEST PUSH2 0x2B8F JUMP JUMPDEST SWAP1 POP DUP3 DUP2 MSTORE PUSH1 0x20 DUP2 ADD DUP5 DUP5 DUP5 ADD GT ISZERO PUSH2 0x2C21 JUMPI PUSH2 0x2C20 PUSH2 0x2BB1 JUMP JUMPDEST JUMPDEST PUSH2 0x2C2C DUP5 DUP3 DUP6 PUSH2 0x2BE5 JUMP JUMPDEST POP SWAP4 SWAP3 POP POP POP JUMP JUMPDEST PUSH0 DUP3 PUSH1 0x1F DUP4 ADD SLT PUSH2 0x2C48 JUMPI PUSH2 0x2C47 PUSH2 0x2BAD JUMP JUMPDEST JUMPDEST DUP2 CALLDATALOAD PUSH2 0x2C58 DUP5 DUP3 PUSH1 0x20 DUP7 ADD PUSH2 0x2BF3 JUMP JUMPDEST SWAP2 POP POP SWAP3 SWAP2 POP POP JUMP JUMPDEST PUSH0 PUSH1 0x80 DUP3 DUP5 SUB SLT ISZERO PUSH2 0x2C76 JUMPI PUSH2 0x2C75 PUSH2 0x2B2D JUMP JUMPDEST JUMPDEST PUSH2 0x2C80 PUSH1 0x80 PUSH2 0x2B8F JUMP JUMPDEST SWAP1 POP PUSH0 DUP3 ADD CALLDATALOAD PUSH8 0xFFFFFFFFFFFFFFFF DUP2 GT ISZERO PUSH2 0x2C9F JUMPI PUSH2 0x2C9E PUSH2 0x2BA9 JUMP JUMPDEST JUMPDEST PUSH2 0x2CAB DUP5 DUP3 DUP6 ADD PUSH2 0x2C34 JUMP JUMPDEST PUSH0 DUP4 ADD MSTORE POP PUSH1 0x20 DUP3 ADD CALLDATALOAD PUSH8 0xFFFFFFFFFFFFFFFF DUP2 GT ISZERO PUSH2 0x2CCE JUMPI PUSH2 0x2CCD PUSH2 0x2BA9 JUMP JUMPDEST JUMPDEST PUSH2 0x2CDA DUP5 DUP3 DUP6 ADD PUSH2 0x2C34 JUMP JUMPDEST PUSH1 0x20 DUP4 ADD MSTORE POP PUSH1 0x40 PUSH2 0x2CEE DUP5 DUP3 DUP6 ADD PUSH2 0x29DE JUMP JUMPDEST PUSH1 0x40 DUP4 ADD MSTORE POP PUSH1 0x60 PUSH2 0x2D02 DUP5 DUP3 DUP6 ADD PUSH2 0x2A8B JUMP JUMPDEST PUSH1 0x60 DUP4 ADD MSTORE POP SWAP3 SWAP2 POP POP JUMP JUMPDEST PUSH0 PUSH1 0x20 DUP3 DUP5 SUB SLT ISZERO PUSH2 0x2D23 JUMPI PUSH2 0x2D22 PUSH2 0x2874 JUMP JUMPDEST JUMPDEST PUSH0 DUP3 ADD CALLDATALOAD PUSH8 0xFFFFFFFFFFFFFFFF DUP2 GT ISZERO PUSH2 0x2D40 JUMPI PUSH2 0x2D3F PUSH2 0x2878 JUMP JUMPDEST JUMPDEST PUSH2 0x2D4C DUP5 DUP3 DUP6 ADD PUSH2 0x2C61 JUMP JUMPDEST SWAP2 POP POP SWAP3 SWAP2 POP POP JUMP JUMPDEST PUSH0 PUSH1 0x20 DUP3 DUP5 SUB SLT ISZERO PUSH2 0x2D6A JUMPI PUSH2 0x2D69 PUSH2 0x2874 JUMP JUMPDEST JUMPDEST PUSH0 PUSH2 0x2D77 DUP5 DUP3 DUP6 ADD PUSH2 0x2A8B JUMP JUMPDEST SWAP2 POP POP SWAP3 SWAP2 POP POP JUMP JUMPDEST PUSH2 0x2D89 DUP2 PUSH2 0x29BF JUMP JUMPDEST DUP3 MSTORE POP POP JUMP JUMPDEST PUSH0 PUSH1 0x20 DUP3 ADD SWAP1 POP PUSH2 0x2DA2 PUSH0 DUP4 ADD DUP5 PUSH2 0x2D80 JUMP JUMPDEST SWAP3 SWAP2 POP POP JUMP JUMPDEST PUSH2 0x2DB1 DUP2 PUSH2 0x28FC JUMP JUMPDEST DUP2 EQ PUSH2 0x2DBB JUMPI PUSH0 PUSH0 REVERT JUMPDEST POP JUMP JUMPDEST PUSH0 DUP2 CALLDATALOAD SWAP1 POP PUSH2 0x2DCC DUP2 PUSH2 0x2DA8 JUMP JUMPDEST SWAP3 SWAP2 POP POP JUMP JUMPDEST PUSH0 PUSH0 PUSH1 0x40 DUP4 DUP6 SUB SLT ISZERO PUSH2 0x2DE8 JUMPI PUSH2 0x2DE7 PUSH2 0x2874 JUMP JUMPDEST JUMPDEST PUSH0 PUSH2 0x2DF5 DUP6 DUP3 DUP7 ADD PUSH2 0x2A8B JUMP JUMPDEST SWAP3 POP POP PUSH1 0x20 PUSH2 0x2E06 DUP6 DUP3 DUP7 ADD PUSH2 0x2DBE JUMP JUMPDEST SWAP2 POP POP SWAP3 POP SWAP3 SWAP1 POP JUMP JUMPDEST PUSH0 PUSH8 0xFFFFFFFFFFFFFFFF DUP3 GT ISZERO PUSH2 0x2E2A JUMPI PUSH2 0x2E29 PUSH2 0x2B31 JUMP JUMPDEST JUMPDEST PUSH2 0x2E33 DUP3 PUSH2 0x2957 JUMP JUMPDEST SWAP1 POP PUSH1 0x20 DUP2 ADD SWAP1 POP SWAP2 SWAP1 POP JUMP JUMPDEST PUSH0 PUSH2 0x2E52 PUSH2 0x2E4D DUP5 PUSH2 0x2E10 JUMP JUMPDEST PUSH2 0x2B8F JUMP JUMPDEST SWAP1 POP DUP3 DUP2 MSTORE PUSH1 0x20 DUP2 ADD DUP5 DUP5 DUP5 ADD GT ISZERO PUSH2 0x2E6E JUMPI PUSH2 0x2E6D PUSH2 0x2BB1 JUMP JUMPDEST JUMPDEST PUSH2 0x2E79 DUP5 DUP3 DUP6 PUSH2 0x2BE5 JUMP JUMPDEST POP SWAP4 SWAP3 POP POP POP JUMP JUMPDEST PUSH0 DUP3 PUSH1 0x1F DUP4 ADD SLT PUSH2 0x2E95 JUMPI PUSH2 0x2E94 PUSH2 0x2BAD JUMP JUMPDEST JUMPDEST DUP2 CALLDATALOAD PUSH2 0x2EA5 DUP5 DUP3 PUSH1 0x20 DUP7 ADD PUSH2 0x2E40 JUMP JUMPDEST SWAP2 POP POP SWAP3 SWAP2 POP POP JUMP JUMPDEST PUSH0 PUSH0 PUSH0 PUSH0 PUSH1 0x80 DUP6 DUP8 SUB SLT ISZERO PUSH2 0x2EC6 JUMPI PUSH2 0x2EC5 PUSH2 0x2874 JUMP JUMPDEST JUMPDEST PUSH0 PUSH2 0x2ED3 DUP8 DUP3 DUP9 ADD PUSH2 0x2A8B JUMP JUMPDEST SWAP5 POP POP PUSH1 0x20 PUSH2 0x2EE4 DUP8 DUP3 DUP9 ADD PUSH2 0x2A8B JUMP JUMPDEST SWAP4 POP POP PUSH1 0x40 PUSH2 0x2EF5 DUP8 DUP3 DUP9 ADD PUSH2 0x29DE JUMP JUMPDEST SWAP3 POP POP PUSH1 0x60 DUP6 ADD CALLDATALOAD PUSH8 0xFFFFFFFFFFFFFFFF DUP2 GT ISZERO PUSH2 0x2F16 JUMPI PUSH2 0x2F15 PUSH2 0x2878 JUMP JUMPDEST JUMPDEST PUSH2 0x2F22 DUP8 DUP3 DUP9 ADD PUSH2 0x2E81 JUMP JUMPDEST SWAP2 POP POP SWAP3 SWAP6 SWAP2 SWAP5 POP SWAP3 POP JUMP JUMPDEST PUSH0 PUSH0 PUSH1 0x40 DUP4 DUP6 SUB SLT ISZERO PUSH2 0x2F44 JUMPI PUSH2 0x2F43 PUSH2 0x2874 JUMP JUMPDEST JUMPDEST PUSH0 DUP4 ADD CALLDATALOAD PUSH8 0xFFFFFFFFFFFFFFFF DUP2 GT ISZERO PUSH2 0x2F61 JUMPI PUSH2 0x2F60 PUSH2 0x2878 JUMP JUMPDEST JUMPDEST PUSH2 0x2F6D DUP6 DUP3 DUP7 ADD PUSH2 0x2C34 JUMP JUMPDEST SWAP3 POP POP PUSH1 0x20 DUP4 ADD CALLDATALOAD PUSH8 0xFFFFFFFFFFFFFFFF DUP2 GT ISZERO PUSH2 0x2F8E JUMPI PUSH2 0x2F8D PUSH2 0x2878 JUMP JUMPDEST JUMPDEST PUSH2 0x2F9A DUP6 DUP3 DUP7 ADD PUSH2 0x2C34 JUMP JUMPDEST SWAP2 POP POP SWAP3 POP SWAP3 SWAP1 POP JUMP JUMPDEST PUSH0 PUSH1 0x80 DUP3 ADD SWAP1 POP DUP2 DUP2 SUB PUSH0 DUP4 ADD MSTORE PUSH2 0x2FBC DUP2 DUP8 PUSH2 0x2967 JUMP JUMPDEST SWAP1 POP DUP2 DUP2 SUB PUSH1 0x20 DUP4 ADD MSTORE PUSH2 0x2FD0 DUP2 DUP7 PUSH2 0x2967 JUMP JUMPDEST SWAP1 POP PUSH2 0x2FDF PUSH1 0x40 DUP4 ADD DUP6 PUSH2 0x2D80 JUMP JUMPDEST PUSH2 0x2FEC PUSH1 0x60 DUP4 ADD DUP5 PUSH2 0x2A4D JUMP JUMPDEST SWAP6 SWAP5 POP POP POP POP POP JUMP JUMPDEST PUSH0 PUSH0 PUSH1 0x40 DUP4 DUP6 SUB SLT ISZERO PUSH2 0x300B JUMPI PUSH2 0x300A PUSH2 0x2874 JUMP JUMPDEST JUMPDEST PUSH0 PUSH2 0x3018 DUP6 DUP3 DUP7 ADD PUSH2 0x2A8B JUMP JUMPDEST SWAP3 POP POP PUSH1 0x20 PUSH2 0x3029 DUP6 DUP3 DUP7 ADD PUSH2 0x2A8B JUMP JUMPDEST SWAP2 POP POP SWAP3 POP SWAP3 SWAP1 POP JUMP JUMPDEST PUSH32 0x4E487B7100000000000000000000000000000000000000000000000000000000 PUSH0 MSTORE PUSH1 0x22 PUSH1 0x4 MSTORE PUSH1 0x24 PUSH0 REVERT JUMPDEST PUSH0 PUSH1 0x2 DUP3 DIV SWAP1 POP PUSH1 0x1 DUP3 AND DUP1 PUSH2 0x3077 JUMPI PUSH1 0x7F DUP3 AND SWAP2 POP JUMPDEST PUSH1 0x20 DUP3 LT DUP2 SUB PUSH2 0x308A JUMPI PUSH2 0x3089 PUSH2 0x3033 JUMP JUMPDEST JUMPDEST POP SWAP2 SWAP1 POP JUMP JUMPDEST PUSH0 PUSH1 0x60 DUP3 ADD SWAP1 POP PUSH2 0x30A3 PUSH0 DUP4 ADD DUP7 PUSH2 0x2A4D JUMP JUMPDEST PUSH2 0x30B0 PUSH1 0x20 DUP4 ADD DUP6 PUSH2 0x2D80 JUMP JUMPDEST PUSH2 0x30BD PUSH1 0x40 DUP4 ADD DUP5 PUSH2 0x2A4D JUMP JUMPDEST SWAP5 SWAP4 POP POP POP POP JUMP JUMPDEST PUSH0 DUP2 SWAP1 POP SWAP3 SWAP2 POP POP JUMP JUMPDEST PUSH32 0x3C7376672077696474683D2235303022206865696768743D223530302220786D PUSH0 DUP3 ADD MSTORE PUSH32 0x6C6E733D22687474703A2F2F7777772E77332E6F72672F323030302F73766722 PUSH1 0x20 DUP3 ADD MSTORE PUSH32 0x3E00000000000000000000000000000000000000000000000000000000000000 PUSH1 0x40 DUP3 ADD MSTORE POP JUMP JUMPDEST PUSH0 PUSH2 0x314F PUSH1 0x41 DUP4 PUSH2 0x30C5 JUMP JUMPDEST SWAP2 POP PUSH2 0x315A DUP3 PUSH2 0x30CF JUMP JUMPDEST PUSH1 0x41 DUP3 ADD SWAP1 POP SWAP2 SWAP1 POP JUMP JUMPDEST PUSH32 0x3C646566733E0000000000000000000000000000000000000000000000000000 PUSH0 DUP3 ADD MSTORE POP JUMP JUMPDEST PUSH0 PUSH2 0x3199 PUSH1 0x6 DUP4 PUSH2 0x30C5 JUMP JUMPDEST SWAP2 POP PUSH2 0x31A4 DUP3 PUSH2 0x3165 JUMP JUMPDEST PUSH1 0x6 DUP3 ADD SWAP1 POP SWAP2 SWAP1 POP JUMP JUMPDEST PUSH32 0x3C6C696E6561724772616469656E742069643D2267726164222078313D223025 PUSH0 DUP3 ADD MSTORE PUSH32 0x222079313D223025222078323D2231303025222079323D2231303025223E0000 PUSH1 0x20 DUP3 ADD MSTORE POP JUMP JUMPDEST PUSH0 PUSH2 0x3209 PUSH1 0x3E DUP4 PUSH2 0x30C5 JUMP JUMPDEST SWAP2 POP PUSH2 0x3214 DUP3 PUSH2 0x31AF JUMP JUMPDEST PUSH1 0x3E DUP3 ADD SWAP1 POP SWAP2 SWAP1 POP JUMP JUMPDEST PUSH32 0x3C73746F70206F66667365743D22302522207374796C653D2273746F702D636F PUSH0 DUP3 ADD MSTORE PUSH32 0x6C6F723A236632356430303B73746F702D6F7061636974793A3122202F3E0000 PUSH1 0x20 DUP3 ADD MSTORE POP JUMP JUMPDEST PUSH0 PUSH2 0x3279 PUSH1 0x3E DUP4 PUSH2 0x30C5 JUMP JUMPDEST SWAP2 POP PUSH2 0x3284 DUP3 PUSH2 0x321F JUMP JUMPDEST PUSH1 0x3E DUP3 ADD SWAP1 POP SWAP2 SWAP1 POP JUMP JUMPDEST PUSH32 0x3C73746F70206F66667365743D223130302522207374796C653D2273746F702D PUSH0 DUP3 ADD MSTORE PUSH32 0x636F6C6F723A236330323664333B73746F702D6F7061636974793A3122202F3E PUSH1 0x20 DUP3 ADD MSTORE POP JUMP JUMPDEST PUSH0 PUSH2 0x32E9 PUSH1 0x40 DUP4 PUSH2 0x30C5 JUMP JUMPDEST SWAP2 POP PUSH2 0x32F4 DUP3 PUSH2 0x328F JUMP JUMPDEST PUSH1 0x40 DUP3 ADD SWAP1 POP SWAP2 SWAP1 POP JUMP JUMPDEST PUSH32 0x3C2F6C696E6561724772616469656E743E000000000000000000000000000000 PUSH0 DUP3 ADD MSTORE POP JUMP JUMPDEST PUSH0 PUSH2 0x3333 PUSH1 0x11 DUP4 PUSH2 0x30C5 JUMP JUMPDEST SWAP2 POP PUSH2 0x333E DUP3 PUSH2 0x32FF JUMP JUMPDEST PUSH1 0x11 DUP3 ADD SWAP1 POP SWAP2 SWAP1 POP JUMP JUMPDEST PUSH32 0x3C2F646566733E00000000000000000000000000000000000000000000000000 PUSH0 DUP3 ADD MSTORE POP JUMP JUMPDEST PUSH0 PUSH2 0x337D PUSH1 0x7 DUP4 PUSH2 0x30C5 JUMP JUMPDEST SWAP2 POP PUSH2 0x3388 DUP3 PUSH2 0x3349 JUMP JUMPDEST PUSH1 0x7 DUP3 ADD SWAP1 POP SWAP2 SWAP1 POP JUMP JUMPDEST PUSH32 0x3C212D2D20546865206F757465722072656374616E676C652074686174206163 PUSH0 DUP3 ADD MSTORE PUSH32 0x747320617320746865206772616469656E7420626F72646572202D2D3E000000 PUSH1 0x20 DUP3 ADD MSTORE POP JUMP JUMPDEST PUSH0 PUSH2 0x33ED PUSH1 0x3D DUP4 PUSH2 0x30C5 JUMP JUMPDEST SWAP2 POP PUSH2 0x33F8 DUP3 PUSH2 0x3393 JUMP JUMPDEST PUSH1 0x3D DUP3 ADD SWAP1 POP SWAP2 SWAP1 POP JUMP JUMPDEST PUSH32 0x3C726563742077696474683D223130302522206865696768743D223130302522 PUSH0 DUP3 ADD MSTORE PUSH32 0x2072783D223230222072793D223230222066696C6C3D2275726C282367726164 PUSH1 0x20 DUP3 ADD MSTORE PUSH32 0x29222F3E00000000000000000000000000000000000000000000000000000000 PUSH1 0x40 DUP3 ADD MSTORE POP JUMP JUMPDEST PUSH0 PUSH2 0x3483 PUSH1 0x44 DUP4 PUSH2 0x30C5 JUMP JUMPDEST SWAP2 POP PUSH2 0x348E DUP3 PUSH2 0x3403 JUMP JUMPDEST PUSH1 0x44 DUP3 ADD SWAP1 POP SWAP2 SWAP1 POP JUMP JUMPDEST PUSH32 0x3C212D2D2054686520696E6E65722C206D61696E2072656374616E676C652077 PUSH0 DUP3 ADD MSTORE PUSH32 0x697468206120736F6C696420636F6C6F72202D2D3E0000000000000000000000 PUSH1 0x20 DUP3 ADD MSTORE POP JUMP JUMPDEST PUSH0 PUSH2 0x34F3 PUSH1 0x35 DUP4 PUSH2 0x30C5 JUMP JUMPDEST SWAP2 POP PUSH2 0x34FE DUP3 PUSH2 0x3499 JUMP JUMPDEST PUSH1 0x35 DUP3 ADD SWAP1 POP SWAP2 SWAP1 POP JUMP JUMPDEST PUSH32 0x3C7265637420783D22382220793D2238222077696474683D2234383422206865 PUSH0 DUP3 ADD MSTORE PUSH32 0x696768743D22343834222072783D223135222072793D223135222066696C6C3D PUSH1 0x20 DUP3 ADD MSTORE PUSH32 0x2223663235643030222F3E000000000000000000000000000000000000000000 PUSH1 0x40 DUP3 ADD MSTORE POP JUMP JUMPDEST PUSH0 PUSH2 0x3589 PUSH1 0x4B DUP4 PUSH2 0x30C5 JUMP JUMPDEST SWAP2 POP PUSH2 0x3594 DUP3 PUSH2 0x3509 JUMP JUMPDEST PUSH1 0x4B DUP3 ADD SWAP1 POP SWAP2 SWAP1 POP JUMP JUMPDEST PUSH32 0x3C212D2D205468652072657374206F662074686520636F6E74656E7420697320 PUSH0 DUP3 ADD MSTORE PUSH32 0x647261776E206F6E20746F70202D2D3E00000000000000000000000000000000 PUSH1 0x20 DUP3 ADD MSTORE POP JUMP JUMPDEST PUSH0 PUSH2 0x35F9 PUSH1 0x30 DUP4 PUSH2 0x30C5 JUMP JUMPDEST SWAP2 POP PUSH2 0x3604 DUP3 PUSH2 0x359F JUMP JUMPDEST PUSH1 0x30 DUP3 ADD SWAP1 POP SWAP2 SWAP1 POP JUMP JUMPDEST PUSH32 0x3C7465787420783D223435302220793D2239302220666F6E742D66616D696C79 PUSH0 DUP3 ADD MSTORE PUSH32 0x3D2273616E732D73657269662220666F6E742D73697A653D2237302220746578 PUSH1 0x20 DUP3 ADD MSTORE PUSH32 0x742D616E63686F723D22656E64222066696C6C3D227768697465223E00000000 PUSH1 0x40 DUP3 ADD MSTORE POP JUMP JUMPDEST PUSH0 PUSH2 0x368F PUSH1 0x5C DUP4 PUSH2 0x30C5 JUMP JUMPDEST SWAP2 POP PUSH2 0x369A DUP3 PUSH2 0x360F JUMP JUMPDEST PUSH1 0x5C DUP3 ADD SWAP1 POP SWAP2 SWAP1 POP JUMP JUMPDEST PUSH0 PUSH2 0x36AF DUP3 PUSH2 0x292F JUMP JUMPDEST PUSH2 0x36B9 DUP2 DUP6 PUSH2 0x30C5 JUMP JUMPDEST SWAP4 POP PUSH2 0x36C9 DUP2 DUP6 PUSH1 0x20 DUP7 ADD PUSH2 0x2949 JUMP JUMPDEST DUP1 DUP5 ADD SWAP2 POP POP SWAP3 SWAP2 POP POP JUMP JUMPDEST PUSH32 0x3C2F746578743E00000000000000000000000000000000000000000000000000 PUSH0 DUP3 ADD MSTORE POP JUMP JUMPDEST PUSH0 PUSH2 0x3709 PUSH1 0x7 DUP4 PUSH2 0x30C5 JUMP JUMPDEST SWAP2 POP PUSH2 0x3714 DUP3 PUSH2 0x36D5 JUMP JUMPDEST PUSH1 0x7 DUP3 ADD SWAP1 POP SWAP2 SWAP1 POP JUMP JUMPDEST PUSH32 0x3C7465787420783D2235302220793D2237352220666F6E742D66616D696C793D PUSH0 DUP3 ADD MSTORE PUSH32 0x226D6F6E6F73706163652220666F6E742D73697A653D223230222066696C6C3D PUSH1 0x20 DUP3 ADD MSTORE PUSH32 0x227768697465222066696C6C2D6F7061636974793D22302E38223E54696D6573 PUSH1 0x40 DUP3 ADD MSTORE PUSH32 0x74616D703A200000000000000000000000000000000000000000000000000000 PUSH1 0x60 DUP3 ADD MSTORE POP JUMP JUMPDEST PUSH0 PUSH2 0x37C5 PUSH1 0x66 DUP4 PUSH2 0x30C5 JUMP JUMPDEST SWAP2 POP PUSH2 0x37D0 DUP3 PUSH2 0x371F JUMP JUMPDEST PUSH1 0x66 DUP3 ADD SWAP1 POP SWAP2 SWAP1 POP JUMP JUMPDEST PUSH32 0x3C666F726569676E4F626A65637420783D2235302220793D2231323022207769 PUSH0 DUP3 ADD MSTORE PUSH32 0x6474683D2234303022206865696768743D22323830223E000000000000000000 PUSH1 0x20 DUP3 ADD MSTORE POP JUMP JUMPDEST PUSH0 PUSH2 0x3835 PUSH1 0x37 DUP4 PUSH2 0x30C5 JUMP JUMPDEST SWAP2 POP PUSH2 0x3840 DUP3 PUSH2 0x37DB JUMP JUMPDEST PUSH1 0x37 DUP3 ADD SWAP1 POP SWAP2 SWAP1 POP JUMP JUMPDEST PUSH32 0x3C64697620786D6C6E733D22687474703A2F2F7777772E77332E6F72672F3139 PUSH0 DUP3 ADD MSTORE PUSH32 0x39392F7868746D6C22207374796C653D22636F6C6F723A2077686974653B2066 PUSH1 0x20 DUP3 ADD MSTORE PUSH32 0x6F6E742D66616D696C793A2073616E732D73657269663B20666F6E742D73697A PUSH1 0x40 DUP3 ADD MSTORE PUSH32 0x653A20323270783B20776F72642D777261703A20627265616B2D776F72643B20 PUSH1 0x60 DUP3 ADD MSTORE PUSH32 0x6C696E652D6865696768743A20312E353B223E00000000000000000000000000 PUSH1 0x80 DUP3 ADD MSTORE POP JUMP JUMPDEST PUSH0 PUSH2 0x3917 PUSH1 0x93 DUP4 PUSH2 0x30C5 JUMP JUMPDEST SWAP2 POP PUSH2 0x3922 DUP3 PUSH2 0x384B JUMP JUMPDEST PUSH1 0x93 DUP3 ADD SWAP1 POP SWAP2 SWAP1 POP JUMP JUMPDEST PUSH32 0x3C2F6469763E0000000000000000000000000000000000000000000000000000 PUSH0 DUP3 ADD MSTORE POP JUMP JUMPDEST PUSH0 PUSH2 0x3961 PUSH1 0x6 DUP4 PUSH2 0x30C5 JUMP JUMPDEST SWAP2 POP PUSH2 0x396C DUP3 PUSH2 0x392D JUMP JUMPDEST PUSH1 0x6 DUP3 ADD SWAP1 POP SWAP2 SWAP1 POP JUMP JUMPDEST PUSH32 0x3C2F666F726569676E4F626A6563743E00000000000000000000000000000000 PUSH0 DUP3 ADD MSTORE POP JUMP JUMPDEST PUSH0 PUSH2 0x39AB PUSH1 0x10 DUP4 PUSH2 0x30C5 JUMP JUMPDEST SWAP2 POP PUSH2 0x39B6 DUP3 PUSH2 0x3977 JUMP JUMPDEST PUSH1 0x10 DUP3 ADD SWAP1 POP SWAP2 SWAP1 POP JUMP JUMPDEST PUSH32 0x3C7465787420783D2235302220793D223435302220666F6E742D66616D696C79 PUSH0 DUP3 ADD MSTORE PUSH32 0x3D226D6F6E6F73706163652220666F6E742D73697A653D223136222066696C6C PUSH1 0x20 DUP3 ADD MSTORE PUSH32 0x3D227768697465222066696C6C2D6F7061636974793D22302E35223E4F6E2D43 PUSH1 0x40 DUP3 ADD MSTORE PUSH32 0x6861696E204A6F75726E616C3C2F746578743E00000000000000000000000000 PUSH1 0x60 DUP3 ADD MSTORE POP JUMP JUMPDEST PUSH0 PUSH2 0x3A67 PUSH1 0x73 DUP4 PUSH2 0x30C5 JUMP JUMPDEST SWAP2 POP PUSH2 0x3A72 DUP3 PUSH2 0x39C1 JUMP JUMPDEST PUSH1 0x73 DUP3 ADD SWAP1 POP SWAP2 SWAP1 POP JUMP JUMPDEST PUSH32 0x3C2F7376673E0000000000000000000000000000000000000000000000000000 PUSH0 DUP3 ADD MSTORE POP JUMP JUMPDEST PUSH0 PUSH2 0x3AB1 PUSH1 0x6 DUP4 PUSH2 0x30C5 JUMP JUMPDEST SWAP2 POP PUSH2 0x3ABC DUP3 PUSH2 0x3A7D JUMP JUMPDEST PUSH1 0x6 DUP3 ADD SWAP1 POP SWAP2 SWAP1 POP JUMP JUMPDEST PUSH0 PUSH2 0x3AD1 DUP3 PUSH2 0x3143 JUMP JUMPDEST SWAP2 POP PUSH2 0x3ADC DUP3 PUSH2 0x318D JUMP JUMPDEST SWAP2 POP PUSH2 0x3AE7 DUP3 PUSH2 0x31FD JUMP JUMPDEST SWAP2 POP PUSH2 0x3AF2 DUP3 PUSH2 0x326D JUMP JUMPDEST SWAP2 POP PUSH2 0x3AFD DUP3 PUSH2 0x32DD JUMP JUMPDEST SWAP2 POP PUSH2 0x3B08 DUP3 PUSH2 0x3327 JUMP JUMPDEST SWAP2 POP PUSH2 0x3B13 DUP3 PUSH2 0x3371 JUMP JUMPDEST SWAP2 POP PUSH2 0x3B1E DUP3 PUSH2 0x33E1 JUMP JUMPDEST SWAP2 POP PUSH2 0x3B29 DUP3 PUSH2 0x3477 JUMP JUMPDEST SWAP2 POP PUSH2 0x3B34 DUP3 PUSH2 0x34E7 JUMP JUMPDEST SWAP2 POP PUSH2 0x3B3F DUP3 PUSH2 0x357D JUMP JUMPDEST SWAP2 POP PUSH2 0x3B4A DUP3 PUSH2 0x35ED JUMP JUMPDEST SWAP2 POP PUSH2 0x3B55 DUP3 PUSH2 0x3683 JUMP JUMPDEST SWAP2 POP PUSH2 0x3B61 DUP3 DUP7 PUSH2 0x36A5 JUMP JUMPDEST SWAP2 POP PUSH2 0x3B6C DUP3 PUSH2 0x36FD JUMP JUMPDEST SWAP2 POP PUSH2 0x3B77 DUP3 PUSH2 0x37B9 JUMP JUMPDEST SWAP2 POP PUSH2 0x3B83 DUP3 DUP6 PUSH2 0x36A5 JUMP JUMPDEST SWAP2 POP PUSH2 0x3B8E DUP3 PUSH2 0x36FD JUMP JUMPDEST SWAP2 POP PUSH2 0x3B99 DUP3 PUSH2 0x3829 JUMP JUMPDEST SWAP2 POP PUSH2 0x3BA4 DUP3 PUSH2 0x390B JUMP JUMPDEST SWAP2 POP PUSH2 0x3BB0 DUP3 DUP5 PUSH2 0x36A5 JUMP JUMPDEST SWAP2 POP PUSH2 0x3BBB DUP3 PUSH2 0x3955 JUMP JUMPDEST SWAP2 POP PUSH2 0x3BC6 DUP3 PUSH2 0x399F JUMP JUMPDEST SWAP2 POP PUSH2 0x3BD1 DUP3 PUSH2 0x3A5B JUMP JUMPDEST SWAP2 POP PUSH2 0x3BDC DUP3 PUSH2 0x3AA5 JUMP JUMPDEST SWAP2 POP DUP2 SWAP1 POP SWAP5 SWAP4 POP POP POP POP JUMP JUMPDEST PUSH32 0x55524920717565727920666F72206E6F6E6578697374656E7420746F6B656E00 PUSH0 DUP3 ADD MSTORE POP JUMP JUMPDEST PUSH0 PUSH2 0x3C1D PUSH1 0x1F DUP4 PUSH2 0x2939 JUMP JUMPDEST SWAP2 POP PUSH2 0x3C28 DUP3 PUSH2 0x3BE9 JUMP JUMPDEST PUSH1 0x20 DUP3 ADD SWAP1 POP SWAP2 SWAP1 POP JUMP JUMPDEST PUSH0 PUSH1 0x20 DUP3 ADD SWAP1 POP DUP2 DUP2 SUB PUSH0 DUP4 ADD MSTORE PUSH2 0x3C4A DUP2 PUSH2 0x3C11 JUMP JUMPDEST SWAP1 POP SWAP2 SWAP1 POP JUMP JUMPDEST PUSH32 0x4120706572736F6E616C206A6F75726E616C20656E747279206D696E74656420 PUSH0 DUP3 ADD MSTORE PUSH32 0x61742074696D657374616D702000000000000000000000000000000000000000 PUSH1 0x20 DUP3 ADD MSTORE POP JUMP JUMPDEST PUSH0 PUSH2 0x3CAB PUSH1 0x2D DUP4 PUSH2 0x30C5 JUMP JUMPDEST SWAP2 POP PUSH2 0x3CB6 DUP3 PUSH2 0x3C51 JUMP JUMPDEST PUSH1 0x2D DUP3 ADD SWAP1 POP SWAP2 SWAP1 POP JUMP JUMPDEST PUSH32 0x2E00000000000000000000000000000000000000000000000000000000000000 PUSH0 DUP3 ADD MSTORE POP JUMP JUMPDEST PUSH0 PUSH2 0x3CF5 PUSH1 0x1 DUP4 PUSH2 0x30C5 JUMP JUMPDEST SWAP2 POP PUSH2 0x3D00 DUP3 PUSH2 0x3CC1 JUMP JUMPDEST PUSH1 0x1 DUP3 ADD SWAP1 POP SWAP2 SWAP1 POP JUMP JUMPDEST PUSH0 PUSH2 0x3D15 DUP3 PUSH2 0x3C9F JUMP JUMPDEST SWAP2 POP PUSH2 0x3D21 DUP3 DUP5 PUSH2 0x36A5 JUMP JUMPDEST SWAP2 POP PUSH2 0x3D2C DUP3 PUSH2 0x3CE9 JUMP JUMPDEST SWAP2 POP DUP2 SWAP1 POP SWAP3 SWAP2 POP POP JUMP JUMPDEST PUSH32 0x7B226E616D65223A20224A6F75726E616C20456E747279202300000000000000 PUSH0 DUP3 ADD MSTORE POP JUMP JUMPDEST PUSH0 PUSH2 0x3D6B PUSH1 0x19 DUP4 PUSH2 0x30C5 JUMP JUMPDEST SWAP2 POP PUSH2 0x3D76 DUP3 PUSH2 0x3D37 JUMP JUMPDEST PUSH1 0x19 DUP3 ADD SWAP1 POP SWAP2 SWAP1 POP JUMP JUMPDEST PUSH32 0x222C000000000000000000000000000000000000000000000000000000000000 PUSH0 DUP3 ADD MSTORE POP JUMP JUMPDEST PUSH0 PUSH2 0x3DB5 PUSH1 0x2 DUP4 PUSH2 0x30C5 JUMP JUMPDEST SWAP2 POP PUSH2 0x3DC0 DUP3 PUSH2 0x3D81 JUMP JUMPDEST PUSH1 0x2 DUP3 ADD SWAP1 POP SWAP2 SWAP1 POP JUMP JUMPDEST PUSH32 0x226465736372697074696F6E223A202200000000000000000000000000000000 PUSH0 DUP3 ADD MSTORE POP JUMP JUMPDEST PUSH0 PUSH2 0x3DFF PUSH1 0x10 DUP4 PUSH2 0x30C5 JUMP JUMPDEST SWAP2 POP PUSH2 0x3E0A DUP3 PUSH2 0x3DCB JUMP JUMPDEST PUSH1 0x10 DUP3 ADD SWAP1 POP SWAP2 SWAP1 POP JUMP JUMPDEST PUSH32 0x2261747472696275746573223A205B0000000000000000000000000000000000 PUSH0 DUP3 ADD MSTORE POP JUMP JUMPDEST PUSH0 PUSH2 0x3E49 PUSH1 0xF DUP4 PUSH2 0x30C5 JUMP JUMPDEST SWAP2 POP PUSH2 0x3E54 DUP3 PUSH2 0x3E15 JUMP JUMPDEST PUSH1 0xF DUP3 ADD SWAP1 POP SWAP2 SWAP1 POP JUMP JUMPDEST PUSH32 0x7B2274726169745F74797065223A20224D6F6F64222C202276616C7565223A20 PUSH0 DUP3 ADD MSTORE PUSH32 0x2200000000000000000000000000000000000000000000000000000000000000 PUSH1 0x20 DUP3 ADD MSTORE POP JUMP JUMPDEST PUSH0 PUSH2 0x3EB9 PUSH1 0x21 DUP4 PUSH2 0x30C5 JUMP JUMPDEST SWAP2 POP PUSH2 0x3EC4 DUP3 PUSH2 0x3E5F JUMP JUMPDEST PUSH1 0x21 DUP3 ADD SWAP1 POP SWAP2 SWAP1 POP JUMP JUMPDEST PUSH32 0x227D2C0000000000000000000000000000000000000000000000000000000000 PUSH0 DUP3 ADD MSTORE POP JUMP JUMPDEST PUSH0 PUSH2 0x3F03 PUSH1 0x3 DUP4 PUSH2 0x30C5 JUMP JUMPDEST SWAP2 POP PUSH2 0x3F0E DUP3 PUSH2 0x3ECF JUMP JUMPDEST PUSH1 0x3 DUP3 ADD SWAP1 POP SWAP2 SWAP1 POP JUMP JUMPDEST PUSH32 0x7B2274726169745F74797065223A202254696D657374616D70222C202276616C PUSH0 DUP3 ADD MSTORE PUSH32 0x7565223A20220000000000000000000000000000000000000000000000000000 PUSH1 0x20 DUP3 ADD MSTORE POP JUMP JUMPDEST PUSH0 PUSH2 0x3F73 PUSH1 0x26 DUP4 PUSH2 0x30C5 JUMP JUMPDEST SWAP2 POP PUSH2 0x3F7E DUP3 PUSH2 0x3F19 JUMP JUMPDEST PUSH1 0x26 DUP3 ADD SWAP1 POP SWAP2 SWAP1 POP JUMP JUMPDEST PUSH32 0x7B2274726169745F74797065223A202254657874222C202276616C7565223A20 PUSH0 DUP3 ADD MSTORE PUSH32 0x2200000000000000000000000000000000000000000000000000000000000000 PUSH1 0x20 DUP3 ADD MSTORE POP JUMP JUMPDEST PUSH0 PUSH2 0x3FE3 PUSH1 0x21 DUP4 PUSH2 0x30C5 JUMP JUMPDEST SWAP2 POP PUSH2 0x3FEE DUP3 PUSH2 0x3F89 JUMP JUMPDEST PUSH1 0x21 DUP3 ADD SWAP1 POP SWAP2 SWAP1 POP JUMP JUMPDEST PUSH32 0x227D000000000000000000000000000000000000000000000000000000000000 PUSH0 DUP3 ADD MSTORE POP JUMP JUMPDEST PUSH0 PUSH2 0x402D PUSH1 0x2 DUP4 PUSH2 0x30C5 JUMP JUMPDEST SWAP2 POP PUSH2 0x4038 DUP3 PUSH2 0x3FF9 JUMP JUMPDEST PUSH1 0x2 DUP3 ADD SWAP1 POP SWAP2 SWAP1 POP JUMP JUMPDEST PUSH32 0x5D2C000000000000000000000000000000000000000000000000000000000000 PUSH0 DUP3 ADD MSTORE POP JUMP JUMPDEST PUSH0 PUSH2 0x4077 PUSH1 0x2 DUP4 PUSH2 0x30C5 JUMP JUMPDEST SWAP2 POP PUSH2 0x4082 DUP3 PUSH2 0x4043 JUMP JUMPDEST PUSH1 0x2 DUP3 ADD SWAP1 POP SWAP2 SWAP1 POP JUMP JUMPDEST PUSH32 0x22696D616765223A2022646174613A696D6167652F7376672B786D6C3B626173 PUSH0 DUP3 ADD MSTORE PUSH32 0x6536342C00000000000000000000000000000000000000000000000000000000 PUSH1 0x20 DUP3 ADD MSTORE POP JUMP JUMPDEST PUSH0 PUSH2 0x40E7 PUSH1 0x24 DUP4 PUSH2 0x30C5 JUMP JUMPDEST SWAP2 POP PUSH2 0x40F2 DUP3 PUSH2 0x408D JUMP JUMPDEST PUSH1 0x24 DUP3 ADD SWAP1 POP SWAP2 SWAP1 POP JUMP JUMPDEST PUSH32 0x2200000000000000000000000000000000000000000000000000000000000000 PUSH0 DUP3 ADD MSTORE POP JUMP JUMPDEST PUSH0 PUSH2 0x4131 PUSH1 0x1 DUP4 PUSH2 0x30C5 JUMP JUMPDEST SWAP2 POP PUSH2 0x413C DUP3 PUSH2 0x40FD JUMP JUMPDEST PUSH1 0x1 DUP3 ADD SWAP1 POP SWAP2 SWAP1 POP JUMP JUMPDEST PUSH32 0x7D00000000000000000000000000000000000000000000000000000000000000 PUSH0 DUP3 ADD MSTORE POP JUMP JUMPDEST PUSH0 PUSH2 0x417B PUSH1 0x1 DUP4 PUSH2 0x30C5 JUMP JUMPDEST SWAP2 POP PUSH2 0x4186 DUP3 PUSH2 0x4147 JUMP JUMPDEST PUSH1 0x1 DUP3 ADD SWAP1 POP SWAP2 SWAP1 POP JUMP JUMPDEST PUSH0 PUSH2 0x419B DUP3 PUSH2 0x3D5F JUMP JUMPDEST SWAP2 POP PUSH2 0x41A7 DUP3 DUP10 PUSH2 0x36A5 JUMP JUMPDEST SWAP2 POP PUSH2 0x41B2 DUP3 PUSH2 0x3DA9 JUMP JUMPDEST SWAP2 POP PUSH2 0x41BD DUP3 PUSH2 0x3DF3 JUMP JUMPDEST SWAP2 POP PUSH2 0x41C9 DUP3 DUP9 PUSH2 0x36A5 JUMP JUMPDEST SWAP2 POP PUSH2 0x41D4 DUP3 PUSH2 0x3DA9 JUMP JUMPDEST SWAP2 POP PUSH2 0x41DF DUP3 PUSH2 0x3E3D JUMP JUMPDEST SWAP2 POP PUSH2 0x41EA DUP3 PUSH2 0x3EAD JUMP JUMPDEST SWAP2 POP PUSH2 0x41F6 DUP3 DUP8 PUSH2 0x36A5 JUMP JUMPDEST SWAP2 POP PUSH2 0x4201 DUP3 PUSH2 0x3EF7 JUMP JUMPDEST SWAP2 POP PUSH2 0x420C DUP3 PUSH2 0x3F67 JUMP JUMPDEST SWAP2 POP PUSH2 0x4218 DUP3 DUP7 PUSH2 0x36A5 JUMP JUMPDEST SWAP2 POP PUSH2 0x4223 DUP3 PUSH2 0x3EF7 JUMP JUMPDEST SWAP2 POP PUSH2 0x422E DUP3 PUSH2 0x3FD7 JUMP JUMPDEST SWAP2 POP PUSH2 0x423A DUP3 DUP6 PUSH2 0x36A5 JUMP JUMPDEST SWAP2 POP PUSH2 0x4245 DUP3 PUSH2 0x4021 JUMP JUMPDEST SWAP2 POP PUSH2 0x4250 DUP3 PUSH2 0x406B JUMP JUMPDEST SWAP2 POP PUSH2 0x425B DUP3 PUSH2 0x40DB JUMP JUMPDEST SWAP2 POP PUSH2 0x4267 DUP3 DUP5 PUSH2 0x36A5 JUMP JUMPDEST SWAP2 POP PUSH2 0x4272 DUP3 PUSH2 0x4125 JUMP JUMPDEST SWAP2 POP PUSH2 0x427D DUP3 PUSH2 0x416F JUMP JUMPDEST SWAP2 POP DUP2 SWAP1 POP SWAP8 SWAP7 POP POP POP POP POP POP POP JUMP JUMPDEST PUSH32 0x646174613A6170706C69636174696F6E2F6A736F6E3B6261736536342C000000 PUSH0 DUP3 ADD MSTORE POP JUMP JUMPDEST PUSH0 PUSH2 0x42C1 PUSH1 0x1D DUP4 PUSH2 0x30C5 JUMP JUMPDEST SWAP2 POP PUSH2 0x42CC DUP3 PUSH2 0x428D JUMP JUMPDEST PUSH1 0x1D DUP3 ADD SWAP1 POP SWAP2 SWAP1 POP JUMP JUMPDEST PUSH0 PUSH2 0x42E1 DUP3 PUSH2 0x42B5 JUMP JUMPDEST SWAP2 POP PUSH2 0x42ED DUP3 DUP5 PUSH2 0x36A5 JUMP JUMPDEST SWAP2 POP DUP2 SWAP1 POP SWAP3 SWAP2 POP POP JUMP JUMPDEST PUSH0 DUP2 SWAP1 POP DUP2 PUSH0 MSTORE PUSH1 0x20 PUSH0 KECCAK256 SWAP1 POP SWAP2 SWAP1 POP JUMP JUMPDEST PUSH0 PUSH1 0x20 PUSH1 0x1F DUP4 ADD DIV SWAP1 POP SWAP2 SWAP1 POP JUMP JUMPDEST PUSH0 DUP3 DUP3 SHL SWAP1 POP SWAP3 SWAP2 POP POP JUMP JUMPDEST PUSH0 PUSH1 0x8 DUP4 MUL PUSH2 0x4354 PUSH32 0xFFFFFFFFFFFFFFFFFFFFFFFFFFFFFFFFFFFFFFFFFFFFFFFFFFFFFFFFFFFFFFFF DUP3 PUSH2 0x4319 JUMP JUMPDEST PUSH2 0x435E DUP7 DUP4 PUSH2 0x4319 JUMP JUMPDEST SWAP6 POP DUP1 NOT DUP5 AND SWAP4 POP DUP1 DUP7 AND DUP5 OR SWAP3 POP POP POP SWAP4 SWAP3 POP POP POP JUMP JUMPDEST PUSH0 DUP2 SWAP1 POP SWAP2 SWAP1 POP JUMP JUMPDEST PUSH0 PUSH2 0x4399 PUSH2 0x4394 PUSH2 0x438F DUP5 PUSH2 0x29BF JUMP JUMPDEST PUSH2 0x4376 JUMP JUMPDEST PUSH2 0x29BF JUMP JUMPDEST SWAP1 POP SWAP2 SWAP1 POP JUMP JUMPDEST PUSH0 DUP2 SWAP1 POP SWAP2 SWAP1 POP JUMP JUMPDEST PUSH2 0x43B2 DUP4 PUSH2 0x437F JUMP JUMPDEST PUSH2 0x43C6 PUSH2 0x43BE DUP3 PUSH2 0x43A0 JUMP JUMPDEST DUP5 DUP5 SLOAD PUSH2 0x4325 JUMP JUMPDEST DUP3 SSTORE POP POP POP POP JUMP JUMPDEST PUSH0 PUSH0 SWAP1 POP SWAP1 JUMP JUMPDEST PUSH2 0x43DD PUSH2 0x43CE JUMP JUMPDEST PUSH2 0x43E8 DUP2 DUP5 DUP5 PUSH2 0x43A9 JUMP JUMPDEST POP POP POP JUMP JUMPDEST JUMPDEST DUP2 DUP2 LT ISZERO PUSH2 0x440B JUMPI PUSH2 0x4400 PUSH0 DUP3 PUSH2 0x43D5 JUMP JUMPDEST PUSH1 0x1 DUP2 ADD SWAP1 POP PUSH2 0x43EE JUMP JUMPDEST POP POP JUMP JUMPDEST PUSH1 0x1F DUP3 GT ISZERO PUSH2 0x4450 JUMPI PUSH2 0x4421 DUP2 PUSH2 0x42F8 JUMP JUMPDEST PUSH2 0x442A DUP5 PUSH2 0x430A JUMP JUMPDEST DUP2 ADD PUSH1 0x20 DUP6 LT ISZERO PUSH2 0x4439 JUMPI DUP2 SWAP1 POP JUMPDEST PUSH2 0x444D PUSH2 0x4445 DUP6 PUSH2 0x430A JUMP JUMPDEST DUP4 ADD DUP3 PUSH2 0x43ED JUMP JUMPDEST POP POP JUMPDEST POP POP POP JUMP JUMPDEST PUSH0 DUP3 DUP3 SHR SWAP1 POP SWAP3 SWAP2 POP POP JUMP JUMPDEST PUSH0 PUSH2 0x4470 PUSH0 NOT DUP5 PUSH1 0x8 MUL PUSH2 0x4455 JUMP JUMPDEST NOT DUP1 DUP4 AND SWAP2 POP POP SWAP3 SWAP2 POP POP JUMP JUMPDEST PUSH0 PUSH2 0x4488 DUP4 DUP4 PUSH2 0x4461 JUMP JUMPDEST SWAP2 POP DUP3 PUSH1 0x2 MUL DUP3 OR SWAP1 POP SWAP3 SWAP2 POP POP JUMP JUMPDEST PUSH2 0x44A1 DUP3 PUSH2 0x292F JUMP JUMPDEST PUSH8 0xFFFFFFFFFFFFFFFF DUP2 GT ISZERO PUSH2 0x44BA JUMPI PUSH2 0x44B9 PUSH2 0x2B31 JUMP JUMPDEST JUMPDEST PUSH2 0x44C4 DUP3 SLOAD PUSH2 0x3060 JUMP JUMPDEST PUSH2 0x44CF DUP3 DUP3 DUP6 PUSH2 0x440F JUMP JUMPDEST PUSH0 PUSH1 0x20 SWAP1 POP PUSH1 0x1F DUP4 GT PUSH1 0x1 DUP2 EQ PUSH2 0x4500 JUMPI PUSH0 DUP5 ISZERO PUSH2 0x44EE JUMPI DUP3 DUP8 ADD MLOAD SWAP1 POP JUMPDEST PUSH2 0x44F8 DUP6 DUP3 PUSH2 0x447D JUMP JUMPDEST DUP7 SSTORE POP PUSH2 0x455F JUMP JUMPDEST PUSH1 0x1F NOT DUP5 AND PUSH2 0x450E DUP7 PUSH2 0x42F8 JUMP JUMPDEST PUSH0 JUMPDEST DUP3 DUP2 LT ISZERO PUSH2 0x4535 JUMPI DUP5 DUP10 ADD MLOAD DUP3 SSTORE PUSH1 0x1 DUP3 ADD SWAP2 POP PUSH1 0x20 DUP6 ADD SWAP5 POP PUSH1 0x20 DUP2 ADD SWAP1 POP PUSH2 0x4510 JUMP JUMPDEST DUP7 DUP4 LT ISZERO PUSH2 0x4552 JUMPI DUP5 DUP10 ADD MLOAD PUSH2 0x454E PUSH1 0x1F DUP10 AND DUP3 PUSH2 0x4461 JUMP JUMPDEST DUP4 SSTORE POP JUMPDEST PUSH1 0x1 PUSH1 0x2 DUP9 MUL ADD DUP9 SSTORE POP POP POP JUMPDEST POP POP POP POP POP POP JUMP JUMPDEST PUSH32 0x4E487B7100000000000000000000000000000000000000000000000000000000 PUSH0 MSTORE PUSH1 0x11 PUSH1 0x4 MSTORE PUSH1 0x24 PUSH0 REVERT JUMPDEST PUSH0 PUSH2 0x459E DUP3 PUSH2 0x29BF JUMP JUMPDEST SWAP2 POP PUSH2 0x45A9 DUP4 PUSH2 0x29BF JUMP JUMPDEST SWAP3 POP DUP3 DUP3 MUL PUSH2 0x45B7 DUP2 PUSH2 0x29BF JUMP JUMPDEST SWAP2 POP DUP3 DUP3 DIV DUP5 EQ DUP4 ISZERO OR PUSH2 0x45CE JUMPI PUSH2 0x45CD PUSH2 0x4567 JUMP JUMPDEST JUMPDEST POP SWAP3 SWAP2 POP POP JUMP JUMPDEST PUSH32 0x4E487B7100000000000000000000000000000000000000000000000000000000 PUSH0 MSTORE PUSH1 0x32 PUSH1 0x4 MSTORE PUSH1 0x24 PUSH0 REVERT JUMPDEST PUSH0 PUSH2 0x460C DUP3 PUSH2 0x29BF JUMP JUMPDEST SWAP2 POP PUSH32 0xFFFFFFFFFFFFFFFFFFFFFFFFFFFFFFFFFFFFFFFFFFFFFFFFFFFFFFFFFFFFFFFF DUP3 SUB PUSH2 0x463E JUMPI PUSH2 0x463D PUSH2 0x4567 JUMP JUMPDEST JUMPDEST PUSH1 0x1 DUP3 ADD SWAP1 POP SWAP2 SWAP1 POP JUMP JUMPDEST PUSH32 0x4E487B7100000000000000000000000000000000000000000000000000000000 PUSH0 MSTORE PUSH1 0x12 PUSH1 0x4 MSTORE PUSH1 0x24 PUSH0 REVERT JUMPDEST PUSH0 DUP2 MLOAD SWAP1 POP SWAP2 SWAP1 POP JUMP JUMPDEST PUSH0 DUP3 DUP3 MSTORE PUSH1 0x20 DUP3 ADD SWAP1 POP SWAP3 SWAP2 POP POP JUMP JUMPDEST PUSH0 PUSH2 0x469A DUP3 PUSH2 0x4676 JUMP JUMPDEST PUSH2 0x46A4 DUP2 DUP6 PUSH2 0x4680 JUMP JUMPDEST SWAP4 POP PUSH2 0x46B4 DUP2 DUP6 PUSH1 0x20 DUP7 ADD PUSH2 0x2949 JUMP JUMPDEST PUSH2 0x46BD DUP2 PUSH2 0x2957 JUMP JUMPDEST DUP5 ADD SWAP2 POP POP SWAP3 SWAP2 POP POP JUMP JUMPDEST PUSH0 PUSH1 0x80 DUP3 ADD SWAP1 POP PUSH2 0x46DB PUSH0 DUP4 ADD DUP8 PUSH2 0x2A4D JUMP JUMPDEST PUSH2 0x46E8 PUSH1 0x20 DUP4 ADD DUP7 PUSH2 0x2A4D JUMP JUMPDEST PUSH2 0x46F5 PUSH1 0x40 DUP4 ADD DUP6 PUSH2 0x2D80 JUMP JUMPDEST DUP2 DUP2 SUB PUSH1 0x60 DUP4 ADD MSTORE PUSH2 0x4707 DUP2 DUP5 PUSH2 0x4690 JUMP JUMPDEST SWAP1 POP SWAP6 SWAP5 POP POP POP POP POP JUMP JUMPDEST PUSH0 DUP2 MLOAD SWAP1 POP PUSH2 0x4720 DUP2 PUSH2 0x28A7 JUMP JUMPDEST SWAP3 SWAP2 POP POP JUMP JUMPDEST PUSH0 PUSH1 0x20 DUP3 DUP5 SUB SLT ISZERO PUSH2 0x473B JUMPI PUSH2 0x473A PUSH2 0x2874 JUMP JUMPDEST JUMPDEST PUSH0 PUSH2 0x4748 DUP5 DUP3 DUP6 ADD PUSH2 0x4712 JUMP JUMPDEST SWAP2 POP POP SWAP3 SWAP2 POP POP JUMP JUMPDEST PUSH0 PUSH1 0x40 DUP3 ADD SWAP1 POP PUSH2 0x4764 PUSH0 DUP4 ADD DUP6 PUSH2 0x2A4D JUMP JUMPDEST PUSH2 0x4771 PUSH1 0x20 DUP4 ADD DUP5 PUSH2 0x2D80 JUMP JUMPDEST SWAP4 SWAP3 POP POP POP JUMP JUMPDEST PUSH0 PUSH2 0x4782 DUP3 PUSH2 0x29BF JUMP JUMPDEST SWAP2 POP PUSH2 0x478D DUP4 PUSH2 0x29BF JUMP JUMPDEST SWAP3 POP DUP3 DUP3 ADD SWAP1 POP DUP1 DUP3 GT ISZERO PUSH2 0x47A5 JUMPI PUSH2 0x47A4 PUSH2 0x4567 JUMP JUMPDEST JUMPDEST SWAP3 SWAP2 POP POP JUMP JUMPDEST PUSH0 PUSH2 0x47B5 DUP3 PUSH2 0x29BF JUMP JUMPDEST SWAP2 POP PUSH2 0x47C0 DUP4 PUSH2 0x29BF JUMP JUMPDEST SWAP3 POP DUP3 PUSH2 0x47D0 JUMPI PUSH2 0x47CF PUSH2 0x4649 JUMP JUMPDEST JUMPDEST DUP3 DUP3 DIV SWAP1 POP SWAP3 SWAP2 POP POP JUMP INVALID COINBASE TIMESTAMP NUMBER PREVRANDAO GASLIMIT CHAINID SELFBALANCE BASEFEE BLOBHASH BLOBBASEFEE 0x4B 0x4C 0x4D 0x4E 0x4F POP MLOAD MSTORE MSTORE8 SLOAD SSTORE JUMP JUMPI PC MSIZE GAS PUSH2 0x6263 PUSH5 0x6566676869 PUSH11 0x6B6C6D6E6F707172737475 PUSH23 0x7778797A303132333435363738392B2FA2646970667358 0x22 SLT KECCAK256 ADDRESS PUSH19 0xF3FF76EF421F6C32182E2FB6CD31056BD293BD DUP15 SLOAD SLT PUSH28 0x8FAB8E0ACFB68464736F6C634300081E003300000000000000000000 "
		},
		"gasEstimates": {
			"creation": {
				"codeDepositCost": "3702600",
				"executionCost": "infinite",
				"totalCost": "infinite"
			},
			"external": {
				"approve(address,uint256)": "infinite",
				"balanceOf(address)": "infinite",
				"generateSVG((string,string,uint256,address))": "infinite",
				"getApproved(uint256)": "infinite",
				"isApprovedForAll(address,address)": "infinite",
				"journalEntries(uint256)": "infinite",
				"mintEntry(string,string)": "infinite",
				"name()": "infinite",
				"ownerOf(uint256)": "infinite",
				"safeTransferFrom(address,address,uint256)": "infinite",
				"safeTransferFrom(address,address,uint256,bytes)": "infinite",
				"setApprovalForAll(address,bool)": "infinite",
				"supportsInterface(bytes4)": "787",
				"symbol()": "infinite",
				"tokenURI(uint256)": "infinite",
				"transferFrom(address,address,uint256)": "infinite"
			},
			"internal": {
				"_escapeString(string memory)": "infinite"
			}
		},
		"methodIdentifiers": {
			"approve(address,uint256)": "095ea7b3",
			"balanceOf(address)": "70a08231",
			"generateSVG((string,string,uint256,address))": "58dca498",
			"getApproved(uint256)": "081812fc",
			"isApprovedForAll(address,address)": "e985e9c5",
			"journalEntries(uint256)": "d83fe9f5",
			"mintEntry(string,string)": "d43bd5c2",
			"name()": "06fdde03",
			"ownerOf(uint256)": "6352211e",
			"safeTransferFrom(address,address,uint256)": "42842e0e",
			"safeTransferFrom(address,address,uint256,bytes)": "b88d4fde",
			"setApprovalForAll(address,bool)": "a22cb465",
			"supportsInterface(bytes4)": "01ffc9a7",
			"symbol()": "95d89b41",
			"tokenURI(uint256)": "c87b56dd",
			"transferFrom(address,address,uint256)": "23b872dd"
		}
	},
	"abi": [
		{
			"inputs": [],
			"stateMutability": "nonpayable",
			"type": "constructor"
		},
		{
			"inputs": [
				{
					"internalType": "address",
					"name": "sender",
					"type": "address"
				},
				{
					"internalType": "uint256",
					"name": "tokenId",
					"type": "uint256"
				},
				{
					"internalType": "address",
					"name": "owner",
					"type": "address"
				}
			],
			"name": "ERC721IncorrectOwner",
			"type": "error"
		},
		{
			"inputs": [
				{
					"internalType": "address",
					"name": "operator",
					"type": "address"
				},
				{
					"internalType": "uint256",
					"name": "tokenId",
					"type": "uint256"
				}
			],
			"name": "ERC721InsufficientApproval",
			"type": "error"
		},
		{
			"inputs": [
				{
					"internalType": "address",
					"name": "approver",
					"type": "address"
				}
			],
			"name": "ERC721InvalidApprover",
			"type": "error"
		},
		{
			"inputs": [
				{
					"internalType": "address",
					"name": "operator",
					"type": "address"
				}
			],
			"name": "ERC721InvalidOperator",
			"type": "error"
		},
		{
			"inputs": [
				{
					"internalType": "address",
					"name": "owner",
					"type": "address"
				}
			],
			"name": "ERC721InvalidOwner",
			"type": "error"
		},
		{
			"inputs": [
				{
					"internalType": "address",
					"name": "receiver",
					"type": "address"
				}
			],
			"name": "ERC721InvalidReceiver",
			"type": "error"
		},
		{
			"inputs": [
				{
					"internalType": "address",
					"name": "sender",
					"type": "address"
				}
			],
			"name": "ERC721InvalidSender",
			"type": "error"
		},
		{
			"inputs": [
				{
					"internalType": "uint256",
					"name": "tokenId",
					"type": "uint256"
				}
			],
			"name": "ERC721NonexistentToken",
			"type": "error"
		},
		{
			"anonymous": false,
			"inputs": [
				{
					"indexed": true,
					"internalType": "address",
					"name": "owner",
					"type": "address"
				},
				{
					"indexed": true,
					"internalType": "address",
					"name": "approved",
					"type": "address"
				},
				{
					"indexed": true,
					"internalType": "uint256",
					"name": "tokenId",
					"type": "uint256"
				}
			],
			"name": "Approval",
			"type": "event"
		},
		{
			"anonymous": false,
			"inputs": [
				{
					"indexed": true,
					"internalType": "address",
					"name": "owner",
					"type": "address"
				},
				{
					"indexed": true,
					"internalType": "address",
					"name": "operator",
					"type": "address"
				},
				{
					"indexed": false,
					"internalType": "bool",
					"name": "approved",
					"type": "bool"
				}
			],
			"name": "ApprovalForAll",
			"type": "event"
		},
		{
			"anonymous": false,
			"inputs": [
				{
					"indexed": true,
					"internalType": "address",
					"name": "from",
					"type": "address"
				},
				{
					"indexed": true,
					"internalType": "address",
					"name": "to",
					"type": "address"
				},
				{
					"indexed": true,
					"internalType": "uint256",
					"name": "tokenId",
					"type": "uint256"
				}
			],
			"name": "Transfer",
			"type": "event"
		},
		{
			"inputs": [
				{
					"internalType": "address",
					"name": "to",
					"type": "address"
				},
				{
					"internalType": "uint256",
					"name": "tokenId",
					"type": "uint256"
				}
			],
			"name": "approve",
			"outputs": [],
			"stateMutability": "nonpayable",
			"type": "function"
		},
		{
			"inputs": [
				{
					"internalType": "address",
					"name": "owner",
					"type": "address"
				}
			],
			"name": "balanceOf",
			"outputs": [
				{
					"internalType": "uint256",
					"name": "",
					"type": "uint256"
				}
			],
			"stateMutability": "view",
			"type": "function"
		},
		{
			"inputs": [
				{
					"components": [
						{
							"internalType": "string",
							"name": "text",
							"type": "string"
						},
						{
							"internalType": "string",
							"name": "mood",
							"type": "string"
						},
						{
							"internalType": "uint256",
							"name": "timestamp",
							"type": "uint256"
						},
						{
							"internalType": "address",
							"name": "owner",
							"type": "address"
						}
					],
					"internalType": "struct OnChainJournal.JournalEntry",
					"name": "entry",
					"type": "tuple"
				}
			],
			"name": "generateSVG",
			"outputs": [
				{
					"internalType": "string",
					"name": "",
					"type": "string"
				}
			],
			"stateMutability": "pure",
			"type": "function"
		},
		{
			"inputs": [
				{
					"internalType": "uint256",
					"name": "tokenId",
					"type": "uint256"
				}
			],
			"name": "getApproved",
			"outputs": [
				{
					"internalType": "address",
					"name": "",
					"type": "address"
				}
			],
			"stateMutability": "view",
			"type": "function"
		},
		{
			"inputs": [
				{
					"internalType": "address",
					"name": "owner",
					"type": "address"
				},
				{
					"internalType": "address",
					"name": "operator",
					"type": "address"
				}
			],
			"name": "isApprovedForAll",
			"outputs": [
				{
					"internalType": "bool",
					"name": "",
					"type": "bool"
				}
			],
			"stateMutability": "view",
			"type": "function"
		},
		{
			"inputs": [
				{
					"internalType": "uint256",
					"name": "",
					"type": "uint256"
				}
			],
			"name": "journalEntries",
			"outputs": [
				{
					"internalType": "string",
					"name": "text",
					"type": "string"
				},
				{
					"internalType": "string",
					"name": "mood",
					"type": "string"
				},
				{
					"internalType": "uint256",
					"name": "timestamp",
					"type": "uint256"
				},
				{
					"internalType": "address",
					"name": "owner",
					"type": "address"
				}
			],
			"stateMutability": "view",
			"type": "function"
		},
		{
			"inputs": [
				{
					"internalType": "string",
					"name": "_text",
					"type": "string"
				},
				{
					"internalType": "string",
					"name": "_mood",
					"type": "string"
				}
			],
			"name": "mintEntry",
			"outputs": [],
			"stateMutability": "nonpayable",
			"type": "function"
		},
		{
			"inputs": [],
			"name": "name",
			"outputs": [
				{
					"internalType": "string",
					"name": "",
					"type": "string"
				}
			],
			"stateMutability": "view",
			"type": "function"
		},
		{
			"inputs": [
				{
					"internalType": "uint256",
					"name": "tokenId",
					"type": "uint256"
				}
			],
			"name": "ownerOf",
			"outputs": [
				{
					"internalType": "address",
					"name": "",
					"type": "address"
				}
			],
			"stateMutability": "view",
			"type": "function"
		},
		{
			"inputs": [
				{
					"internalType": "address",
					"name": "from",
					"type": "address"
				},
				{
					"internalType": "address",
					"name": "to",
					"type": "address"
				},
				{
					"internalType": "uint256",
					"name": "tokenId",
					"type": "uint256"
				}
			],
			"name": "safeTransferFrom",
			"outputs": [],
			"stateMutability": "nonpayable",
			"type": "function"
		},
		{
			"inputs": [
				{
					"internalType": "address",
					"name": "from",
					"type": "address"
				},
				{
					"internalType": "address",
					"name": "to",
					"type": "address"
				},
				{
					"internalType": "uint256",
					"name": "tokenId",
					"type": "uint256"
				},
				{
					"internalType": "bytes",
					"name": "data",
					"type": "bytes"
				}
			],
			"name": "safeTransferFrom",
			"outputs": [],
			"stateMutability": "nonpayable",
			"type": "function"
		},
		{
			"inputs": [
				{
					"internalType": "address",
					"name": "operator",
					"type": "address"
				},
				{
					"internalType": "bool",
					"name": "approved",
					"type": "bool"
				}
			],
			"name": "setApprovalForAll",
			"outputs": [],
			"stateMutability": "nonpayable",
			"type": "function"
		},
		{
			"inputs": [
				{
					"internalType": "bytes4",
					"name": "interfaceId",
					"type": "bytes4"
				}
			],
			"name": "supportsInterface",
			"outputs": [
				{
					"internalType": "bool",
					"name": "",
					"type": "bool"
				}
			],
			"stateMutability": "view",
			"type": "function"
		},
		{
			"inputs": [],
			"name": "symbol",
			"outputs": [
				{
					"internalType": "string",
					"name": "",
					"type": "string"
				}
			],
			"stateMutability": "view",
			"type": "function"
		},
		{
			"inputs": [
				{
					"internalType": "uint256",
					"name": "tokenId",
					"type": "uint256"
				}
			],
			"name": "tokenURI",
			"outputs": [
				{
					"internalType": "string",
					"name": "",
					"type": "string"
				}
			],
			"stateMutability": "view",
			"type": "function"
		},
		{
			"inputs": [
				{
					"internalType": "address",
					"name": "from",
					"type": "address"
				},
				{
					"internalType": "address",
					"name": "to",
					"type": "address"
				},
				{
					"internalType": "uint256",
					"name": "tokenId",
					"type": "uint256"
				}
			],
			"name": "transferFrom",
			"outputs": [],
			"stateMutability": "nonpayable",
			"type": "function"
		}
	]
}